:1000000034C1000060C100005EC100005CC100009E
:100010005AC1000058C1000056C1000054C1000080
:1000200052C1000050C100004EC100004CC1000090
:100030004AC1000048C1000046C1000044C10000A0
:1000400042C1000040C100003EC100003CC10000B0
:100050003AC1000038C1000036C1000037C70000B7
:1000600032C1000030C100002EC100002CC10000D0
:100070002AC1000028C1000026C1000024C10000E0
:1000800022C1000020C100001EC100001CC10000F0
:100090001AC1000018C1000016C1000014C1000000
:1000A00012C1000010C100000EC100000CC1000010
:1000B0000AC1000008C1000006C1000004C1000020
:1000C00002C1000000C10000FEC00000FCC0000032
:1000D000FAC00000F8C00000F6C00000F4C0000044
:1000E000F2C0000008000000BE922449123EABAAF4
:1000F000AA2ABECDCCCC4C3E00000080BEABAAAA42
:10010000AA3E00000000BF000000803F0000000089
:1001100000084178D3BB4387D1133D190E3CC3BDC2
:100120004282AD2B3E68EC8276BED98FE1A93E4C6F
:1001300080EFFFBE01C4FF7F3F00000000005C08AD
:100140005F084E08520858089608630867086D084B
:10015000710875087B087F088308960889088D0850
:10016000910800000A0B02090C0D0E080703040198
:10017000000000000000000000000000000000007F
:10018000000000000000000000000000000012114C
:10019000100000000000000000000000000000004F
:1001A00000000000000000000102102020080810DC
:1001B00020401020408002010201080402010102D7
:1001C00004081020408080402010080402018004B0
:1001D000020180402010080402010804020101020B
:1001E000040810204080010204081020408005050A
:1001F0000505070508080808020202020A0A08089D
:1002000004040404010101010101010103030303CA
:1002100003030303040707070C0C0C0C0C0C0C0C59
:100220000202020206060606060606060B0B0B0B6A
:100230000B0B0B0B00002200250028002B002E00CA
:100240003100340002010000050108010B0100002B
:100250002100240027002A002D0030003300010176
:100260000000040107010A01190211241FBECFEF8B
:10027000D1E2DEBFCDBF00E00CBF12E0A0E0B2E0F3
:10028000EAEBF2E100E00BBF02C007900D92A4334D
:10029000B107D9F722E0A4E3B2E001C01D92A7356F
:1002A000B207E1F711E0C5E3D1E000E005C0219716
:1002B0000109802FFE01F7D7C433D10780E008077A
:1002C000B1F792D4F8C79CCE61E08DE030D720E042
:1002D00042E060E184E392E073D16AE072E084E39B
:1002E00092E0CCD440E06BE084E392E050D16091A6
:1002F000000284E392E0C3C4CF92DF92EF92FF92B8
:1003000086E39BD6BC01990F880B990BDDD29B012C
:10031000AC0160E070E080E894E46CD220E030E072
:1003200040E85FE3FED120E030E44CE156E4C5D381
:1003300084D36B017C0129E537E44CEB53E3BDD357
:10034000A7019601BAD323E73FE745E759E3EAD18E
:10035000A7019601B2D32BEE3FEF43E95AE3E2D176
:100360009B01AC0160E070E080E89FE343D223E3AF
:1003700033E948E853E4D5D16B017C0140E066E005
:1003800084E392E004D122E030E0B701A60184E3E7
:1003900092E09BD520910502309106024091070220
:1003A00050910802C701B6013FD387FD07C081E025
:1003B00090E090934D0280934C0211C02091010275
:1003C000309102024091030250910402C701B6012C
:1003D0000DD2181624F010924D0210924C0280910A
:1003E0004C0290914D028130910559F461E08DE00D
:1003F000DAD641E060E084E392E0C9D060E172E0E7
:100400000CC0892B89F460E08DE0CDD641E060E03E
:1004100084E392E0BCD065E172E084E392E0FF9077
:10042000EF90DF90CF902AC4FF90EF90DF90CF90B5
:100430000895CF92EF920F9382E0C82E93E0E92EB9
:1004400004E025E04BE06CE084E392E046D10F91BC
:10045000EF90CF90089580E090E008950895CF93B5
:10046000DF93EC0160E08E819ED681E090E078D54C
:1004700061E08E8198D681E090E072D560E08E8157
:1004800092D684E690E0DF91CF916AC5CF92DF9259
:10049000EF92FF920F931F93CF93DF936C017C0138
:1004A00087E0E80EF11CC0E0D0E0062F10E0B801B4
:1004B0000C2E02C0759567950A94E2F76170F701FA
:1004C00081917F0170D62196C430D10581F7C60194
:1004D000DF91CF911F910F91FF90EF90DF90CF9020
:1004E000BECFCF92DF92EF92FF920F931F93CF93E5
:1004F000DF936C017C0187E0E80EF11CC0E0D0E0E6
:10050000062F10E0B8010C2E02C0759567950A946D
:10051000E2F76170F70181917F0145D62196C830DD
:10052000D10581F7C601DF91CF911F910F91FF9007
:10053000EF90DF90CF9093CF1F93CF93DF93EC0199
:10054000162F642F8C812FD68D818F3F11F060E0A4
:100550002AD68F85612F84FF05C0CE01DF91CF9110
:100560001F91BFCF70E084E0759567958A95E1F79C
:10057000CE018CDF612FCE01DF91CF911F9186CF0D
:1005800040E0DACF61E0FCDF80ED97E0E9C4FC01F8
:10059000443008F043E08389481710F04FEF480FCC
:1005A000DF01A40FB11D54969C91690F6068CF01C3
:1005B000E7CFFC016089262F2460208B6C60E0CFA0
:1005C000EF92FF920F931F93CF93DF93EC01423092
:1005D00018F08F8588608F874B8B1C8A80E48D8B09
:1005E0006E8B70E0605C7F4F6F8B222329F041306F
:1005F00019F48F8584608F8761E08C8198D58D8117
:100600008F3F11F061E093D561E08E8190D57E013E
:1006100087E0E80EF11C00E010E08F8584FD03C048
:1006200084E090E002C088E090E00817190744F4E5
:1006300061E0F70181917F017AD50F5F1F4FEDCF08
:1006400080E593EC8DD460E08C81ADD560E08E8147
:10065000AAD58D818F3F11F060E0A5D56F8564FD2F
:1006600016C063E0CE0112DF84E991E179D463E042
:10067000CE010CDF84E991E173D463E0CE0106DFA3
:1006800086E990E06DD462E0CE0100DF11C06062C7
:10069000CE0176DF84E991E163D46F856062CE019B
:1006A0006FDF86E990E05CD46F856062CE0168DF21
:1006B0006F856062CE0164DF84E0888BCE0179DFD4
:1006C000CE0160DF82E0898B66E0CE01DF91CF91C1
:1006D0001F910F91FF90EF9053CFCF92EF920F9316
:1006E000FC01138212828DE192E091838083648306
:1006F0008FEF8583468327830087E186C286138632
:10070000148615861686178620E041E060E1CF0149
:100710000F91EF90CF9054CF41E00EDF81E090E059
:1007200008955058BB27AA270ED044C135D130F0C8
:100730003AD120F031F49F3F11F41EF42AC10EF497
:10074000E095E7FB20C1E92F46D180F3BA17620795
:1007500073078407950718F071F49EF55EC10EF4D7
:10076000E0950B2EBA2FA02D0B01B90190010C01C1
:10077000CA01A0011124FF27591B99F0593F50F4D9
:10078000503E68F11A16F040A22F232F342F442731
:10079000585FF3CF469537952795A795F040539529
:1007A000C9F77EF41F16BA0B620B730B840BBAF0F9
:1007B0009150A1F0FF0FBB1F661F771F881FC2F764
:1007C0000EC0BA0F621F731F841F48F48795779578
:1007D0006795B795F7959E3F08F0B3CF9395880F2F
:1007E00008F09927EE0F979587950895A8D008F4FB
:1007F00081E008950CD0DEC0D6D040F0CDD030F0EE
:1008000021F45F3F19F0BFC0511108C1C2C0E3D04D
:1008100098F39923C9F35523B1F3951B550BBB27C7
:10082000AA2762177307840738F09F5F5F4F220F74
:10083000331F441FAA1FA9F333D00E2E3AF0E0E86D
:1008400030D091505040E695001CCAF729D0FE2FB9
:1008500027D0660F771F881FBB1F2617370748074B
:10086000AB07B0E809F0BB0B802DBF01FF27935801
:100870005F4F2AF09E3F510568F085C0CFC05F3FB3
:10088000ECF3983EDCF3869577956795B795F795E9
:100890009F5FC9F7880F911D9695879597F90895E1
:1008A000E1E0660F771F881FBB1F6217730784077D
:1008B000BA0720F0621B730B840BBA0BEE1F88F78C
:1008C000E0950895E89409C097FB3EF490958095D3
:1008D000709561957F4F8F4F9F4F9923A9F0F92F06
:1008E00096E9BB279395F695879577956795B79584
:1008F000F111F8CFFAF4BB0F11F460FF1BC06F5F6A
:100900007F4F8F4F9F4F16C0882311F096E911C07B
:10091000772321F09EE8872F762F05C0662371F09C
:1009200096E8862F70E060E02AF09A95660F771FB0
:10093000881FDAF7880F9695879597F90895990F8C
:100940000008550FAA0BE0E8FEEF16161706E80799
:10095000F907C0F012161306E407F50798F0621BBA
:10096000730B840B950B39F40A2661F0232B242B8F
:10097000252B21F408950A2609F4A140A6958FEFAE
:10098000811D811D089597F99F6780E870E060E000
:1009900008959FEF80EC089500240A941616170618
:1009A00018060906089500240A9412161306140660
:1009B00005060895092E0394000C11F4882352F0C3
:1009C000BB0F40F4BF2B11F460FF04C06F5F7F4F7B
:1009D0008F4F9F4F089557FD9058440F551F59F062
:1009E0005F3F71F04795880F97FB991F61F09F3F1C
:1009F00079F087950895121613061406551FF2CF45
:100A00004695F1DF08C0161617061806991FF1CF94
:100A100086957105610508940895E894BB276627BB
:100A20007727CB0197F908958ADF08F48FEF0895AF
:100A30000EF0A6C0AECF6894A6CFD5DFC8F3992339
:100A4000D1F3C6F3DF93CF931F930F93FF92C92F78
:100A5000DD2788232AF02197660F771F881FDAF792
:100A600020E030E040E85FEB9FE3883920F0803EF3
:100A700030F021968F7756DEE4EEF0E003C052DED0
:100A8000E1E1F1E08BD08B01BE01EC01FB2E6F5751
:100A900071097595771F880B990B16DF28E132E7EE
:100AA00041E35FE316D0AF2D9801AE01FF900F91A7
:100AB0001F91CF91DF9147DE7DCF0BD07BCF6CDFD5
:100AC00028F071DF18F0952309F05DCF62CF112473
:100AD000A5CF81DFA0F3959FD1F3950F50E0551F6F
:100AE000629FF001729FBB27F00DB11D639FAA2783
:100AF000F00DB11DAA1F649F6627B00DA11D661FD2
:100B0000829F2227B00DA11D621F739FB00DA11DF2
:100B1000621F839FA00D611D221F749F3327A00DAC
:100B2000611D231F849F600D211D822F762F6A2F48
:100B300011249F5750408AF0E1F088234AF0EE0FCD
:100B4000FF1FBB1F661F771F881F91505040A9F7DA
:100B50009E3F510570F017CF61CF5F3FECF3983E99
:100B6000DCF3869577956795B795F795E7959F5F41
:100B7000C1F7FE2B880F911D9695879597F90895DB
:100B80009F3F31F0915020F4879577956795B79501
:100B9000880F911D9695879597F90895DF93CF93C8
:100BA0001F930F93FF92EF92DF927B018C01689469
:100BB00005C0DA2EEF018DDFFE01E894A5912591A5
:100BC000359145915591AEF3EF01BDDDFE019701E1
:100BD000A801DA9479F7DF90EF90FF900F911F91C1
:100BE000CF91DF9108950895C6D1FDDF6DDBC0E0A0
:100BF000D0E082DB2097E9F30E940000FACFCF9289
:100C0000DF92EF92FF920F931F93CF93DF936C01CC
:100C10007A018B01C0E0D0E0CE15DF0581F0D8016C
:100C20006D918D01D601ED91FC910190F081E02D47
:100C3000C6011995892B11F02196EECF7E01C701CF
:100C4000DF91CF911F910F91FF90EF90DF90CF90A8
:100C500008956115710579F0FB0101900020E9F715
:100C60003197AF01461B570BDC01ED91FC910280DF
:100C7000F381E02D199480E090E00895EACFDC0143
:100C8000ED91FC910190F081E02D19948F929F924B
:100C9000AF92BF92EF92FF920F931F93CF93DF9388
:100CA000CDB7DEB7A1970FB6F894DEBF0FBECDBFAC
:100CB0007C01FA01CB0119A2223008F42AE08E014E
:100CC0000F5D1F4F822E912CA12CB12CBF01A501CD
:100CD0009401C7D2F901CA01015011096A3010F418
:100CE000605D01C0695CD8016C93232B242B252BFC
:100CF00069F7B801C701ADDFA1960FB6F894DEBF62
:100D00000FBECDBFDF91CF911F910F91FF90EF905C
:100D1000BF90AF909F908F9008952115310541F4B9
:100D2000DC01ED91FC910190F081E02D642F19948C
:100D3000ADCF9A01AB0160E070E0EFCF7F928F9270
:100D40009F92AF92BF92CF92DF92EF92FF920F935A
:100D50001F93CF93DF938C016A017B01722E9A015E
:100D6000AB01C701B60179D2882319F068E272E0BD
:100D700024C046015701E894B7F82FEF3FEF4FE743
:100D80005FE7C501B40169D281110CC02FEF3FEFBD
:100D90004FE75FE7C501B40129DD18161CF46CE2CA
:100DA00072E00BC02FEF3FEF4FE75FE4C701B601E2
:100DB0003BDE18168CF460E372E0C801DF91CF913E
:100DC0001F910F91FF90EF90DF90CF90BF90AF9069
:100DD0009F908F907F903DCF2FEF3FEF4FE75FECDD
:100DE000C701B60103DD87FDE6CF20E030E0A901B1
:100DF000C701B601FBDC87FF09C06DE2C8013FDF18
:100E0000EC01F7FAF094F7F8F09402C0C0E0D0E0FB
:100E1000B12C60E070E080E09FE37B1439F020E0CB
:100E200030E040E251E4E6DCB394F7CFA70196014D
:100E300079DC6B017C01E5D14B015C012AE0AB015F
:100E4000BC01C80123DFC80FD91F772079F1C50184
:100E5000B40138DD9B01AC01C701B60162DC6B0156
:100E60007C016EE2C8010BDFC80FD91F20E030E023
:100E700040E251E4C701B60120DE4B015C01C1D163
:100E80006B017C014AE050E0C80153DFC80FD91F55
:100E9000B60180E090E016DD9B01AC01C501B40114
:100EA00040DC6B017C017A947110E0CFCE01DF91C0
:100EB000CF911F910F91FF90EF90DF90CF90BF9057
:100EC000AF909F908F907F90089538CF1F920F9290
:100ED0000FB60F9211242F933F938F939F93AF934D
:100EE000BF9380914F0290915002A0915102B09116
:100EF000520230914E0223E0230F2D3720F4019649
:100F0000A11DB11D05C026E8230F0296A11DB11D2C
:100F100020934E0280934F0290935002A09351026F
:100F2000B09352028091530290915402A0915502C5
:100F3000B09156020196A11DB11D8093530290936A
:100F40005402A0935502B0935602BF91AF919F9166
:100F50008F913F912F910F900FBE0F901F9018957A
:100F60008230910538F0880F991F880F991F0597D7
:100F70000197F1F70895789484B5826084BD84B5B3
:100F8000816084BD85B5826085BD85B5816085BD84
:100F9000EEE6F0E0808181608083E1E8F0E010829D
:100FA000808182608083808181608083E0E8F0E0DE
:100FB000808181608083E1EBF0E0808184608083C8
:100FC000E0EBF0E0808181608083E1E9F0E0808106
:100FD00082608083808181608083E0E9F0E08081AD
:100FE00081608083E1EAF0E080818260808380819B
:100FF00081608083E0EAF0E0808181608083E1E2CB
:10100000F1E0808182608083808181608083E0E282
:10101000F1E0808181608083EAE7F0E08081846094
:1010200080838081826080838081816080838081F1
:10103000806880831092C1000895863308F086533B
:1010400090917B00282F2870977F922B90937B00A4
:101050002091090290E4299F900111248770822B2E
:1010600080937C0080917A00806480937A008091E4
:101070007A0086FDFCCF809178002091790090E085
:10108000922B089590E0FC013197E231F10508F0D0
:101090004DC08827E156FF4F8F4F05C180918000DA
:1010A0008F7703C0809180008F7D809380000895AA
:1010B00080918000877FF9CF84B58F7702C084B597
:1010C0008F7D84BD08958091B0008F7703C080919B
:1010D000B0008F7D8093B0000895809190008F774D
:1010E00007C0809190008F7D03C080919000877F22
:1010F0008093900008958091A0008F7707C0809121
:10110000A0008F7D03C08091A000877F8093A00006
:101110000895809120018F7707C0809120018F7DF5
:1011200003C080912001877F809320010895CF9391
:10113000DF9390E0FC01E855FE4F2491FC01E25161
:10114000FE4F8491882361F190E0880F991FFC0184
:10115000E25BFD4FC591D491FC01EC5CFD4FA59184
:10116000B491611109C09FB7F894888120958223BA
:101170008883EC912E230BC0623061F49FB7F89402
:101180008881322F309583238883EC912E2B2C93EA
:101190009FBF06C08FB7F894E8812E2B28838FBF9E
:1011A000DF91CF9108951F93CF93DF93282F30E0E5
:1011B000F901EE59FE4F8491F901E855FE4FD491A3
:1011C000F901E251FE4FC491CC23B9F0162F8111E1
:1011D00059DFEC2FF0E0EE0FFF1FEC5CFD4FA59107
:1011E000B4919FB7F894111104C08C91D095D82375
:1011F00002C0EC91DE2BDC939FBFDF91CF911F915A
:101200000895F1DB88F09F5790F0B92F9927B751D7
:10121000A0F0D1F0660F771F881F991F1AF0BA95BA
:10122000C9F712C0B13081F0F8DBB1E00895F5CB19
:10123000672F782F8827B85F39F0B93FCCF38695B0
:1012400077956795B395D9F73EF49095809570950D
:1012500061957F4F8F4F9F4F089571DB880B990BDE
:101260000895A1E21A2EAA1BBB1BFD010DC0AA1FE7
:10127000BB1FEE1FFF1FA217B307E407F50720F0FF
:10128000A21BB30BE40BF50B661F771F881F991F7A
:101290001A9469F760957095809590959B01AC01C3
:1012A000BD01CF010895EE0FFF1F881F8BBF079070
:0A12B000F691E02D1994F894FFCF99
:1012BA00DF0000C4410000C8410154656D70200080
:1012CA0048696768004C6F7700000000008C03FFD4
:1012DA00052B022E020D0A006E616E00696E660011
:0412EA006F766600B5
:00000001FF
