S0130000426172654D696E696D756D2E73726563BB
S11300008AC70000B9C70000B7C70000B5C7000021
S1130010B3C70000B1C70000AFC70000ADC7000000
S1130020ABC70000A9C70000A7C70000A5C7000010
S1130030A3C70000A1C700009FC700009DC7000020
S11300409BC700000C94314297C7000095C700007D
S113005093C7000091C700008FC700000C94384A72
S11300608BC700000C9447480C947D4885C700005A
S113007083C7000081C700007FC700007DC7000060
S11300800C94684279C7000077C7000075C7000068
S113009073C7000071C700006FC700000C94A71E4F
S11300A06BC7000069C700000C949F4265C700003D
S11300B063C7000061C700005FC700000C94D6420C
S11300C05BC7000059C7000057C7000055C70000B0
S11300D053C7000051C700004FC700004DC70000C0
S11300E04BC70000CF15F315F315F015F315CC1518
S11300F0F315F315F315B515F315F315DB15ED1518
S1130100EA15F315F315F315E715D71FDC1FDC1FEC
S1130110DC1FDC1FDC1FDC1FDC1FDD1EDC1FDC1F03
S1130120DC1FDC1FDC1FDC1FDC1FDD1EDC1FDC1FF3
S1130130DC1FDC1FDC1FDC1FDC1FE61EDC1FDC1FDA
S1130140DC1FDC1FDC1FDC1FDC1F101FDC1FDC1F9F
S1130150DC1FDC1FDC1FDC1FDC1FE61EDC1FDC1FBA
S1130160DC1FDC1FDC1FDC1FDC1F151FDC1FDC1F7A
S1130170DC1FDC1FDC1FDC1FDC1F1A1FDC1FDC1F65
S1130180DC1FDC1FDC1FDC1FDC1F2F1FDC1FDC1F40
S1130190DC1FDC1FDC1FDC1FDC1F5C1FDC1FDC1F03
S11301A0DC1FDC1FDC1FDC1FDC1F1F1FDC1FDC1F30
S11301B0DC1FDC1FDC1FDC1FDC1F3B1FDC1FDC1F04
S11301C0DC1FDC1FDC1FDC1FDC1F5E1FDC1FDC1FD1
S11301D0DC1FDC1FDC1FDC1FDC1F5E1FDC1FDC1FC1
S11301E0DC1FDC1FDC1FDC1FDC1F5E1FDC1FDC1FB1
S11301F0DC1FDC1FDC1FDC1FDC1F5E1FDC1FDC1FA1
S1130200DC1FDC1FDC1FDC1FDC1F661FDC1FDC1F88
S1130210DC1FDC1FDC1FDC1FDC1F9D1FDC1FDC1F41
S1130220DC1FDC1FDC1FDC1FDC1F661FDC1FDC1F68
S1130230DC1FDC1FDC1FDC1FDC1F9D1FDC1FDC1F21
S1130240DC1FDC1FDC1FDC1FDC1F801FDC1FDC1F2E
S1130250DC1FDC1FDC1FDC1FDC1FA01FDC1FDC1FFE
S1130260DC1FDC1FDC1FDC1FDC1FA01FDC1FDC1FEE
S1130270DC1FDC1FDC1FDC1FDC1FB61FDC1FDC1FC8
S1130280DC1FDC1FDC1FDC1FDC1FD21FDC1FDC1F9C
S1130290DC1FDC1FDC1FDC1FDC1FD21FDC1FDC1F8C
S11302A0DC1FDC1FDC1FDC1FDC1FDC1FDC1FDC1F72
S11302B0DC1FDC1FDC1FDC1FDC1FDC1FDC1FDC1F62
S11302C0DC1FDC1FDC1FDC1FDC1FDC1FDC1FDC1F52
S11302D0DC1FDC1FDC1FDC1FDC1FDC1FDC1FDC1F42
S11302E0DC1FDC1FDC1FDC1FDC1FDC1FDC1FDC1F32
S11302F0DC1FDC1FDC1FDC1FDC1FDB1F0763423637
S1130300B79BD8A71A39685618AEBAAB558C1D3CA2
S1130310B7CC5763BD6DEDFD753EF6177231BF0066
S11303200000803F08000000BE922449123EABAAA0
S1130330AA2ABECDCCCC4C3E00000080BEABAAAAFB
S1130340AA3E00000000BF000000803F0000000043
S113035000084178D3BB4387D1133D190E3CC3BD7C
S11303604282AD2B3E68EC8276BED98FE1A93E4C29
S113037080EFFFBE01C4FF7F3F0000000000734B0D
S1130380764B654B694B6F4BAD4B7A4B7E4B844B35
S1130390884B8C4B924B964B9A4BAD4BA04BA44B3A
S11303A0A84B4448547878207465737421005353DF
S11303B0443133303620616C6C6F636174696F6EE5
S11303C0206661696C6564004661696C65642074CB
S11303D06F20726561642066726F6D2044485420FA
S11303E073656E736F72210048756D696469747901
S11303F03A200054656D70657261747572653A20B7
S1130400004865617420696E6465783A20001F1C99
S11304101F1E1F1E1F1F1E1F1E1F00030205000399
S113042005010406020400000000003E5B4F5B3E31
S11304303E6B4F6B3E1C3E7C3E1C183C7E3C181CA5
S1130440577D571C1C5E7F5E1C00183C1800FFE79C
S1130450C3E7FF0018241800FFE7DBE7FF30483A42
S1130460060E2629792926407F050507407F0525A4
S11304703F5A3CE73C5A7F3E1C1C08081C1C3E7F2C
S113048014227F22145F5F005F5F06097F017F00F3
S11304906689956A606060606094A2FFA294080413
S11304A07E040810207E201008082A1C08081C2A34
S11304B008081E101010100C1E0C1E0C30383E388C
S11304C030060E3E0E06000000000000005F000033
S11304D00007000700147F147F14242A7F2A1223A4
S11304E01308646236495620500008070300001CB4
S11304F02241000041221C002A1C7F1C2A08083EBD
S113050008080080703000080808080800006060CF
S11305100020100804023E5149453E00427F40003D
S113052072494949462141494D331814127F102715
S1130530454545393C4A4949314121110907364964
S1130540494936464949291E000014000000403438
S1130550000000081422411414141414004122143D
S11305600802015909063E415D594E7C1211127C64
S11305707F494949363E414141227F4141413E7FC5
S1130580494949417F090909013E414151737F08A5
S113059008087F00417F41002040413F017F08144B
S11305A022417F404040407F021C027F7F040810AC
S11305B07F3E4141413E7F090909063E4151215E8A
S11305C07F09192946264949493203017F01033F1E
S11305D04040403F1F2040201F3F4038403F6314AD
S11305E008146303047804036159494D43007F41AF
S11305F041410204081020004141417F04020102EC
S11306000440404040400003070800205454784010
S11306107F284444383844444428384444287F38A4
S11306205454541800087E090218A4A49C787F0826
S113063004047800447D40002040403D007F1028A1
S1130640440000417F40007C047804787C08040462
S1130650783844444438FC1824241818242418FCFA
S11306607C08040408485454542404043F44243C9F
S11306704040207C1C2040201C3C4030403C44280E
S11306801028444C9090907C4464544C44000836A8
S11306904100000077000000413608000201020416
S11306A0023C2623263C1EA1A161123A4040207A36
S11306B0385454555921555579412254547842217E
S11306C05554784020545579400C1E5272123955B5
S11306D055555939545454593955545458000045B2
S11306E07C410002457D420001457C407D1211128F
S11306F07DF0282528F07C545545002054547C5422
S11307007C0A097F4932494949323A4444443A32DD
S11307104A4848303A4141217A3A42402078009D83
S1130720A0A07D3D4242423D3D4040403D3C24FF2F
S11307302424487E4943662B2FFC2F2BFF0929F6DE
S113074020C0887E090320545479410000447D412F
S11307503048484A32384040227A007A0A0A727D88
S11307600D19317D2629292F2826292929263048A3
S11307704D4020380808080808080808382F10C811
S1130780ACBA2F102834FA00007B000008142A1495
S11307902222142A14085500550055AA55AA55AA10
S11307A0FF55FF55FF000000FF00101010FF00145C
S11307B01414FF001010FF00FF1010F010F01414B8
S11307C014FC001414F700FF0000FF00FF1414F4DD
S11307D004FC141417101F10101F101F1414141FDE
S11307E000101010F0000000001F101010101F1057
S11307F0101010F010000000FF1010101010101056
S11308001010FF10000000FF140000FF00FF0000A4
S11308101F10170000FC04F414141710171414F418
S113082004F40000FF00F714141414141414F70053
S1130830F7141414171410101F101F141414F414A4
S11308401010F010F000001F101F0000001F140013
S11308500000FC140000F010F01010FF10FF14143E
S113086014FF141010101F00000000F010FFFFFF11
S1130870FFFFF0F0F0F0F0FFFFFF0000000000FFCA
S1130880FF0F0F0F0F0F3844443844FC4A4A4A34D0
S11308907E02020606027E027E02635549416338E7
S11308A044443C04407E201E2006027E020299A598
S11308B0E7A5991C2A492A1C4C7201724C304A4DF6
S11308C04D303048784830BC625A463D3E4949492B
S11308D0007E0101017E2A2A2A2A2A44445F4444D4
S11308E040514A444040444A51400000FF0103E063
S11308F080FF000008086B6B083612362436060F9A
S1130900090F06000018180000001010003040FF06
S11309100101001F01011E00191D1712003C3C3C7F
S11309203C00000000000000000000018000000006
S11309300000000000000380000000000000000030
S11309400007C000000000000000000007C0000015
S1130950000000000000000FC000000000000000C4
S113096000001FE00000000000000000001FE00085
S113097000000000000000003FE000000000000054
S11309800000003FF00000000000000000007FF0C5
S1130990000000000000001FF87FF00000000000CD
S11309A000003FFE7FF0000000000000003FFF7FDA
S11309B0F0000000000000001FFFFBE0000000004A
S11309C00000000FFFF9FFC00000000000000FFF4F
S11309D0F9FFF800000000000007FFF1FFFF00002E
S11309E00000000003FC73FFFF8000000000000112
S11309F0FE3FFFFF80000000000000FF1E0FFF000D
S1130A000000000000007FFE1FFC0000000000004A
S1130A10003FFFFFF8000000000000000FDFFFE0D0
S1130A20000000000000001F19FFC00000000000CB
S1130A3000003F3CFF00000000000000007E7CF846
S1130A4000000000000000007FFE7C0000000000A9
S1130A50000000FFFFFC0000000000000000FFFF9A
S1130A60FE0000000000000000FFFFFE0000000088
S1130A7000000001FFEFFE0000000000000001FF85
S1130A80CFFE0000000000000003FF07FE0000008E
S1130A900000000003FC07FE00000000000000034B
S1130AA0F003FE00000000000000018000FE0000D2
S1130AB000000000000000007E00000000000000B4
S1130AC00000003E000000000000000000000C00D8
S1130AD00000000000078000FC000003C0000000CC
S1130AE0078001FC000003C0000000078001FC0037
S1130AF00003C0000000078001E00000001E0000A9
S1130B0000078001E00000001E007FE3F79FF9FD6D
S1130B10E7787BDFC0FFF7FFBFFDFDFF787BDFC019
S1130B20FFF7FFBFFDFDFF787BDFC0F0F787BC3D1B
S1130B30E1FF787BDE00F0F787BC3DE1F0787BDEF7
S1130B400000F787803DE1E0787BDE007FF7879F38
S1130B50FDE1E0787BDE00FFF787BFFDE1E0787B15
S1130B60DE00F0F787BC3DE1E0787BDE00F0F7873C
S1130B70BC3DE1E0787BDE00F0F787BC3DE1E07846
S1130B807BDE00FFF7FFBFFDE1E07FFBDFC0FFF787
S1130B90FFBFFDE1E07FFBDFC07CF3F39F3DE1E0BD
S1130BA03E7BCFC00000000000000000000000FFFA
S1130BB0FFFFFFFFFFFFFFFFFFC0FFFFFFFFFD6819
S1130BC0DB111A31C0FFFFFFFFFD2B5AFB6AEFC098
S1130BD0FFFFFFFFFD4B5B3B1A33C0FFFFFFFFFD31
S1130BE06B5BDB6AFDC000006000000000000000D9
S1130BF000000000000000E0000000000000000011
S1130C00000000000001E0000000000000000000FF
S1130C100000000001F000000000000000000000DF
S1130C2000000003F00000000000000000000000CD
S1130C30000007F0000000000000000000000000B9
S1130C400007F800000000000000000000000000A1
S1130C500FF800000003C0007E000001E0007F0FD9
S1130C60F800000003C000FE000001E000FFEFF800
S1130C7000000003C000FE000001E000FFFFF800D8
S1130C80000003C000F00000000F007FFE7FC000E2
S1130C900003C000F00000000F003FFE7FF83FF1AA
S1130CA0FBCFFCFEF3BC3DEFE01FFE7FFF7FFBFFAD
S1130CB0DFFEFEFFBC3DEFE01FC6FFFF7FFBFFDF53
S1130CC0FEFEFFBC3DEFE00FE3C7FE787BC3DE1EF4
S1130CD0F0FFBC3DEF0007FF87FC787BC3DE1EF00E
S1130CE0F83C3DEF0001FFFFF0007BC3C01EF0F0B5
S1130CF03C3DEF0001F37FE03FFBC3CFFEF0F03C4F
S1130D003DEF0003E33F807FFBC3DFFEF0F03C3D9B
S1130D10EF0007E73C00787BC3DE1EF0F03C3DEFBC
S1130D200007FFBE00787BC3DE1EF0F03C3DEF0001
S1130D3007FFFE00787BC3DE1EF0F03C3DEF000FA2
S1130D40FFFE007FFBFFDFFEF0F03FFDEFE00FFF53
S1130D50FF007FFBFFDFFEF0F03FFDEFE00FF9FF48
S1130D60003E79F9CF9EF0F01F3DE7E01FF1FF0050
S1130D7000000000000000000000001F80FF007F52
S1130D80FFFFFFFFFFFFFFFFFFE01C007F007FFF6F
S1130D90FFFFFEB46D888D18E000001F007FFFFF89
S1130DA0FFFE95AD7DB577E000000F007FFFFFFFEC
S1130DB0FEA5AD9D8D19E0000006007FFFFFFFFE3C
S1130DC0B5ADEDB57EE0AED580A8D300408D200052
S1130DD0A1C8DB40A4A62EAF0080C0E0F0F8FCFE62
S1130DE0000103070F1F3F7F2200FF210000000ABC
S1130DF00B02090C0D0E080703040100000000009B
S1130E0000000000000000000000000000000000DE
S1130E10000000000000000000121110000000009B
S1130E2000000000000000000000000000000000BE
S1130E30000000010210202008081020401020406B
S1130E40800201020108040201010204081020408A
S1130E5080804020100804020180040201804020A8
S1130E6010080402010804020101020408102040D1
S1130E7080010204081020408005050505070508C7
S1130E80080808020202020A0A0808040404040109
S1130E90010101010101010303030303030303042B
S1130EA00707070C0C0C0C0C0C0C0C0202020206BB
S1130EB0060606060606060B0B0B0B0B0B0B0B00AC
S1130EC00020002300260029002C002F00320000FF
S1130ED00100000301060109010000220025002889
S1130EE0002B002E0031003400020100000501082F
S1130EF0010B0100002100240027002A002D0030EE
S1130F0000330001010000040107010A0100510B34
S1130F105123AF485D0B11241FBECFEFD1E2DEBFDA
S1130F20CDBF00E00CBF12E0A0E0B2E0E8E4F0EADC
S1130F3000E00BBF02C007900D92AE3DB107D9F798
S1130F4025E0AEEDB2E001C01D92A136B207E1F793
S1130F5017E0CAE8D7E000E006C021970109802F16
S1130F60FE010E94994DC738D10780E00807A9F710
S1130F700E94DE480C94135043C8CF93DF9300D0F3
S1130F801F92CDB7DEB79A8389837C836B832B81D1
S1130F903C8189819A81B9010E94604D89819A813D
S1130FA00F900F900F900F90DF91CF910895CF93F2
S1130FB0DF9300D0CDB7DEB79A8389836B838981B1
S1130FC09A816B810E94F24C00000F900F900F9059
S1130FD0DF91CF910895CF93DF9300D000D0CDB7A8
S1130FE0DEB79A8389834B835C836D837E838B8195
S1130FF09C81AD81BE81E981FA8126E0AC01BD010D
S1131000CF010E94E447000026960FB6F894DEBF95
S11310100FBECDBFDF91CF910895CF93DF9300D062
S113102000D0CDB7DEB79A8389837C836B835E83DC
S11310304D8389819A812B813C81FC0135872487EA
S113104089819A812D813E81FC01378726870000A2
S113105026960FB6F894DEBF0FBECDBFDF91CF91B9
S11310600895CF93DF9300D01F92CDB7DEB79A8354
S113107089837C836B8389819A812B813C81FC01E8
S1131080338B228B89819A81FC012289338989815E
S11310909A81FC01318B208B00000F900F900F90F0
S11310A00F90DF91CF9108950F93CF93DF93CDB736
S11310B0DEB740E855E260E070E087EB94E08BDF58
S11310C082EA93E0BC0187EB94E00E94664967E002
S11310D072E087EB94E00E94864984E293E00E94E8
S11310E0B51449E152E062E272E084E293E00E94C6
S11310F07A1501E021E04CE362E08EED92E00E947B
S11311000334982F81E08927882341F08EEA93E005
S1131110BC0187EB94E00E946649FFCF67E38CE350
S113112093E045D30000DF91CF910F910895AF92E2
S1131130BF92CF92DF92EF92FF920F931F93CF93C0
S1131140DF93CDB7DEB7EA970FB6F894DEBF0FBED4
S1131150CDBF8EED92E00E94533961E08EED92E0B6
S11311600E94E22F61E070E08EED92E07ADF40E0D1
S113117050E060E070E08EED92E04FDF0E94824A22
S1131180DC01CB0189839A83AB83BC8380915003B8
S113119090915103A0915203B091530329813A8154
S11311A04B815C8179018A01E81AF90A0A0B1B0B4D
S11311B0D801C70180319742A105B10590F089811A
S11311C09A81AB81BC818093500390935103A09387
S11311D05203B093530390914F0381E08927809386
S11311E04F0380914F03882309F4C9C060E08CE366
S11311F093E0C1D4DC01CB01BC01CD010E94DE43EC
S1131200DC01CB019E838D8340E060E08CE393E0BE
S1131210F8D2DC01CB01BC01CD010E94DE43DC012C
S1131220CB0198878F838D819E81092E000CAA0B98
S1131230BB0BBC01CD010E941144DC01CB019C011C
S1131240AD01BC01CD010E94B6458823A1F48F8174
S11312509885092E000CAA0BBB0BBC01CD010E9482
S11312601144DC01CB019C01AD01BC01CD010E9404
S1131270B645882311F081E001C080E0882341F065
S113128088EC93E0BC0187EB94E00E9466492AC194
S11312908D819E81092E000CAA0BBB0BBC01CD01D4
S11312A00E9411445B016C018F819885092E000C0A
S11312B0AA0BBB0BBC01CD010E941144DC01CB0184
S11312C0E12C96018501AC01BD018CE393E0FDD4D2
S11312D0DC01CB01BC01CD010E94DE43DC01CB016A
S11312E09A87898788EE93E0BC018EED92E00E9494
S11312F029498D819E814AE050E0BC018EED92E047
S11313000E94324A6EE272E08EED92E00E948649BB
S113131083EF93E0BC018EED92E00E9429498F8116
S113132098854AE050E0BC018EED92E00E94324A7A
S113133080910602682F8EED92E00E94CA2D8EEDF8
S113134092E00E94634981E094E0BC018EED92E05A
S11313500E94294989859A854AE050E0BC018EEDB6
S113136092E00E94324A80910602682F8EED92E04C
S11313700E9496498EED92E00E94B13DB3C0CE0129
S11313808F9664E273E00E9432168CE0FE01BF96F1
S1131390A0E3B3E001900D928A95E1F78EED92E01F
S11313A00E94533962E08EED92E00E94E22F61E0E8
S11313B070E08EED92E055DE40E050E060E070E0D9
S11313C08EED92E02ADE80913403282F30E0CE01A6
S11313D08996B901AAD0CE018996BC018EED92E01E
S11313E00E944D49CE0189960E94194C60E372E037
S11313F08EED92E00E945B4980913503282F30E006
S1131400CE018396B90191D0CE018396BC018EEDB5
S113141092E00E944D49CE0183960E94194C60E3EC
S113142072E08EED92E00E945B4980913603282F92
S113143030E0CE014D96B90178D0CE014D96BC0175
S11314408EED92E00E947649CE014D960E94194C91
S113145080913303282F30E0CE014796B90165D03F
S1131460CE014796BC018EED92E00E944D49CE011B
S113147047960E94194C62E372E08EED92E00E945E
S11314805B4980913203282F30E0CE014196B901A7
S11314904CD0CE014196BC018EED92E00E944D49A4
S11314A0CE0141960E94194C62E372E08EED92E007
S11314B00E945B4980913003909131039C01CE01DD
S11314C00B96B90132D0CE010B96BC018EED92E0A1
S11314D00E944D49CE010B960E94194C8EED92E06C
S11314E00E94B13DEA960FB6F894DEBF0FBECDBFA1
S11314F0DF91CF911F910F91FF90EF90DF90CF90EC
S1131500BF90AF900895CF93DF931F921F92CDB7F2
S1131510DEB79A83898389819A810E94194C0000DD
S11315200F900F90DF91CF910895CF93DF93CDB7B4
S1131530DEB766970FB6F894DEBF0FBECDBF9C8BA7
S11315408B8B7E8B6D8B8B899C8964E372E00E940C
S1131550834C8D899E890A970CF52D893E89CE018D
S11315600D964AE0B9010E940A4DCE01079660E348
S11315701EDD9E01235F3F4FCE010796B9010E94F5
S1131580664D9C018B899C89B901F7DCCE010796D5
S1131590BADFCE010D960E94194C14C08D899E8924
S11315A04AE0BC01CE0101960E940A4D8B899C89B8
S11315B09E012F5F3F4FB9010E94D24CCE0101968C
S11315C00E94194C00008B899C8966960FB6F8948A
S11315D0DEBF0FBECDBFDF91CF9108958F929F9252
S11315E0AF92BF92CF92DF92EF92FF920F93CF937D
S11315F0DF9300D01F92CDB7DEB79A8389837C83B3
S11316006B8389819A81019759F58B819C8101961D
S113161039F50F2EF0EA8F2EF6E89F2EAA24A39414
S1131620B12CF02D0F2EF0E8CF2EFAE1DF2EF6E0EC
S1131630EF2EF12CF02D04E022E134E040E460E8E8
S11316408EED92E00E94133164E372E08EE193E048
S11316500E94834C26E04BE068E08CE393E057D093
S113166089819A81892B61F48B819C81019641F453
S11316708EE193E00E94194C8EED92E00E94A53118
S113168000000F900F900F900F90DF91CF910F916A
S1131690FF90EF90DF90CF90BF90AF909F908F908E
S11316A00895CF93DF93CDB7DEB76FEF7FEF81E07F
S11316B090E094DFDF91CF910895CF93DF93CDB77E
S11316C0DEB76FEF7FEF80E090E088DFDF91CF91AE
S11316D00895CF93DF931F921F92CDB7DEB79A83FD
S11316E08983F89400000F900F90DF91CF910895B3
S11316F0CF93DF931F921F92CDB7DEB79A8389836E
S1131700789400000F900F90DF91CF910895CF93BC
S1131710DF93CDB7DEB72B970FB6F894DEBF0FBEBD
S1131720CDBF98878F8369874A872B878F81988558
S11317302985FC0125838F8198852A85FC012683D0
S11317408985882F90E08D5C914F9A838983898164
S11317509A81FC0184918B838F8198852B81FC0174
S113176027838985882F90E08758914F9D838C83A8
S11317708C819D81FC0184918E838F8198852E813B
S1131780FC0120872F81388580E89EE3A0E0B0E04B
S1131790F90185879687A787B08B00002B960FB633
S11317A0F894DEBF0FBECDBFDF91CF910895CF93E4
S11317B0DF9300D0CDB7DEB79A8389836B838981A9
S11317C09A81FC01858162E00E94AE4B0E94824AAC
S11317D0DC01CB01805D9740A109B10929813A81DF
S11317E0F90181879287A387B48789819A812B81A4
S11317F0FC01228B00000F900F900F90DF91CF918E
S11318000895CF93DF93CDB7DEB728970FB6F8943A
S1131810DEBF0FBECDBF9E838D836F83488780E07C
S113182090E0A0ECBFE789839A83AB83BC838D816E
S11318309E81688549D5882309F434C18D819E81B0
S1131840FC018681882F90E08C30910509F472C0E8
S11318508D3091051CF40B9731F024C14597029704
S113186008F020C1C7C08D819E81FC018281882F30
S113187090E0A0E0B0E0BC01CD010E940F44DC0187
S1131880CB0189839A83AB83BC838D819E81FC01C8
S11318908381882384F429813A814B815C8160E0CF
S11318A070E080E89FEB0E940D43DC01CB0189834B
S11318B09A83AB83BC838D819E81FC018381882FB5
S11318C090E08F709927092E000CAA0BBB0BBC016A
S11318D0CD010E941144DC01CB012DEC3CEC4CEC1D
S11318E05DE3BC01CD010E94C544DC01CB019C0138
S11318F0AD0169817A818B819C810E940E43DC0158
S1131900CB0189839A83AB83BC838F81882309F4B9
S1131910C4C089819A81AB81BC812D813E81AC0197
S1131920BD01C901CED0DC01CB0189839A83AB838D
S1131930BC83B3C08D819E81FC018281882F90E09D
S1131940A0E0B0E0BC01CD010E940F44DC01CB015A
S113195089839A83AB83BC838D819E81FC018381BF
S1131960882F90E08F709927092E000CAA0BBB0BCF
S1131970BC01CD010E941144DC01CB012DEC3CECF7
S11319804CEC5DE3BC01CD010E94C544DC01CB01FC
S11319909C01AD0169817A818B819C810E940E43F7
S11319A0DC01CB0189839A83AB83BC838D819E81C7
S11319B0FC01828188234CF489819A81AB81BC81AA
S11319C0B05889839A83AB83BC838F81882309F4BD
S11319D066C089819A81AB81BC812D813E81AC0135
S11319E0BD01C9016ED0DC01CB0189839A83AB832D
S11319F0BC8355C08D819E81FC018281882F90E03B
S1131A008F779927382F22278D819E81FC0183812E
S1131A10882F90E0822B932BCC01A0E0B0E0BC0196
S1131A20CD010E940F44DC01CB0189839A83AB83EF
S1131A30BC832DEC3CEC4CEC5DE369817A818B81B9
S1131A409C810E94C544DC01CB0189839A83AB83CA
S1131A50BC838D819E81FC01828188234CF4898121
S1131A609A81AB81BC81B05889839A83AB83BC8350
S1131A708F818823B1F089819A81AB81BC812D81CA
S1131A803E81AC01BD01C9011CD0DC01CB018983BD
S1131A909A83AB83BC83000004C0000003C0000031
S1131AA001C0000089819A81AB81BC81BC01CD0158
S1131AB028960FB6F894DEBF0FBECDBFDF91CF914D
S1131AC00895CF93DF9300D000D0CDB7DEB79A83CB
S1131AD089834B835C836D837E8326E636E646EEFC
S1131AE05FE36B817C818D819E810E94C544DC0112
S1131AF0CB0120E030E040E052E4BC01CD010E9483
S1131B000E43DC01CB01BC01CD0126960FB6F8943F
S1131B10DEBF0FBECDBFDF91CF910895CF93DF938A
S1131B2000D000D0CDB7DEB79A8389834B835C8322
S1131B306D837E8320E030E040E052E46B817C8161
S1131B408D819E810E940D43DC01CB0126E838E3A0
S1131B504EE05FE3BC01CD010E94C544DC01CB0132
S1131B60BC01CD0126960FB6F894DEBF0FBECDBFE3
S1131B70DF91CF910895CF92DF92EF92FF92CF93AE
S1131B80DF93CDB7DEB727970FB6F894DEBF0FBE4D
S1131B90CDBF9E838D836F8380E090E0A0ECBFE790
S1131BA089839A83AB83BC838D819E816F818CD31F
S1131BB0882309F477C08D819E81FC018681882F5A
S1131BC090E08B3091050CF46DC08D3091052CF0B4
S1131BD04597029708F066C037C08D819E81FC014D
S1131BE08081882F90E0092E000CAA0BBB0BBC014E
S1131BF0CD010E9411446B017C018D819E81FC0109
S1131C008181882F90E0092E000CAA0BBB0BBC012C
S1131C10CD010E941144DC01CB012DEC3CEC4CECD9
S1131C205DE3BC01CD010E94C544DC01CB019C01F4
S1131C30AD01C701B6010E940E43DC01CB018983CB
S1131C409A83AB83BC832EC08D819E81FC018081ED
S1131C50882F90E0382F22278D819E81FC0181817D
S1131C60882F90E0822B932BCC01A0E0B0E0BC0144
S1131C70CD010E940F44DC01CB0189839A83AB839D
S1131C80BC832DEC3CEC4CEC5DE369817A818B8167
S1131C909C810E94C544DC01CB0189839A83AB8378
S1131CA0BC83000089819A81AB81BC81BC01CD01D8
S1131CB027960FB6F894DEBF0FBECDBFDF91CF914C
S1131CC0FF90EF90DF90CF9008958F929F92AF9204
S1131CD0BF92CF92DF92EF92FF920F931F93CF9315
S1131CE0DF93CDB7DEB72F970FB6F894DEBF0FBEE4
S1131CF0CDBF9E838D834F83588769877A870B87EF
S1131D001C872D873E87EF869F8581E0892788235E
S1131D1081F08F819885A985BA852D813E81AC019A
S1131D20BD01C901CEDEDC01CB018F839887A98771
S1131D30BA8720E030E044E752E46F8178858985F2
S1131D409A850E940E43DC01CB016C017D0120E0E9
S1131D5030E048E852E46F81788589859A850E944D
S1131D600D43DC01CB012AE939E949E95FE3BC0110
S1131D70CD010E94C544DC01CB019C01AD01C7012A
S1131D80B6010E940E43DC01CB016C017D0122E10E
S1131D9033E840EC5DE36B857C858D859E850E94F0
S1131DA0C544DC01CB019C01AD01C701B6010E9411
S1131DB00E43DC01CB0120E030E040E05FE3BC01F6
S1131DC0CD010E94C544DC01CB0189839A83AB8396
S1131DD0BC8320E030E04EE952E469817A818B8152
S1131DE09C810E94C14418160CF045C221E133E2E3
S1131DF043E050E46F81788589859A850E94C544C3
S1131E00DC01CB0129E134E849E252E4BC01CD0113
S1131E100E940D43DC01CB016C017D0126E13BE412
S1131E2042E251E46B857C858D859E850E94C54484
S1131E30DC01CB019C01AD01C701B6010E940E4338
S1131E40DC01CB016C017D0128E436E246E65EEB61
S1131E506F81788589859A850E94C544DC01CB0110
S1131E602B853C854D855E85BC01CD010E94C54412
S1131E70DC01CB019C01AD01C701B6010E940E43F8
S1131E80DC01CB016C017D018F819885A985BA8520
S1131E9020E030E040E050E4BC01CD010E94284540
S1131EA0DC01CB0120EE3FE040EE5BEBBC01CD0159
S1131EB00E94C544DC01CB019C01AD01C701B60100
S1131EC00E940E43DC01CB016C017D018B859C8556
S1131ED0AD85BE8520E030E040E050E4BC01CD019A
S1131EE00E942845DC01CB0128EF37E840E65DEB92
S1131EF0BC01CD010E94C544DC01CB019C01AD01B4
S1131F00C701B6010E940E43DC01CB016C017D01C7
S1131F108F819885A985BA8520E030E040E050E4BF
S1131F20BC01CD010E942845DC01CB012CEA3DE037
S1131F3041EA5AE3BC01CD010E94C544DC01CB0156
S1131F402B853C854D855E85BC01CD010E94C54431
S1131F50DC01CB019C01AD01C701B6010E940E4317
S1131F60DC01CB016C017D0128EC3FE84FE55AE32D
S1131F706F81788589859A850E94C544DC01CB01EF
S1131F804C015D018B859C85AD85BE8520E030E0EC
S1131F9040E050E4BC01CD010E942845DC01CB01A6
S1131FA09C01AD01C501B4010E94C544DC01CB0113
S1131FB09C01AD01C701B6010E940E43DC01CB01B7
S1131FC06C017D018F819885A985BA8520E030E078
S1131FD040E050E4BC01CD010E942845DC01CB0166
S1131FE021EF3BE845E056EBBC01CD010E94C5441E
S1131FF0DC01CB014C015D018B859C85AD85BE85E3
S113200020E030E040E050E4BC01CD010E942845CE
S1132010DC01CB019C01AD01C501B4010E94C544A2
S1132020DC01CB019C01AD01C701B6010E940E4346
S1132030DC01CB0189839A83AB83BC8320E030E04D
S113204040E551E46B857C858D859E850E947243B5
S113205088230CF0A5C020E030E040EA52E46F8110
S1132060788589859A850E94C14488230CF498C098
S113207020E030E040EE52E46F81788589859A85CE
S11320800E94724318160CF48BC02B853C854D8539
S11320905E8560E070E080E591E40E940D43DC0120
S11320A0CB0120E030E040E85EE3BC01CD010E94BA
S11320B0C544DC01CB016C017D0120E030E04EEB36
S11320C052E46F81788589859A850E940D43DC01ED
S11320D0CB0120E030E0A901BC01CD010E94C14444
S11320E018160CF520E030E04EEB52E46F81788551
S11320F089859A850E940D43DC01CB019C01AD01C9
S113210060E070E088E891E40E940D43DC01CB01BB
S11321102EE33DEE40E75DE3BC01CD010E94C544E2
S1132120DC01CB0120C020E030E04EEB52E46F81B3
S1132130788589859A850E940D43DC01CB0120E0D6
S113214030E048E851E4BC01CD010E940E43DC01BB
S1132150CB012EE33DEE40E75DE3BC01CD010E94DF
S1132160C544DC01CB01BC01CD010E947845DC01F2
S1132170CB019C01AD01C701B6010E94C544DC013D
S1132180CB019C01AD0169817A818B819C810E9484
S11321900D43DC01CB0189839A83AB83BC836BC081
S11321A020E030E04AEA52E46B857C858D859E858B
S11321B00E94C14418160CF05EC020E030E040EAF2
S11321C052E46F81788589859A850E94C144882369
S11321D00CF451C020E030E04EEA52E46F8178857F
S11321E089859A850E94724318160CF444C020E035
S11321F030E04AEA52E46B857C858D859E850E9499
S11322000D43DC01CB012DEC3CEC4CEC5DE3BC015B
S1132210CD010E94C544DC01CB016C017D012F81FD
S1132220388549855A8560E070E08EEA92E40E9420
S11322300D43DC01CB012DEC3CEC4CE45EE3BC0132
S1132240CD010E94C544DC01CB019C01AD01C70155
S1132250B6010E94C544DC01CB019C01AD0169813A
S11322607A818B819C810E940E43DC01CB0189839E
S11322709A83AB83BC838F85882329F089819A81D3
S1132280AB81BC810CC089819A81AB81BC812D81D9
S11322903E81AC01BD01C90141DCDC01CB01BC01C3
S11322A0CD012F960FB6F894DEBF0FBECDBFDF91E0
S11322B0CF911F910F91FF90EF90DF90CF90BF903F
S11322C0AF909F908F900895AF92BF92CF92DF927C
S11322D0FF920F931F93CF93DF93CDB7DEB7C4550F
S11322E0D1400FB6F894DEBF0FBECDBF9E012E5A6B
S11322F03E4FF90191838083CE018C5A9E4FFC019D
S113230060830E94824ADC01CB018D839E83AF836C
S1132310B887CE018C5A9E4FFC01908181E08927B9
S1132320882329F1CE018E5A9E4FFC018081918130
S1132330FC0181859285A385B4852D813E814F81E1
S1132340588559016A01A81AB90ACA0ADB0AD601D2
S1132350C501803D9740A105B10548F4CE018E5AD0
S11323609E4FFC0180819181FC01F1885FC2CE0106
S11323708E5A9E4FFC01208131818D819E81AF81D7
S1132380B885F90181879287A387B487CE018E5AD5
S11323909E4FFC0180819181FC011482CE018E5AF2
S11323A09E4FFC0180819181FC012481CE018E5AD3
S11323B09E4FFC0180819181FC012383CE018E5AC2
S11323C09E4FFC0180819181FC012381CE018E5AB4
S11323D09E4FFC0180819181FC012283CE018E5AA3
S11323E09E4FFC0180819181FC012281CE018E5A95
S11323F09E4FFC0180819181FC012183CE018E5A84
S11324009E4FFC0180819181FC012181CE018E5A75
S11324109E4FFC0180819181FC012083CE018E5A64
S11324209E4FFC0180819181FC01858162E00E94C4
S1132430AE4B61E070E080E090E00E94B34ACE01D0
S11324408E5A9E4FFC0180819181FC01858161E05F
S11324500E94AE4BCE018E5A9E4FFC018081918129
S1132460FC01858160E00E94EA4BCE018E5A9E4FAA
S1132470FC0180819181FC018681882F90E0459741
S1132480029728F48CE494E00E94EC4A07C064E1CB
S113249070E080E090E00E94B34A0000CE018E5AC2
S11324A09E4FFC0180819181FC01858162E00E9444
S11324B0AE4BCE018E5A9E4FFC0180819181FC016E
S11324C08289882F90E00E94EC4ACE018F5A9E4F59
S11324D000D9CE018E5A9E4FFC018081918160E02B
S11324E0B7D1DC01CB0121E08F3F9F4FAF4FBF4FEE
S11324F009F020E0222399F0CE018E5A9E4FFC0170
S113250080819181FC01118ACE018E5A9E4FFC017B
S113251080819181FC01F18800E010E072C0CE015D
S11325208E5A9E4FFC018081918161E091D1DC0142
S1132530CB0121E08F3F9F4FAF4FBF4F09F020E009
S1132540222399F0CE018E5A9E4FFC018081918105
S1132550FC01118ACE018E5A9E4FFC01808191812B
S1132560FC01F18800E010E04CC01A8219828981D4
S11325709A81803591050CF042C0CE018E5A9E4F4F
S1132580FC018081918160E063D1DC01CB01298170
S11325903A81220F331F220F331FAE014F5F5F4F6B
S11325A0240F351F205F3F4FF90180839183A2835D
S11325B0B38389819A818C010F5F1F4FCE018E5A9C
S11325C09E4FFC018081918161E042D1DC01CB010D
S11325D09801220F331F220F331FAE014F5F5F4F4D
S11325E0240F351F205F3F4FF90180839183A2831D
S11325F0B38389819A8102969A838983B8CF01E053
S113260010E0CE018F5A9E4F73D80130110509F0A6
S11326100DC100001C821B828B819C8188970CF069
S1132620A7C08B819C81880F991F880F991F880FE1
S1132630991F9E012F5F3F4F820F931F4096FC010D
S113264080819181A281B38189879A87AB87BC8776
S11326508B819C81880F991F0196880F991F880F81
S1132660991F9E012F5F3F4F820F931F4096FC01DD
S113267080819181A281B3818D879E87AF87B88B3A
S113268089859A85AB85BC858F3F9F4FAF4FBF4FE0
S113269049F08D859E85AF85B8898F3F9F4FAF4F99
S11326A0BF4F89F4CE018E5A9E4FFC0180819181E7
S11326B0FC01118ACE018E5A9E4FFC0180819181CA
S11326C0FC01F188B3C08B819C8199230CF407969B
S11326D09595879595958795959587959E012E5AFD
S11326E03E4FF90120813181280F391FF9012081E2
S11326F0422F440F9E012E5A3E4FF9012081318111
S1132700820F931FFC0140832D853E854F85588998
S113271089859A85AB85BC8582179307A407B5077D
S113272008F58B819C8199230CF4079695958795E0
S113273095958795959587959E012E5A3E4FF9015B
S113274020813181280F391FF9012081422F4160F6
S11327509E012E5A3E4FF90120813181820F931F31
S1132760FC0140838B819C8101969C838B8354CF95
S1132770CE018E5A9E4FFC0180819181FC0184819F
S1132780282F30E0CE018E5A9E4FFC01808191812A
S1132790FC018081482F50E0CE018E5A9E4FFC01EF
S11327A080819181FC018181882F90E0480F591F1D
S11327B0CE018E5A9E4FFC0180819181FC01828161
S11327C0882F90E0480F591FCE018E5A9E4FFC016E
S11327D080819181FC018381882F90E0840F951F73
S11327E099272817390791F4CE018E5A9E4FFC0180
S11327F08081918121E0FC01218BCE018E5A9E4F74
S1132800FC0180819181FC01F18810C0CE018E5AB7
S11328109E4FFC0180819181FC01118ACE018E5A68
S11328209E4FFC0180819181FC01F1888F2DCC5A4F
S1132830DE4F0FB6F894DEBF0FBECDBFDF91CF9150
S11328401F910F91FF90DF90CF90BF90AF900895AC
S1132850CF93DF93CDB7DEB72A970FB6F894DEBFD8
S11328600FBECDBF998788876A871A8219828A85A5
S1132870882329F088859985FC01878101C080E03F
S11328808B8388859985FC018085882F90E0880F4B
S1132890991F8154914F9D838C838C819D81FC0170
S11328A025913491CF013F832E839D838C838E8128
S11328B09F81FC01208188859985FC0187812823DB
S11328C081E09B81291709F080E08823F9F0898150
S11328D09A819C012F5F3F4F3A8329839C0140E0FA
S11328E050E088859985FC0185859685A785B08902
S11328F061E0281739074A075B0708F460E066239C
S113290009F4BFCF8FEF9FEFDC0105C089819A8165
S1132910CC01A0E0B0E0BC01CD012A960FB6F8943A
S1132920DEBF0FBECDBFDF91CF910895CF93DF936C
S113293000D01F92CDB7DEB79A8389837C836B83E3
S113294089819A81FC0180819181FC0120813181FE
S11329504B8189819A81642FF90119950F900F9009
S11329600F900F90DF91CF910895CF93DF931F9233
S11329701F92CDB7DEB79A83898382E194E00E94E7
S11329807F2089819A8140E061E01CD289819A810B
S113299020ED37E0FC013183208389819A8121E095
S11329A0FC01228389819A8121E0FC0123838981AE
S11329B09A81FC01148289819A81FC0115828981A2
S11329C09A81FC01168289819A8126E0FC01278381
S11329D029813A8180E795E3ADE6B8E3F901808780
S11329E09187A287B38781E00F900F90DF91CF91F9
S11329F00895CF92EF920F93CF93DF93CDB7DEB7C5
S1132A0029970FB6F894DEBF0FBECDBF9A83898392
S1132A107C836B834D832E830F83E886C98668E6A7
S1132A2070E082E194E00E94892160E070E082E13C
S1132A3094E07CDF89819A8169850FD2682F82E1D5
S1132A4094E00E94D52189819A81688506D2682FF5
S1132A5082E194E00E94D52189819A816F81FDD120
S1132A60682F82E194E00E94D5216B817C81898169
S1132A709A812E814D8195D3282F89819A81622F45
S1132A80ECD1682F82E194E00E94D52189819A815A
S1132A906E81E3D1682F82E194E00E94D52189817F
S1132AA09A816D81DAD1682F82E194E00E94D52168
S1132AB08B8120E3280F89819A81622FCED1682FE0
S1132AC082E194E00E94D52160E070E082E194E02C
S1132AD02DDF82E194E00E94C421000029960FB604
S1132AE0F894DEBF0FBECDBFDF91CF910F91EF9071
S1132AF0CF900895CF92EF920F93CF93DF93CDB7FA
S1132B00DEB72D970FB6F894DEBF0FBECDBF998701
S1132B1088877B876A875D874C878A859B859C012C
S1132B20275F3F4F88859985B90103D3882F90E0AB
S1132B309B838A838A859B85FC018081882F90E012
S1132B40092E000CAA0BBB0B41E450E022E130E05B
S1132B50841B950B2817390708F445C0FC01882706
S1132B60EE58FF4F8F4F0C94994D8A859B850196A3
S1132B70FC018081813669F08A859B850296FC017F
S1132B8080818E3611F486E001C087E089838981D3
S1132B9001C081E0898327C082E0898324C08A85BB
S1132BA09B850296FC018081823711F484E001C088
S1132BB088E0898318C08A859B850296FC01808100
S1132BC0823711F483E001C085E089830CC089E079
S1132BD0898309C08AE0898306C08BE0898303C0A6
S1132BE08CE0898300008A859B859C012C5F3F4F84
S1132BF088859985B9019DD28C832C853D858885EE
S1132C009985B90196D28D838C859D859C012D5F14
S1132C103F4F88859985B9018CD28E838C859D859B
S1132C209C012A5F3F4F88859985B90182D28F83A1
S1132C308A819B81BC016053784F88859985CF80B8
S1132C40EE800D812C814981D4DE00002D960FB6D3
S1132C50F894DEBF0FBECDBFDF91CF910F91EF90FF
S1132C60CF900895CF93DF93CDB7DEB764970FB6B7
S1132C70F894DEBF0FBECDBF9A8B898B7C8B6B8B98
S1132C8068E670E082E194E00E94892160E070E0EF
S1132C9082E194E04BDE82E194E00E94C42147E0AB
S1132CA050E068E670E082E194E00E94542182E101
S1132CB094E00E94542221E0892B09F020E0222391
S1132CC009F0F5CF86E090E09A83898389819A811F
S1132CD09923F4F082E194E00E946D22282F8B89DD
S1132CE09C89622FA1D0282F30E089819A81880F96
S1132CF0991FAE014F5F5F4F840F951F0296FC0131
S1132D003183208389819A8101979A838983DECFD5
S1132D1082E194E00E94C4218B819C818053984F6E
S1132D209C018B899C89FC01318320838D819E8148
S1132D30282F8B899C89FC0122838F819885282FD9
S1132D408B899C89FC01238389859A85282F8B890B
S1132D509C89FC0127838B859C85282F8B899C89E2
S1132D60FC0124838D859E85282F8B899C89FC01F9
S1132D7025838F859889282F8B899C89FC0126833C
S1132D808B899C8984D1DC01CB012B893C89F90195
S1132D9080879187A287B38789899A892B893C89FF
S1132DA04CE0F901DC0101900D924A95E1F7898923
S1132DB09A8964960FB6F894DEBF0FBECDBFDF913B
S1132DC0CF910895CF93DF9300D01F921F92CDB778
S1132DD0DEB79B838A836C834D838A819B816EE0FB
S1132DE095D289838D81882321F0898180648983A8
S1132DF003C089818F7B89838C81882321F0898119
S1132E008B77898303C08981806889838A819B81C8
S1132E1049816EE055D200000F900F900F900F90F3
S1132E200F90DF91CF910895CF93DF9300D0CDB76A
S1132E30DEB79A8389836B838B8182958F70880F29
S1132E40982F990F990F980F8B818F70890F0F907E
S1132E500F900F90DF91CF910895CF93DF9300D01F
S1132E60CDB7DEB79A8389836B839B818DEC989F62
S1132E70812D1124869586958695282F2295207F6D
S1132E809B818DEC989F812D11248695869586953E
S1132E90880F382F330F330F830F392F381B832FAD
S1132EA0820F0F900F900F90DF91CF9108950F93A1
S1132EB0CF93DF93CDB7DEB727970FB6F894DEBF75
S1132EC00FBECDBF9A8389837C836B834D832E830E
S1132ED00F838B819C819C0140E050E0DA01C901A1
S1132EE0880F991FAA1FBB1F820F931FA41FB51F12
S1132EF0880F991FAA1FBB1F880F991FAA1FBB1FEA
S1132F00880F991FAA1FBB1F9C01AD018D81882FBB
S1132F1090E0A0E0B0E0280F391F4A1F5B1F8CE34C
S1132F2090E0DC010E94B04D9B01AC018E81882FA2
S1132F3090E0A0E0B0E0280F391F4A1F5B1F8CE32C
S1132F4090E0DC010E94B04D9B01AC018F81882F81
S1132F5090E0A0E0B0E0820F931FA41FB51FBC0156
S1132F60CD0127960FB6F894DEBF0FBECDBFDF911B
S1132F70CF910F910895CF93DF9300D01F92CDB7D7
S1132F80DEB79A8389837C836B838B819C81837076
S1132F90992721E0892B09F020E0822F0F900F90D0
S1132FA00F900F90DF91CF910895CF93DF93CDB71A
S1132FB0DEB72C970FB6F894DEBF0FBECDBF98874F
S1132FC08F837A8769874B872C8789859A85805D6B
S1132FD097409A8789878C85882F90E09A83898384
S1132FE081E08B839B818B859817D0F48B81882F0C
S1132FF090E00197825F9B4F9D838C838C819D81A0
S1133000FC0184918E838E81882F90E029813A81FE
S1133010820F931F9A8389838B818F5F8B83E2CF87
S11330208B85823051F429853A858F819885B90141
S1133030A2DF882311F081E001C080E0882329F019
S113304089819A8101969A83898349855A858DE677
S113305091E0489F9001499F300D589F300D1124F5
S113306089819A81280F391F89859A8503969695B7
S1133070879596958795820F931F01972C960FB687
S1133080F894DEBF0FBECDBFDF91CF910895FF92BC
S11330900F931F93CF93DF9300D000D0CDB7DEB74B
S11330A09E838D838D819E81FC0106818D819E810D
S11330B0FC01F5808D819E81FC0114818D819E81AE
S11330C0FC0123818D819E81FC0132818D819E8151
S11330D0FC01608171818D819E81432F66DFBC017B
S11330E08D819E812F2D412FE2DEDC01CB0189836E
S11330F09A83AB83BC8389819A81AB81BC818059DB
S11331009A4CA249B74C89839A83AB83BC83898147
S11331109A81AB81BC81BC01CD0126960FB6F8948F
S1133120DEBF0FBECDBFDF91CF911F910F91FF90F6
S11331300895CF93DF9300D01F921F92CDB7DEB7CF
S11331409B838A837D836C8319828C819D81FC019E
S11331508081803360F08C819D81FC0180818A3381
S113316030F48C819D81FC01808180538983898125
S1133170880F982F990F990F282F290F8C819D81E3
S113318001969D838C838C819D81FC018081820FBB
S113319080530F900F900F900F900F90DF91CF916D
S11331A00895CF93DF93CDB7DEB72A970FB6F8947F
S11331B0DEBF0FBECDBF9E838D8378876F83498723
S11331C02A8781E09985933008F080E0882F90E089
S11331D02F813885A901481B590BCA0198878F8311
S11331E08F8198859C0136952795369527958F81F3
S11331F09885A901480F591F8F81988596958795C1
S1133200969587959C01ABE7B4E10E94A14D9695F4
S11332108795481B590B8F819885929582958F705D
S113322089279F7089279C01AEE3BAE00E94A14DD3
S11332309A01280F391F8985882F90E00197865EAF
S11332409B4F9A83898389819A81FC0184918B8322
S11332508B81882F90E0280F391F8A85882F90E072
S1133260A901480F591F9A01A3E9B4E20E94A14D94
S11332709A01281B390B36952795820F931F9C01C1
S11332803695279536952795C901880F991F880F7C
S1133290991F880F991F821B930B9A01281B390BC6
S11332A02C838C81882311F487E001C08C812A96B9
S11332B00FB6F894DEBF0FBECDBFDF91CF91089556
S11332C0CF93DF9300D01F92CDB7DEB79A83898363
S11332D06B834C8368E670E082E194E00E9489216C
S11332E06B8182E194E00E94D5216C8182E194E0BB
S11332F00E94D52182E194E00E94C42100000F9035
S11333000F900F900F90DF91CF910895CF93DF939B
S113331000D01F92CDB7DEB79B838A836C8368E6A7
S113332070E082E194E0F5D76C8182E194E00E9440
S1133330D52182E194E00E94C42141E050E068E696
S113334070E082E194E0B0D782E194E00E945422DC
S113335021E0892B09F020E0222309F0F5CF82E156
S113336094E00E946D22898382E194E00E94C4214A
S113337089810F900F900F900F90DF91CF91089556
S1133380CF93DF93CDB7DEB71092540381E08093DF
S113339056031092570384E161E00E94EA4B85E1F1
S11333A061E00E94EA4B89EB90E029EB30E0F901FF
S11333B020812E7FFC01208389EB90E029EB30E013
S11333C0F90120812D7FFC01208388EB90E028E423
S11333D0FC0120838CEB90E025E4FC0120830000B9
S11333E0DF91CF910895CF93DF93CDB7DEB78CEB08
S11333F090E02CEB30E0F90120812A7BFC01208352
S113340084E160E00E94EA4B85E160E00E94EA4BBF
S11334100000DF91CF9108950F931F93CF93DF9313
S113342000D01F92CDB7DEB769837A838B839C83E8
S113343008EB10E080E094E2A4EFB0E029813A8147
S11334404B815C81BC01CD010E94774DDA01C90139
S11334504097A109B109B695A79597958795F80165
S1133460808300000F900F900F900F90DF91CF9109
S11334701F910F910895CF93DF93CDB7DEB72A97AD
S11334800FB6F894DEBF0FBECDBF8E8378876F83EF
S113349049872A878985813210F080E001C10E9422
S11334A08E4ADC01CB018A839B83AC83BD832AC013
S11334B08091580390915903A0915A03B0915B03F2
S11334C0892B8A2B8B2BF1F00E948E4A9B01AC0135
S11334D08A819B81AC81BD81281B390B4A0B5B0B14
S11334E08091580390915903A0915A03B0915B03C2
S11334F082179307A407B50728F480915D03FED3D0
S113350080E0CEC080915403882391F681E08093BB
S113351054038A85809356038FEF8093C7031092D8
S11335208203898581508093830381E080935503CE
S11335308E81882F90E0880F991F982F80915503D2
S1133540892B8093550380915703813009F04AC039
S1133550109257030E948E4ADC01CB018A839B831D
S1133560AC83BD838BEB90E020915503FC01208359
S11335708091580390915903A0915A03B0915B0331
S1133580892B8A2B8B2BF1F00E948E4A9B01AC0174
S11335908A819B81AC81BD81281B390B4A0B5B0B53
S11335A08091580390915903A0915A03B0915B0301
S11335B082179307A407B50728F480915D039ED36F
S11335C080E06EC08CEB90E0FC018081882F90E05D
S11335D088709927892B31F68CEB90E025ECFC015F
S11335E0208305C08CEB90E025EEFC0120830E9433
S11335F08E4ADC01CB018A839B83AC83BD832AC0C2
S11336008091580390915903A0915A03B0915B03A0
S1133610892B8A2B8B2BF1F00E948E4A9B01AC01E3
S11336208A819B81AC81BD81281B390B4A0B5B0BC2
S11336308091580390915903A0915A03B0915B0370
S113364082179307A407B50728F480915D0356D326
S113365080E026C080915403813091F290918203DE
S11336608985981718F4809182038987198213C079
S11336708981882F90E02F813885820F931F2981BB
S1133680222F30E02E593C4FF9012081FC01208388
S113369089818F5F898399818985981748F3898502
S11336A02A960FB6F894DEBF0FBECDBFDF91CF913F
S11336B008950F93CF93DF93CDB7DEB72B970FB653
S11336C0F894DEBF0FBECDBF8E8378876F834987A2
S11336D02A870B878985813210F081E00CC10E9412
S11336E08E4ADC01CB018A839B83AC83BD832AC0D1
S11336F08091580390915903A0915A03B0915B03B0
S1133700892B8A2B8B2BF1F00E948E4A9B01AC01F2
S11337108A819B81AC81BD81281B390B4A0B5B0BD1
S11337208091580390915903A0915A03B0915B037F
S113373082179307A407B50728F480915D03DED2AE
S113374085E0D9C080915403882391F682E0809368
S113375054038B85809356038FEF8093C703109295
S11337608203898580938303198213C08981882FFA
S113377090E02981222F30E04F815885240F351F96
S1133780F90120818E599C4FFC01208389818F5F30
S1133790898399818985981748F3109255038E81FE
S11337A0882F90E0880F991F982F80915503892BBB
S11337B08093550380915703813009F04AC01092D9
S11337C057030E948E4ADC01CB018A839B83AC831E
S11337D0BD838BEB90E020915503FC012083809105
S11337E0580390915903A0915A03B0915B03892B1C
S11337F08A2B8B2BF1F00E948E4A9B01AC018A81AB
S11338009B81AC81BD81281B390B4A0B5B0B8091DA
S1133810580390915903A0915A03B0915B03821706
S11338209307A407B50728F480915D0367D285E068
S113383062C08CEB90E0FC018081882F90E088705E
S11338409927892B31F68CEB90E025ECFC01208341
S113385005C08CEB90E025EEFC0120830E948E4A8B
S1133860DC01CB018A839B83AC83BD832AC0809116
S1133870580390915903A0915A03B0915B03892B8B
S11338808A2B8B2BF1F00E948E4A9B01AC018A811A
S11338909B81AC81BD81281B390B4A0B5B0B80914A
S11338A0580390915903A0915A03B0915B03821776
S11338B09307A407B50728F480915D031FD285E020
S11338C01AC08A85882321F080915403823079F2CA
S11338D08091C7038F3F11F480E00DC08091C7032E
S11338E0803211F482E007C08091C703803311F461
S11338F083E001C084E02B960FB6F894DEBF0FBEC0
S1133900CDBFDF91CF910F910895CF93DF9300D076
S11339101F92CDB7DEB79B838A836C838091A50306
S1133920282F30E08C81882F90E0820F931F81979D
S113393014F081E02CC080915403843011F082E0B3
S113394026C0198219C08091A503282F30E08981EF
S1133950882F90E0820F931F2981222F30E04A8123
S11339605B81240F351FF90120818C579C4FFC018A
S1133970208389818F5F898399818C81981718F3BB
S11339809091A5038C81890F8093A50380E00F900B
S11339900F900F900F90DF91CF910895CF93DF9305
S11339A01F921F92CDB7DEB79A83898389819A814A
S11339B0909361038093600300000F900F90DF9158
S11339C0CF910895CF93DF931F921F92CDB7DEB7A7
S11339D09A83898389819A8190935F0380935E039C
S11339E000000F900F90DF91CF910895CF93DF9354
S11339F01F92CDB7DEB789838981882331F08CEBA0
S1133A0090E025ECFC01208305C08CEB90E025E8D8
S1133A10FC01208300000F90DF91CF910895CF9394
S1133A20DF93CDB7DEB7A5970FB6F894DEBF0FBE10
S1133A30CDBF8CEB90E025EDFC01208388E08D83E5
S1133A408D81282F30E040E050E080915803909120
S1133A505903A0915A03B0915B03820F931FA41FD3
S1133A60B51F0197A109B1092D81222F30E040E053
S1133A7050E0BC01CD010E94774DDA01C901898370
S1133A809A83AB83BC8315C18091580390915903E9
S1133A90A0915A03B0915B03892B8A2B8B2B09F4D9
S1133AA008C189819A81AB81BC81892B8A2B8B2B9C
S1133AB009F4FBC080E090E0A0E2B1E48E839F8330
S1133AC0A887B9872BEA3AEA4AEA50E46E817F81F3
S1133AD0888599850E94C544DC01CB018A879B8730
S1133AE0AC87BD8720E030E040E850E46E817F8100
S1133AF0888599850E94C544DC01CB018E879F8708
S1133B00A88BB98B20E030E040E85FE36A857B85D1
S1133B108C859D850E94724388231CF481E08A8BE6
S1133B20B2C020E03FEF4FE757E46E857F85888978
S1133B3099890E94C14418160CF07BC020E030E043
S1133B404AE754E46E817F81888599850E94764393
S1133B50DC01CB018B8B9C8BAD8BBE8B20E030E0EA
S1133B604AE755E46B897C898D899E890E94C54406
S1133B70DC01CB018F8B988FA98FBA8F20E030E0C6
S1133B8040E85FE36F89788D898D9A8D0E94724336
S1133B9088232CF481E090E09C8F8B8F3FC020E041
S1133BA03FEF4FE757E46F89788D898D9A8D0E9496
S1133BB0C14418164CF520E030E040E251E46B8932
S1133BC07C898D899E890E94C544DC01CB01BC019E
S1133BD0CD010E94E343DC01CB019C8F8B8F0FC08E
S1133BE080E991E09E8F8D8F8D8D9E8D0197F1F7E9
S1133BF09E8F8D8F8B8D9C8D01979C8F8B8F8B8D42
S1133C009C8D892B69F73FC06F89788D898D9A8D3A
S1133C100E94E343DC01CB019C8F8B8F8B8D9C8DA9
S1133C2098A38F8F8F8D98A10197F1F798A38F8F09
S1133C302AC020E030E04FE753E46A857B858C8519
S1133C409D850E94C1441816ACF46E857F858889D1
S1133C5099890E94E343DC01CB019AA389A389A13A
S1133C609AA19CA38BA38BA19CA10197F1F79CA380
S1133C708BA30FC06A857B858C859D850E94E34359
S1133C80DC01CB018A8B8A898DA38DA18A95F1F7FA
S1133C908DA389819A81AB81BC810197A109B10966
S1133CA089839A83AB83BC8304C080915D0326D04F
S1133CB00DC08CEB90E0FC018081882F90E0807136
S1133CC09927892B09F0E0CE10925403A5960FB6DC
S1133CD0F894DEBF0FBECDBFDF91CF910895CF938F
S1133CE0DF93CDB7DEB78CEB90E025ECFC012083AD
S1133CF0109254030000DF91CF910895CF93DF9386
S1133D0000D0CDB7DEB78B8381E080935C038B81D9
S1133D108823B1F088EB90E0FC01808189838AEBF1
S1133D2090E0FC0180818A835EDB2ADB8AEB90E0F1
S1133D302A81FC01208388EB90E02981FC01208307
S1133D4000000F900F900F90DF91CF9108951F9274
S1133D500F9200905F000F92112400905B000F926D
S1133D602F933F934F935F936F937F938F939F937F
S1133D70AF93BF93EF93FF93CF93DF93CDB7DEB7AA
S1133D8089EB90E0FC018081882F90E0887F99275F
S1133D90092E000CAA0BBB0B40E050E028EF30E0EA
S1133DA0841B950B2817390708F406C1FC018827E2
S1133DB0EB57FF4F8F4F0C94994D8BEB90E0209174
S1133DC05503FC01208381E011DEF6C0909182034B
S1133DD080918303981798F48BEB90E020918203F1
S1133DE031E0320F30938203222F30E02E593C4FC2
S1133DF0F9012081FC01208381E0F8DDDDC08091A0
S1133E005603882311F00BDED7C081E0809357035B
S1133E108CEB90E024EAFC01208310925403CCC084
S1133E2080E28093C703FBDDC7C080E38093C703B0
S1133E30F6DDC2C088E38093C70351DFBDC0809123
S1133E40820391E0980F90938203882F90E02BEBEC
S1133E5030E0F90120818E599C4FFC012083909120
S1133E60820380918303981718F481E0BFDDA4C016
S1133E7080E0BCDDA1C08091820391E0980F909313
S1133E808203882F90E02BEB30E0F90120818E59DA
S1133E909C4FFC01208380915603882311F0BFDDE1
S1133EA08BC081E0809357038CEB90E024EAFC0103
S1133EB020831092540380C0B2DD7EC083E08093DF
S1133EC054031092C60381E091DD76C08091C6034D
S1133ED0803298F48091C60391E0980F9093C603C2
S1133EE0882F90E02BEB30E0F90120818A559C4F1C
S1133EF0FC01208381E07ADD5FC080E077DD5CC077
S1133F00EEDE8091C603803240F48091C603882F90
S1133F1090E08A559C4FFC011082209160033091FF
S1133F2061038091C603882F90E0BC0186EA93E088
S1133F30F90119951092C6033FC080E057DD3CC0DB
S1133F4084E0809354031092A4031092A5038091FB
S1133F505E0390915F03FC0119958091A50388236A
S1133F6029F481E08093A503109284038BEB90E005
S1133F702091A40331E0320F3093A403222F30E0C8
S1133F802C573C4FF9012081FC0120839091A4031C
S1133F908091A503981718F481E028DD0DC080E016
S1133FA025DD0AC081E022DD1092540305C0109281
S1133FB0C70335DD01C000000000DF91CF91FF9100
S1133FC0EF91BF91AF919F918F917F916F915F918D
S1133FD04F913F912F910F9000925B000F900092B0
S1133FE05F000F901F901895CF93DF9300D01F921E
S1133FF0CDB7DEB79A8389837C836B8389819A8169
S11340002B813C81FC013383228300000F900F90AD
S11340100F900F90DF91CF910895CF93DF931F926C
S11340201F92CDB7DEB79A83898326ED32E089816A
S11340309A81FC013183208389819A81FC01138256
S1134040128200000F900F90DF91CF910895CF93CB
S1134050DF931F921F92CDB7DEB79A83898380E0E6
S113406090E00F900F90DF91CF910895CF93DF935D
S11340701F921F92CDB7DEB79A83898300000F90F9
S11340800F90DF91CF910895CF93DF931F921F92EA
S1134090CDB7DEB79A83898389819A81BEDF2BE409
S11340A032E089819A81FC013183208329813A811C
S11340B088EE93E0A0E0B0E0F90184839583A683C1
S11340C0B78300000F900F90DF91CF910895CF93A5
S11340D0DF931F921F92CDB7DEB79A8389838981BC
S11340E09A81D2DF29E332E089819A81FC0131830C
S11340F0208300000F900F90DF91CF910895CF930C
S1134100DF931F921F92CDB7DEB79A8389831092F3
S1134110E8031092E90310920B0410920C0430D9B6
S11341208BE193E24FDC8EEC92E238DC00000F90DE
S11341300F90DF91CF910895CF93DF9300D000D0FB
S1134140CDB7DEB79A8389834B835C836D837E838B
S11341508B819C81AD81BE81BC01CD015DD9000004
S113416026960FB6F894DEBF0FBECDBFDF91CF9178
S11341700895CF92EF920F931F93CF93DF93CDB710
S1134180DEB72B970FB6F894DEBF0FBECDBF9B836F
S11341908A836C834D830E831F8328873987EA863D
S11341A0CB868A858823D9F18A819B816C8198D0BA
S11341B08A85843010F083E08A878A859FEF980F80
S11341C09A8791E0882309F490E0992321F18A8168
S11341D09B81FC0180819181FC01208131818A8550
S11341E0882F90E0AC01440F551F440F551F440F16
S11341F0551F8E819F81A885B98504C0B695A79562
S1134200979587954A95D2F7482F8A819B81642F89
S1134210F9011995D2CF8A819B8160E091D08D817B
S1134220813210F080E28D832B854D8168EC73E040
S11342308C8121D989831092E80389818093E903D1
S113424089812B960FB6F894DEBF0FBECDBFDF91E8
S1134250CF911F910F91EF90CF900895CF92EF924D
S11342600F931F93CF93DF9300D01F921F92CDB76C
S1134270DEB79A8389836B834C832D8389819A81EA
S1134280CD80E12C00E010E098014C816B8171DF5E
S11342900F900F900F900F900F90DF91CF911F917F
S11342A00F91EF90CF900895CF93DF9300D000D07B
S11342B0CDB7DEB79A8389837C836B835E834D831A
S11342C04D813B8189819A8121E0632FC7DF269646
S11342D00FB6F894DEBF0FBECDBFDF91CF91089526
S11342E0CF93DF9300D0CDB7DEB79A8389836B83F6
S11342F081E080930D048B818093EA0310920B0478
S113430010920C0400000F900F900F90DF91CF914A
S11343100895CF93DF9300D01F92CDB7DEB79A8371
S113432089837C836B832B8189819A81622FD8DF77
S113433000000F900F900F900F90DF91CF91089590
S11343400F93CF93DF9300D01F92CDB7DEB79B833B
S11343508A836C8390910C048091EA030C8121E0A0
S1134360492F6BEE73E0A5D9898310920B04109248
S11343700C0410920D0489810F900F900F900F90F0
S1134380DF91CF910F910895CF93DF931F921F92E6
S1134390CDB7DEB79A83898389819A8161E0D0DFC2
S11343A00F900F90DF91CF910895CF93DF9300D0BA
S11343B0CDB7DEB79A8389836B8380910D048823FC
S11343C0F9F080910C04803240F089819A8161E097
S11343D070E00ADE80E090E019C080910B04882F21
S11343E090E02B8185519C4FFC01208380910B042C
S11343F08F5F80930B0480910B0480930C0404C0A2
S1134400CE01039661E081DA81E090E00F900F9095
S11344100F90DF91CF910895CF93DF93CDB7DEB79F
S113442028970FB6F894DEBF0FBECDBF9C838B8355
S11344307E836D8358874F8380910D04882321F1F7
S11344401A82198229813A818F8198852817390720
S113445000F58B819C81FC0180819181FC0120818C
S113446031814D815E8189819A81840F951FFC0180
S113447040818B819C81642FF901199589819A81EE
S113448001969A838983DECF2F818D819E81622F4D
S11344903CDA8F81988528960FB6F894DEBF0FBE5C
S11344A0CDBFDF91CF910895CF93DF931F921F92D9
S11344B0CDB7DEB79A8389838091E903282F30E052
S11344C08091E803882F90E0A901481B590BCA0189
S11344D00F900F90DF91CF910895CF93DF9300D089
S11344E01F92CDB7DEB79C838B838FEF9FEF9A83A8
S11344F089839091E8038091E903981788F4809167
S1134500E803882F90E088539C4FFC018081882F1A
S113451090E09A8389838091E8038F5F8093E80316
S113452089819A810F900F900F900F90DF91CF9116
S11345300895CF93DF9300D01F92CDB7DEB79C834D
S11345408B838FEF9FEF9A8389839091E803809107
S1134550E903981760F48091E803882F90E088536A
S11345609C4FFC018081882F90E09A838983898104
S11345709A810F900F900F900F90DF91CF91089533
S1134580CF93DF931F921F92CDB7DEB79A838983AF
S113459000000F900F90DF91CF910895CF93DF9398
S11345A000D01F921F92CDB7DEB79B838A837D8391
S11345B06C838091100490911104892B89F190915E
S11345C0E8038091E903981768F119828981282FFB
S11345D030E08C819D8128173907A4F48981882FC4
S11345E090E02981222F30E04A815B81240F351F1E
S11345F0F901208188539C4FFC01208389818F5FBE
S11346008983E4CF1092E8038C818093E90320919D
S11346101004309111048C819D81F901199503C016
S1134620000001C000000F900F900F900F900F90AA
S1134630DF91CF910895CF93DF93CDB7DEB780910B
S11346400E0490910F04892B59F010920B041092D0
S11346500C0480910E0490910F04FC01199501C083
S11346600000DF91CF910895CF93DF9300D01F9284
S1134670CDB7DEB79A8389837C836B8389819A81E2
S1134680019739F48B819C81019619F482E194E0BD
S11346901EDD00000F900F900F900F90DF91CF91CF
S11346A00895CF93DF93CDB7DEB76FEF7FEF81E04F
S11346B090E0DADFDF91CF910895CF93DF9300D0BC
S11346C0CDB7DEB79B838A8380911F04882331F1A1
S11346D08FE590E0FC0180818983F89480911F0428
S11346E08130C9F48DE390E0FC0180818093210442
S11346F08DE390E02DE330E0F9012081322F209109
S1134700200420952323FC0120838FE590E0298158
S1134710FC01208303C08981809321048CE490E010
S11347202A81FC0120838DE490E02B81FC0120830D
S113473000000F900F900F90DF91CF910895CF93C9
S1134740DF931F92CDB7DEB780911F048823E1F079
S11347508FE590E0FC0180818983F89480911F04A7
S1134760813061F48DE390E020912104FC012083E9
S11347708FE590E02981FC01208306C08FE590E05D
S113478020912104FC01208300000F90DF91CF9140
S11347900895CF93DF931F921F92CDB7DEB79A830C
S11347A0898389819A81FC01808591850F900F907E
S11347B0DF91CF910895CF93DF931F921F92CDB7CE
S11347C0DEB79A83898389819A81FC0182859385E6
S11347D00F900F90DF91CF910895CF93DF931F92A5
S11347E01F92CDB7DEB79A83898389819A81FC01B0
S11347F086890F900F90DF91CF910895CF93DF9327
S1134800CDB7DEB727970FB6F894DEBF0FBECDBF86
S11348109E838D836F838F81282F30E0C901880F99
S1134820991F880F991F880F991FAC01421B530BC6
S11348309A018D819E8102969A83898389819A81C6
S1134840FC0145915491CF015C834B839A83898306
S11348508B819C81820F931F27960FB6F894DEBF3D
S11348600FBECDBFDF91CF910895CF93DF9300D0DA
S113487000D0CDB7DEB79E838D838D819E819A83D0
S1134880898389819A81FC0125913491CF013C83EC
S11348902B839A8389838B819C8126960FB6F89407
S11348A0DEBF0FBECDBFDF91CF910895CF93DF93CD
S11348B000D000D0CDB7DEB79A8389837C836B8325
S11348C05E834D8389819A81A8DB2DE532E089815D
S11348D09A81FC013183208389819A812B813C81D7
S11348E0FC013583248389819A812D813E81FC01D9
S11348F03783268389819A81FC01248135818981CA
S11349009A81FC013187208789819A81FC01268163
S1134910378189819A81FC013387228789819A8131
S1134920FC01168A89819A81FC0115861486898185
S11349309A81FC012485358589819A81FC01378718
S1134940268789819A8121E0FC01258B89819A81BE
S1134950FC01258989819A81FC01248B89819A81B2
S11349602FEF3FEFFC01338B228B89819A81FC016D
S11349702289338989819A81FC01318B208B898139
S11349809A8121E0FC01278B89819A81FC01108E98
S113499089819A81FC01128E118E000026960FB631
S11349A0F894DEBF0FBECDBFDF91CF910895EF9293
S11349B0FF920F931F93CF93DF93CDB7DEB76E971C
S11349C00FB6F894DEBF0FBECDBF9C8B8B8B7E8B56
S11349D06D8B588F4F8B3A8F298F1C8F0B8FFE8EC8
S11349E0ED8E2B8D3C8D8F89988DA901481B590B19
S11349F0CA0199231CF4919581959109AC01298DE3
S1134A003A8D8D899E89B901681B790BCB01992355
S1134A101CF491958195910921E0841795070CF078
S1134A2020E0822F90E09E838D838D819E81892B4F
S1134A30C1F08D899E8998878F838F89988D9E8BED
S1134A408D8B8F819885988F8F8B898D9A8D9A877E
S1134A5089878B8D9C8D9A8F898F89859A859C8F68
S1134A608B8F2D893E89898D9A8D82179307C4F483
S1134A708D899E899C878B87898D9A8D9E8B8D8B42
S1134A808B859C859A8F898F8F89988D9E878D873A
S1134A908B8D9C8D988F8F8B8D859E859C8F8B8F16
S1134AA0298D3A8D8D899E89D901A81BB90BCD0119
S1134AB0988B8F872B8D3C8D8F89988DF901E81BFE
S1134AC0F90BCF0199231CF49195819591099A8B47
S1134AD0898B8F85988999230CF4019695958795F0
S1134AE09A8389832F89388D8B8D9C8D281739075C
S1134AF02CF481E090E09C838B8304C08FEF9FEFC4
S1134B009C838B832D893E89898D9A8D8217930787
S1134B100CF44DC08D819E81892B99F08B899C89E1
S1134B20DC018D919C910C96DC01ED91FC912D8D15
S1134B303E8D4D895E896F89788D8B899C89199505
S1134B4012C08B899C89FC01808191810C96DC01C7
S1134B50ED91FC912D8D3E8D4F89588D6D897E8907
S1134B608B899C89199529813A8189899A89F901C6
S1134B70E81BF90BCF019A83898389819A81992350
S1134B8084F42F89388D8B819C81820F931F988F99
S1134B908F8B29813A818F859889820F931F9A83FD
S1134BA089838D899E8901969E8B8D8BABCF000066
S1134BB06E960FB6F894DEBF0FBECDBFDF91CF91D6
S1134BC01F910F91FF90EF900895CF93DF931F9261
S1134BD01F92CDB7DEB79A83898300000F900F90A0
S1134BE0DF91CF910895CF93DF93CDB7DEB72897A8
S1134BF00FB6F894DEBF0FBECDBF9A8389837C8342
S1134C006B835E834D8338872F8389819A81DC018E
S1134C108D919C910896DC01ED91FC912F81388552
S1134C204D815E816B817C8189819A811995000017
S1134C3028960FB6F894DEBF0FBECDBFDF91CF919B
S1134C4008950F931F93CF93DF93CDB7DEB72A97C1
S1134C500FB6F894DEBF0FBECDBF9A8389837C83E1
S1134C606B835E834D8338872F831A8709878981F5
S1134C709A81DC018D919C914C96DC01ED91FC9123
S1134C80A985BA852F8138854D815E816B817C81B0
S1134C9089819A818D01199500002A960FB6F8949E
S1134CA0DEBF0FBECDBFDF91CF911F910F9108954D
S1134CB00F931F93CF93DF93CDB7DEB72A970FB629
S1134CC0F894DEBF0FBECDBF9A8389837C836B8348
S1134CD05E834D8338872F831A87098789819A8158
S1134CE0DC018D919C914E96DC01ED91FC91A9859E
S1134CF0BA852F8138854D815E816B817C81898164
S1134D009A818D01199500002A960FB6F894DEBF9A
S1134D100FBECDBFDF91CF911F910F910895EF92F8
S1134D20FF920F931F93CF93DF93CDB7DEB72C97EA
S1134D300FB6F894DEBF0FBECDBF9A8389837C8300
S1134D406B835E834D8338872F831A870987FC869C
S1134D50EB8689819A81DC018D919C918096DC019E
S1134D60ED91FC910B851C85A985BA852F81388529
S1134D704D815E816B817C8189819A8178018D016D
S1134D80199500002C960FB6F894DEBF0FBECDBF68
S1134D90DF91CF911F910F91FF90EF900895CF93E2
S1134DA0DF931F921F92CDB7DEB79A8389830000E9
S1134DB00F900F90DF91CF910895EF92FF920F9390
S1134DC01F93CF93DF93CDB7DEB72A970FB6F8942E
S1134DD0DEBF0FBECDBF9A8389837C836B835E83E2
S1134DE04D8338872F831A87098789819A81DC014B
S1134DF08D919C910A96FC012081318189819A814F
S1134E00F901199589819A81DC018D919C914496CF
S1134E10DC01ED91FC912D813E818F819885820F7B
S1134E20931FDC01119709851A852B813C814D81E3
S1134E305E816B817C8189819A8178018D011995CC
S1134E4089819A81FC01808191814696DC012D91B2
S1134E503C9189819A81F901199500002A960FB62F
S1134E60F894DEBF0FBECDBFDF91CF911F910F919C
S1134E70FF90EF900895EF92FF920F931F93CF93BB
S1134E80DF93CDB7DEB72A970FB6F894DEBF0FBE17
S1134E90CDBF9A8389837C836B835E834D833887FC
S1134EA02F831A87098789819A81DC018D919C91CE
S1134EB00A96FC012081318189819A81F901199531
S1134EC089819A81DC018D919C914496DC01ED915C
S1134ED0FC912B813C818F819885820F931F9C01CB
S1134EE02150310909851A85AD81BE814D815E81CC
S1134EF06B817C8189819A8178018D0119958981E1
S1134F009A81FC01808191814696DC012D913C912E
S1134F1089819A81F901199500002A960FB6F894AF
S1134F20DEBF0FBECDBFDF91CF911F910F91FF90D8
S1134F30EF900895EF92FF920F931F93CF93DF9317
S1134F40CDB7DEB72E970FB6F894DEBF0FBECDBF38
S1134F509C838B837E836D8358874F833A8729870D
S1134F601C870B87FE86ED868B819C81DC018D91ED
S1134F709C910A96FC01208131818B819C81F901ED
S1134F8019958D819E819A8389832D813E8189859E
S1134F909A85280F391F89819A8182179307DCF437
S1134FA08B819C81DC018D919C914096DC01ED917B
S1134FB0FC91AD85BE852B853C854F8158856981E3
S1134FC07A818B819C818D01199589819A810196C1
S1134FD09A838983DACF8B819C81FC0180819181C2
S1134FE04696DC012D913C918B819C81F9011995A8
S1134FF000002E960FB6F894DEBF0FBECDBFDF9132
S1135000CF911F910F91FF90EF900895EF92FF922F
S11350100F931F93CF93DF9300D01F92CDB7DEB7CA
S11350209A8389837C836B8389819A81DC018D9146
S11350309C918096DC01ED91FC9189819A81DC013F
S11350401A964D915C911B9789819A81DC0118967F
S11350502D913C9119976B817C8189819A817B0187
S11350608A0140E050E060E070E0199500000F9084
S11350700F900F900F90DF91CF911F910F91FF90A0
S1135080EF900895EF92FF920F931F93CF93DF93C6
S1135090CDB7DEB760970FB6F894DEBF0FBECDBFB5
S11350A09E838D8378876F835A8749873C872B87B4
S11350B01E870D87F88AEF862F8138858B859C851E
S11350C02817390791F529853A858D859E8582179C
S11350D0930764F489859A859A8389838D859E854F
S11350E09A87898789819A819E878D878D819E8100
S11350F0DC018D919C914C96DC01ED91FC912D8508
S11351003E8589859A85A901481B590BCA019C01D2
S11351102F5F3F4FAF85B88949855A856F81788560
S11351208D819E818D0119956BC029853A858D8568
S11351309E852817390791F52F8138858B859C85A5
S11351408217930764F48F8198859C838B838B8566
S11351509C8598878F838B819C819C878B878D818D
S11351609E81DC018D919C914E96DC01ED91FC9128
S11351702B853C858F819885A901481B590BCA0151
S11351809C012F5F3F4FAF85B88949855A856F8150
S113519078858D819E818D01199532C08D819E8186
S11351A0DC018D919C910A96FC01208131818D81D5
S11351B09E81F90119958D819E81DC018D919C91CF
S11351C04496DC01ED91FC910F851889AD85BE856F
S11351D02B853C8549855A856F8178858D819E8193
S11351E078018D0119958D819E81FC0180819181C9
S11351F04696DC012D913C918D819E81F901199592
S1135200000060960FB6F894DEBF0FBECDBFDF91ED
S1135210CF911F910F91FF90EF900895EF92FF921D
S11352200F931F93CF93DF93CDB7DEB72C970FB6B1
S1135230F894DEBF0FBECDBF9A8389837C836B83D2
S11352405E834D8338872F831A870987FC86EB8614
S113525089819A81DC018D919C910A96FC012081BF
S1135260318189819A81F901199589819A81DC01B9
S11352708D919C914296DC01ED91FC91AB85BC85AE
S11352802F8138854D815E816B817C8189819A81F2
S11352908D01199589819A81FC01808191814296C1
S11352A0DC01ED91FC912D813E8189859A85820FE7
S11352B0931FAC0141505109AB85BC852F813885C2
S11352C06B817C8189819A818D01199589819A816B
S11352D0FC01808191814096DC01ED91FC91AB85CC
S11352E0BC8529853A854D815E816B817C8189816C
S11352F09A818D01199589819A81FC01808191811E
S11353004096DC01ED91FC912B813C818F81988545
S1135310820F931FBC0161507109AB85BC8529853F
S11353203A854D815E8189819A818D0119958981A2
S11353309A81FC01808191814696DC012D913C91FA
S113534089819A81F901199500002C960FB6F89479
S1135350DEBF0FBECDBFDF91CF911F910F91FF90A4
S1135360EF900895CF92DF92EF92FF920F931F93E5
S1135370CF93DF93CDB7DEB768970FB6F894DEBF4F
S11353800FBECDBF9C878B877E876D87588B4F87D9
S11353903A8B298B1C8B0B8BFE8AED8AD88ECF8A95
S11353A08B899C89079699230CF407969595879584
S11353B095958795959587959F838E8319828B857F
S11353C09C85DC018D919C910A96FC0120813181A0
S11353D08B859C85F90119951B821A822A813B8150
S11353E08D899E89281739070CF065C01D821C829F
S11353F02C813D818B899C89281739070CF050C07A
S11354008C819D8187709927892B21F08981880F50
S1135410898326C04A815B818E819F81489F900148
S1135420499F300D589F300D11248C819D81992303
S11354300CF40796959587959595879595958795F9
S1135440820F931F9C0189899A89820F931F9987E0
S1135450888788859985FC0184918A878A858983D0
S113546089818823BCF48B859C85DC018D919C917A
S11354700C96DC01ED91FC912D853E858C819D81FE
S1135480B901680F791F2F89388D4F8558898B850D
S11354909C8519958C819D8101969D838C83A8CFD1
S11354A08A819B8101969B838A838F859889019643
S11354B0988B8F8793CF8B859C85FC01808191810C
S11354C04696DC012D913C918B859C85F9011995BB
S11354D0000068960FB6F894DEBF0FBECDBFDF9113
S11354E0CF911F910F91FF90EF90DF90CF9008958F
S11354F0AF92CF92DF92EF92FF920F931F93CF93CD
S1135500DF93CDB7DEB7EB970FB6F894DEBF0FBECF
S1135510CDBF98AB8FA77AAB69AB5CAB4BAB2DAB74
S11355201FAB0EABF9AEE8AECAAEABAE8FA598A971
S1135530DC0159968D919C915A97892B09F0C7C12A
S11355408FA598A9FC012085318589A99AA982177C
S113555093070CF00EC38FA598A9DC011A962D9120
S11355603C911B978BA99CA9821793070CF001C34C
S11355708AAD282F30E0C901880F991F820F931F2D
S1135580880F991F9C0189A99AA9820F931F0197DB
S113559099230CF4EEC28BAD882F90E09C01220F6E
S11355A0331F220F331F220F331F8BA99CA9820F95
S11355B0931F019799230CF4DCC28FA598A9FC01D1
S11355C0908D81E08927882331F08DA9803B18F0E4
S11355D08DA98F5F8DAB8FA598A9DC018D919C91CE
S11355E00A96FC01208131818FA598A9F9011995AA
S11355F01982898185300CF007C18DA9282F30E0EC
S1135600C901880F991F880F991F280F391F898195
S1135610082E000C990B820F931F8A5D9B4F9F8766
S11356208E878E859F85FC018491888B88898A83E7
S11356301B828B8188300CF0E3C08A81882F90E034
S113564081709927892B09F465C08AAD813021F5D1
S11356508BAD813009F58FA598A9DC018D919C91C2
S11356600C96DC01ED91FC918B81282F880F330B74
S11356708BA99CA9A901480F591F8981282F880F3C
S1135680330B89A99AA9B901680F791F2EA93FA9DB
S11356908FA598A91995AAC08FA598A9FC01808106
S11356A091810E96DC01ED91FC918BAD082F10E0F9
S11356B08AADC82ED12C8B81482F880F550B8BAD0A
S11356C0882F90E0489F9001499F300D589F300DDE
S11356D011248BA99CA9D901A80FB91F8981482F2E
S11356E0880F550B8AAD882F90E0489F9001499F01
S11356F0300D589F300D112489A99AA9B901680F5A
S1135700791F2EA93FA98FA598A979019601AD010A
S113571019956CC028AD39AD8EA99FA928173907F2
S113572009F464C08AAD813021F58BAD813009F56F
S11357308FA598A9FC01808191810C96DC01ED91E3
S1135740FC918B81282F880F330B8BA99CA9A9016D
S1135750480F591F8981282F880F330B89A99AA9CB
S1135760B901680F791F28AD39AD8FA598A919958E
S11357703DC08FA598A9FC01808191810E96DC0122
S1135780ED91FC918BAD082F10E08AADC82ED12C81
S11357908B81482F880F550B8BAD882F90E0489F45
S11357A09001499F300D589F300D11248BA99CA95D
S11357B0D901A80FB91F8981482F880F550B8AADCD
S11357C0882F90E0489F9001499F300D589F300DDD
S11357D0112489A99AA9B901680F791F28AD39AD97
S11357E08FA598A979019601AD0119958B818F5FD9
S11357F08B838A81882F90E0959587958A8319CF2A
S113580089818F5F8983F5CE28AD39AD8EA99FA993
S11358102817390709F44DC08AAD8130E1F48BAD06
S11358208130C9F48FA598A9FC01808191814096AB
S1135830DC01ED91FC9189A99AA9BC016B5F7F4FB2
S113584028AD39AD4BA95CA98FA598A9890128E099
S113585030E019952EC08FA598A9FC018081918113
S11358600E96DC01ED91FC918BAD882F90E08C01BC
S1135870000F111F000F111F000F111F8AADA82F59
S1135880B0E08AAD282F30E0C901880F991F880F36
S1135890991F280F391F89A99AA9B901680F791F7F
S11358A028AD39AD4BA95CA98FA598A979019D01B3
S11358B019958FA598A9FC01808191814696DC01F8
S11358C02D913C918FA598A9F901199553C18FA5E4
S11358D098A9DC0159968D919C915A9704969A8BBC
S11358E0898B89899A89FC0184918B8B8B899DA9E9
S11358F0F92FF81B8F2F8DAB8FA598A9DC01599632
S11359008D919C915A976DA90E94FE239D8B8C8B3F
S11359108FA598A9FC01818D928D0E9435249F8BBF
S11359208E8B8C899D89998F888F888D998DFC01A8
S113593025913491CF013B8F2A8F998F888F8A8D3F
S11359409B8D9D838C838C899D8902969D8F8C8FE2
S11359508C8D9D8DFC0184918E8F8E8D8F8F8C8983
S11359609D89039699A388A388A199A1FC01849198
S11359708AA38AA18BA38C899D8905969DA38CA358
S11359808CA19DA1FC0184918EA38EA18FA38C89EF
S11359909D89069699A788A788A599A5FC01849155
S11359A08AA78AA58BA7188619861B861A861D8640
S11359B01C868AAD823018F48BAD823060F08FA1E2
S11359C0082E000C990B9B878A878BA5082E000C48
S11359D0990B9D878C878FA598A9DC018D919C914B
S11359E00A96FC01208131818FA598A9F9011995A6
S11359F01F829F818BA1981708F0ADC01E829E81E3
S1135A008F8D981708F0A3C0898591E0980F998726
S1135A10882F90E08770992721E0892B09F020E0F6
S1135A202223A1F08C819D819C012F5F3F4F3D83F8
S1135A302C832E893F89820F931F9DA78CA78CA549
S1135A409DA5FC0184918EA78EA5888788858823CF
S1135A500CF076C08AAD813071F58BAD813059F58B
S1135A608FA598A9DC018D919C910C96DC01ED9198
S1135A70FC918BA5282F880F330B8BA99CA9280F89
S1135A80391F8F81882F90E0A901480F591F8FA1DA
S1135A90282F880F330B89A99AA9280F391F8E81C3
S1135AA0882F90E0B901680F791F2EA93FA98FA50F
S1135AB098A9199545C08FA598A9FC018081918169
S1135AC00E96DC01ED91FC918BAD082F10E08AADB0
S1135AD0C82ED12C8F81282F30E08C859D85A9017B
S1135AE0480F591F8BAD882F90E0489F9001499F24
S1135AF0300D589F300D11248BA99CA9D901A80FF2
S1135B00B91F8E81282F30E08A859B85A901480F13
S1135B10591F8AAD882F90E0489F9001499F300D0E
S1135B20589F300D112489A99AA9B901680F791FCA
S1135B302EA93FA98FA598A979019601AD011995C0
S1135B408885880F88878E818F5F8E8358CF8F8159
S1135B508F5F8F834ECF8FA598A9FC01808191819F
S1135B604696DC012D913C918FA598A9F9011995D0
S1135B7001C00000EB960FB6F894DEBF0FBECDBF98
S1135B80DF91CF911F910F91FF90EF90DF90CF9015
S1135B90AF900895AF92CF92EF92FF920F931F931D
S1135BA0CF93DF93CDB7DEB7A4970FB6F894DEBFDB
S1135BB00FBECDBF99A388A36AA388A199A1FC01B4
S1135BC0818D928D892B09F0A8C08AA18A30F1F4C5
S1135BD088A199A1FC011586148688A199A1FC01CC
S1135BE02685378588A199A1FC018589882F90E0B5
S1135BF0880F991F880F991F880F991F280F391F25
S1135C0088A199A1FC0137872687CBC18AA18D3051
S1135C1009F4C7C188A199A1FC0187898823D1F11E
S1135C2088A199A1FC014485558588A199A1FC010D
S1135C308489282F30E0C901880F991F820F931F90
S1135C40880F991F9A01280F391F88A199A1FC0177
S1135C508085918582179307ECF488A199A1FC01B2
S1135C601586148688A199A1FC012685378588A10B
S1135C7099A1FC018589882F90E0880F991F880FCE
S1135C80991F880F991F280F391F88A199A1FC011A
S1135C903787268788A199A1FC01B58988A199A194
S1135CA0FC01A48988A199A1FC010288F389E02D53
S1135CB0FCA3EBA388A199A1FC012089318988A1C7
S1135CC099A1FC014685578588A199A1FC016485A9
S1135CD0758588A199A1AB2ECA2EEBA0FCA08901E1
S1135CE02AA106DC88A199A1FC014485558588A1D7
