S0130000426172654D696E696D756D2E73726563BB
S1130000FCC0000029C1000027C1000025C1000078
S113001023C1000021C100001FC100001DC1000058
S11300201BC1000019C1000017C1000015C1000068
S113003013C1000011C100000FC100000DC1000078
S11300400BC100004BC3000007C1000005C1000044
S113005003C1000001C10000FFC0000085C600000C
S1130060FBC0000081C50000B5C50000F5C000005C
S1130070F3C00000F1C00000EFC00000EDC00000BC
S113008064C30000E9C00000E7C00000E5C0000050
S1130090E3C00000E1C00000DFC00000DDC00000DC
S11300A0DBC00000D9C0000087C30000D5C0000039
S11300B0D3C00000D1C00000CFC00000B4C3000012
S11300C0CBC00000C9C00000C7C00000C5C000000C
S11300D0C3C00000C1C00000BFC00000BDC000001C
S11300E0BBC000007A077D076C0770077607B4076A
S11300F0810785078B078F07930799079D07A1073A
S1130100B407A707AB07AF0700000A0B02090C0DE1
S11301100E080703040100000000000000000000B6
S113012000000000000000000000000000000000CB
S11301300000000012111000000000000000000088
S113014000000000000000000000000000000102A8
S113015010202008081020401020408002010201D5
S1130160080402010102040810204080804020108D
S113017008040201800402018040201008040201E6
S1130180080402010102040810204080010204084E
S11301901020408005050505070508080808020227
S11301A002020A0A0808040404040101010101010D
S11301B001010303030303030303040707070C0CF0
S11301C00C0C0C0C0C0C02020202060606060606B7
S11301D006060B0B0B0B0B0B0B0B00002200250070
S11301E028002B002E00310034000201000005011C
S11301F008010B01DA011C06E60111241FBECFEF32
S1130200D1E2DEBFCDBF00E00CBF12E0A0E0B2E05F
S1130210E2E0F6E100E00BBF02C007900D92A832C5
S1130220B107D9F723E0A8E2B2E001C01D92AE36CF
S1130230B207E1F710E0CCEFD0E000E005C0219771
S11302400109802FFE01B3D7CA3FD10780E0080718
S1130250B1F720D50C94F00AD3CECF93DF9300D01E
S1130260CDB7DEB79A8389836B8389819A816B8149
S113027069D789819A810F900F900F90DF91CF9168
S11302800895CF93DF9300D000D0CDB7DEB79A8323
S113029089834B835C836D837E838B819C81AD8159
S11302A0BE81E981FA8126E0AC01BD01CF01F9D319
S11302B0000026960FB6F894DEBF0FBECDBFDF91C7
S11302C0CF910895CF93DF93CDB7DEB740E855E2E1
S11302D060E070E084EC92E0D4DF68EC70E088E2E7
S11302E092E0A2D60000DF91CF910895CF93DF93DF
S11302F0CDB7DEB780912E02882361F068E272E008
S113030084EC92E021D566E072E088E292E0D9D6EE
S113031010922E020000DF91CF910895CF93DF93C6
S11303201F92CDB7DEB784EC92E0B4D221E0892BE2
S113033009F420E0222379F084EC92E0C5D2898389
S1130340698188E292E089DF89818A3061F781E0FE
S113035080932E02E8CF00000F90DF91CF91089593
S1130360CF93DF9300D01F92CDB7DEB79A838983F2
S11303707C836B8389819A81019749F48B819C8169
S1130380019629F466E072E088E292E086D68981DB
S11303909A81892B39F48B819C81019619F488E226
S11303A092E011D600000F900F900F900F90DF9104
S11303B0CF910895CF93DF93CDB7DEB76FEF7FEF83
S11303C081E090E0CDDFDF91CF910895CF93DF936B
S11303D0CDB7DEB76FEF7FEF80E090E0C1DFDF9154
S11303E0CF910895CF93DF9300D01F921F92CDB782
S11303F0DEB789837B836A835D834C838981882FFD
S113040090E081549D4FFC018081881F8827881FBC
S1130410882331F08A819B81FC011182108271C092
S11304208981282F30E0C901880F991F820F931FFB
S1130430880F991F880F991F9C018981882F90E04C
S113044081549D4FFC018081082E000C990B280FCC
S1130450391F8091C302882F90E0281739074CF583
S11304608981282F30E0C901880F991F820F931FBB
S1130470880F991F880F991F9C018981882F90E00C
S113048081549D4FFC018081082E000C990B280F8C
S1130490391FC901880F991F820F931F815D9D4FDA
S11304A0FC01808186FB882780F9813011F481E08A
S11304B001C080E0882329F18981282F30E0C90117
S11304C0880F991F820F931F880F991F880F991FF8
S11304D09C018981882F90E081549D4FFC0180818B
S11304E0082E000C990B280F391FC901880F991F7A
S11304F0820F931F815D9D4FFC0180818F7360E0AB
S113050034D58981882F90E09C0121543D4FF90115
S113051020812F5F81549D4FFC0120838981282FE6
S113052030E0C901880F991F820F931F880F991F0C
S1130530880F991F9C018981882F90E081549D4FD9
S1130540FC018081082E000C990B280F391F809123
S1130550C302882F90E0281739075CF48981882F1B
S113056090E081549D4FFC0180818C3014F481E033
S113057001C080E0882309F47EC08A819B81FC014C
S1130580408151818981282F30E0C901880F991F4A
S1130590820F931F880F991F880F991F9C018981CF
S11305A0882F90E081549D4FFC018081082E000C1F
S11305B0990B280F391FC901880F991F820F931FA8
S11305C0805D9D4FFC01808191819A01280F391F24
S11305D08C819D81FC01318320838981282F30E027
S11305E0C901880F991F820F931F880F991F880FC5
S11305F0991F9C018981882F90E081549D4FFC01B3
S11306008081082E000C990B280F391FC901880F0F
S1130610991F820F931F815D9D4FFC01808186FB92
S1130620882780F9882309F450C08981282F30E075
S1130630C901880F991F820F931F880F991F880F74
S1130640991F9C018981882F90E081549D4FFC0162
S11306508081082E000C990B280F391FC901880FBF
S1130660991F820F931F815D9D4FFC0180818F73C1
S113067061E07BD42AC08A819B81FC0180819181C5
S1130680049621E080349C4908F020E0222341F0C4
S11306908C819D8120E43CE9FC01318320830DC0E1
S11306A08A819B81FC01808191819C012C5F3F4F59
S11306B08C819D81FC01318320838981882F90E086
S11306C081549D4F2FEFFC01208300000F900F9069
S11306D00F900F900F90DF91CF9108951F920F927A
S11306E000905F000F92112400905B000F922F93F3
S11306F03F934F935F936F937F938F939F93AF93A6
S1130700BF93EF93FF93CF93DF93CDB7DEB748E862
S113071050E064E870E081E065DE0000DF91CF9195
S1130720FF91EF91BF91AF919F918F917F916F91C5
S11307305F914F913F912F910F9000925B000F902A
S113074000925F000F901F9018951F920F920090D7
S11307505F000F92112400905B000F922F933F9340
S11307604F935F936F937F938F939F93AF93BF93B5
S1130770EF93FF93CF93DF93CDB7DEB748E950E013
S113078064E970E082E02EDE0000DF91CF91FF91FA
S1130790EF91BF91AF919F918F917F916F915F91F5
S11307A04F913F912F910F9000925B000F90009218
S11307B05F000F901F9018951F920F9200905F009A
S11307C00F92112400905B000F922F933F934F934D
S11307D05F936F937F938F939F93AF93BF93EF93A5
S11307E0FF93CF93DF93CDB7DEB748EA50E064EAD6
S11307F070E083E0F7DD0000DF91CF91FF91EF918E
S1130800BF91AF919F918F917F916F915F914F9124
S11308103F912F910F9000925B000F9000925F0028
S11308200F901F9018951F920F9200905F000F92E7
S1130830112400905B000F922F933F934F935F938B
S11308406F937F938F939F93AF93BF93EF93FF9394
S1130850CF93DF93CDB7DEB748E251E064E271E0B5
S113086080E0C0DD0000DF91CF91FF91EF91BF9157
S1130870AF919F918F917F916F915F914F913F9134
S11308802F910F9000925B000F9000925F000F90E9
S11308901F901895FC01918D228D892F90E0805C2A
S11308A09F4F821B91098F7399270895FC01918DA5
S11308B0828D981731F0828DE80FF11D858D90E0BF
S11308C008958FEF9FEF0895FC01918D828D981705
S11308D061F0828DDF01A80FB11D5D968C91928D20
S11308E09F5F9F73928F90E008958FEF9FEF08951D
S11308F0FC01538D448D252F30E0842F90E0821B22
S1130900930B541710F0CF9608950197089583E13F
S113091096E0892B39F08EE891E0892B19F083D188
S1130920811125C080E090E0892B41F080E090E0C7
S1130930892B21F00E94000081111BC080E090E00F
S1130940892B41F080E090E0892B21F00E94000087
S1130950811112C080E090E0892B99F080E090E052
S1130960892B79F00E940000811109C00895D6DC1A
S1130970D9CF0E940000E2CF0E940000EBCF0C947C
S113098000000895FC01848DDF01A80FB11DA35A56
S1130990BF4F2C91848D90E001968F739927848F9B
S11309A0A689B7892C93A089B1898C9183708064BE
S11309B08C93938D848D981306C00288F389E02D5F
S11309C080818F7D80830895EF92FF920F931F9310
S11309D0CF93DF93EC0181E0888F9B8D8C8D9813EE
S11309E005C0E889F989808185FD25C0F62E0B8D27
S11309F010E00F5F1F4F0F731127E02E8C8DE8124C
S1130A000BC00FB607FCFACFE889F989808185FF0E
S1130A10F5CFCE01B7DFF2CF8B8DFE01E80FF11DCC
S1130A20E35AFF4FF0829FB7F8940B8FEA89FB8952
S1130A30808180620AC09FB7F894EE89FF89608341
S1130A40E889F98980818370806480839FBF81E015
S1130A5090E0DF91CF911F910F91FF90EF90089557
S1130A60CF93DF93EC01888D8823C1F0EA89FB8959
S1130A70808185FD05C0A889B9898C9186FD0EC049
S1130A800FB607FCF5CF808185FFF2CFA889B9891D
S1130A908C9185FFEDCFCE0175DFE8CFDF91CF914B
S1130AA00895CF92DF92EF92FF921F93CF93DF933B
S1130AB0EC016A017B01122FE889F98982E08083C5
S1130AC04115514E61057105A9F060E079E08DE3AF
S1130AD090E0A701960149D3DA01C9010197A10960
S1130AE0B109B695A795979587959C01211580E145
S1130AF03807A0F0E889F989108260E874E88EE18B
S1130B0090E0A701960131D3DA01C9010197A10947
S1130B10B109B695A795979587959C01EC85FD85B8
S1130B203083EE85FF852083188EEC89FD89108340
S1130B30EA89FB89808180618083EA89FB898081DD
S1130B4088608083EA89FB89808180688083EA8960
S1130B50FB8980818F7D8083DF91CF911F91FF90EE
S1130B60EF90DF90CF9008951F920F920FB60F92DF
S1130B7011240BB60F922F938F939F93EF93FF93B0
S1130B80E091D402F091D5028081E091DA02F091F3
S1130B90DB0282FD12C090818091DD028F5F8F7332
S1130BA02091DE02821751F0E091DD02F0E0EC5377
S1130BB0FD4F958F8093DD0201C08081FF91EF91FD
S1130BC09F918F912F910F900BBE0F900FBE0F909E
S1130BD01F9018951F920F920FB60F9211240BB607
S1130BE00F922F933F934F935F936F937F938F93C2
S1130BF09F93AF93BF93EF93FF9384EC92E0C2DE95
S1130C00FF91EF91BF91AF919F918F917F916F91E0
S1130C105F914F913F912F910F900BBE0F900FBE9C
S1130C200F901F90189584EC92E034DE21E0892B1C
S1130C3009F420E0822F0895E4ECF2E0138212829A
S1130C4088EE93E0A0E0B0E084839583A683B78325
S1130C508BE092E09183808385EC90E09587848794
S1130C6084EC90E09787868780EC90E0918B808B72
S1130C7081EC90E0938B828B82EC90E0958B848B5B
S1130C8086EC90E0978B868B118E128E138E148EC9
S1130C9008950895B3D0FDDF15DBC7E8D4E026DB63
S1130CA02097E9F334DEFBCFCF92DF92EF92FF92ED
S1130CB00F931F93CF93DF936C017A018B01C0E0F4
S1130CC0D0E0CE15DF0581F0D8016D918D01D601FC
S1130CD0ED91FC910190F081E02DC6011995892BCD
S1130CE011F02196EECF7E01C701DF91CF911F91C4
S1130CF00F91FF90EF90DF90CF90089561157105EB
S1130D0079F0FB0101900020E9F73197AF01461B10
S1130D10570BDC01ED91FC910280F381E02D1994D5
S1130D2080E090E00895DB0114964D915C91159755
S1130D306D917C91DC01ED91FC910280F381E02DB9
S1130D40199469E172E0DACF0F931F93CF93DF9385
S1130D50EC01E9DF8C01CE01F4DF800F911FDF91FC
S1130D60CF911F910F9108951F920F920FB60F927A
S1130D7011242F933F938F939F93AF93BF938091AD
S1130D80620390916303A0916403B0916503309171
S1130D90610323E0230F2D3720F40196A11DB11D1B
S1130DA005C026E8230F0296A11DB11D20936103FF
S1130DB08093620390936303A0936403B0936503E9
S1130DC08091660390916703A0916803B0916903D1
S1130DD00196A11DB11D8093660390936703A093B0
S1130DE06803B0936903BF91AF919F918F913F9135
S1130DF02F910F900FBE0F901F901895789484B583
S1130E00826084BD84B5816084BD85B5826085BD02
S1130E1085B5816085BDEEE6F0E0808181608083E8
S1130E20E1E8F0E0108280818260808380818160CB
S1130E308083E0E8F0E0808181608083E1EBF0E092
S1130E40808184608083E0EBF0E080818160808336
S1130E50E1E9F0E080818260808380818160808329
S1130E60E0E9F0E0808181608083E1EAF0E0808164
S1130E7082608083808181608083E0EAF0E0808109
S1130E8081608083E1E2F1E08081826080838081FF
S1130E9081608083E0E2F1E0808181608083EAE721
S1130EA0F0E080818460808380818260808380819F
S1130EB0816080838081806880831092C10008955E
S1130EC090E0FC013197E231F10508F04DC088272C
S1130ED0EE58FF4F8F4F6BC1809180008F7703C016
S1130EE0809180008F7D80938000089580918000A0
S1130EF0877FF9CF84B58F7702C084B58F7D84BD99
S1130F0008958091B0008F7703C08091B0008F7DE9
S1130F108093B0000895809190008F7707C08091EE
S1130F2090008F7D03C080919000877F8093900014
S1130F3008958091A0008F7707C08091A0008F7DD5
S1130F4003C08091A000877F8093A00008958091C2
S1130F5020018F7707C0809120018F7D03C080918D
S1130F602001877F8093200108951F93CF93DF93FF
S1130F70282F30E0F901E85FFE4F8491F901E25B2C
S1130F80FE4FD491F901EC56FE4FC491CC23B9F035
S1130F90162F811195DFEC2FF0E0EE0FFF1FE652C4
S1130FA0FE4FA591B4919FB7F894111104C08C9190
S1130FB0D095D82302C0EC91DE2BDC939FBFDF9148
S1130FC0CF911F910895FC0180819181009709F0D0
S1130FD08EC10895CF93DF93EC01888199810097A6
S1130FE009F085D1198218821D821C821B821A8203
S1130FF0DF91CF9108950F931F93CF93DF93EC016B
S11310008B016F5F7F4F88819981FAD1009731F00E
S1131010998388831B830A8381E001C080E0DF9188
S1131020CF911F910F910895CF93DF93EC018881A5
S11310309981892B29F08A819B818617970758F417
S1131040CE01D9DF882341F08C819D81892B19F44D
S1131050E881F981108281E0DF91CF910895EF92C8
S1131060FF920F931F93CF93DF93EC017B018A01CF
S1131070BA01DADF811103C0CE01ACDF06C01D83E3
S11310800C83B70188819981A4D2CE01DF91CF91DD
S11310901F910F91FF90EF900895FC01118210822F
S11310A013821282158214826115710549F0FB01C5
S11310B001900020E9F73197AF01461B570BCFCFC2
S11310C00895CF93DF93EC016115710551F0FB0195
S11310D001900020E9F73197AF01461B570BBFDFA2
S11310E001C078DFCE01DF91CF910895EF92FF9296
S11310F00F931F93CF93DF936115710511F480E073
S11311001AC041155105B1F07B01EC018C819D8120
S11311108A01080F191FB801CE0186DF882379F3ED
S1131120288139818C819D81B701820F931F51D20F
S11311301D830C8381E0DF91CF911F910F91FF906C
S1131140EF900895CF93DF931F921F92CDB7DEB730
S113115069831A8241E050E0BE016F5F7F4FC6DFB2
S11311600F900F90DF91CF910895A1E21A2EAA1B40
S1131170BB1BFD010DC0AA1FBB1FEE1FFF1FA21743
S1131180B307E407F50720F0A21BB30BE40BF50B40
S1131190661F771F881F991F1A9469F760957095C9
S11311A0809590959B01AC01BD01CF010895EE0F90
S11311B0FF1F881F8BBF0790F691E02D19940F93A2
S11311C01F93CF93DF938230910510F482E090E077
S11311D0E0916C03F0916D0320E030E0A0E0B0E01A
S11311E0309719F1408151810281138148175907C1
S11311F0C8F08417950769F4109731F012960C9390
S1131200129713961C9327C000936C0310936D03DD
S113121022C02115310519F04217530718F49A0119
S1131220BD01EF01DF01F801DBCF21153105F9F034
S1131230281B390B2430310580F48A819B81611588
S1131240710521F0FB019383828304C090936D03A5
S113125080936C03FE01329644C0FE01E20FF31F3B
S11312608193919322503109398328833AC0209184
S11312706A0330916B03232B41F4209102023091D5
S1131280030230936B0320936A0320910002309190
S113129001022115310541F42DB73EB740910402F6
S11312A050910502241B350BE0916A03F0916B0306
S11312B0E217F307A0F42E1B3F0B2817390778F029
S11312C0AC014E5F5F4F2417350748F04E0F5F1F88
S11312D050936B0340936A038193919302C0E0E0BF
S11312E0F0E0CF01DF91CF911F910F910895CF933B
S11312F0DF93009709F481C0FC01329713821282B4
S1131300A0916C03B0916D03109781F42081318119
S1131310820F931F20916A0330916B0328173907BA
S113132051F5F0936B03E0936A0367C0ED0120E08D
S113133030E0CE17DF0740F44A815B819E014115FE
S11313405105F1F0EA01F5CFD383C2834081518185
S1131350840F951FC817D90759F488819981840F80
S1131360951F0296918380838A819B8193838283D4
S11313702115310529F4F0936D03E0936C033DC00E
S1131380E901FB83EA8349915991C40FD51FEC17F6
S1131390FD0761F480819181840F951F0296E90114
S11313A099838883828193819B838A83E0E0F0E040
S11313B012968D919C911397009719F0FD01DC0111
S11313C0F7CF8D919C9111979D012E5F3F4F820F16
S11313D0931F20916A0330916B032817390769F42E
S11313E0309729F410926D0310926C0302C013829B
S11313F01282B0936B03A0936A03DF91CF91089597
S11314006F927F928F929F92AF92BF92CF92DF9210
S1131410EF92FF920F931F93CF93DF93009781F482
S1131420CB01DF91CF911F910F91FF90EF90DF904F
S1131430CF90BF90AF909F908F907F906F90BFCED2
S1131440FC01E60FF71F9C0122503109E217F30754
S113145008F4A5C0EC01D9010D911C911197061750
S11314601707A8F00530110508F497C0C8010497C0
S11314708617970708F491C002501109061B170B31
S1131480019311936D937C93CF0131DF86C05B018F
S1131490A01AB10A4C01800E911EA0916C03B09168
S11314A06D03612C712CE12CF12C109709F446C0CA
S11314B08D919C911197A815B905B1F56C0142E085
S11314C0C40ED11CCA14DB0478F14C018A189B08A1
S11314D0640142E0C40ED11C1296BC90129713967C
S11314E0AC91B5E0CB16D10440F0B282A3839182D3
S11314F08082D9016D937C9309C00E5F1F4F800FCA
S1131500911FF90191838083EB2DFA2FE114F104EB
S113151031F0D7011396FC93EE9312973EC0F093EB
S11315206D03E0936C0339C06816790608F43C0136
S11315307D0112960D90BC91A02DB7CF80916A03C6
S113154090916B0388169906E1F466167706C8F441
S11315508091000290910102009741F48DB79EB7EB
S11315604091040250910502841B950BE817F9077A
S1131570B0F4F0936B03E0936A03F9017183608321
S11315800CC0CB011CDE7C01009749F0A801BE0110
S113159017D0CE01ACDEC70104C0CE0102C080E08A
S11315A090E0DF91CF911F910F91FF90EF90DF902A
S11315B0CF90BF90AF909F908F907F906F90089541
S11315C0FB01DC0102C001900D9241505040D8F75C
S11315D00895FB01DC0101900D920020E1F70895CC
S11315E010E0CCEFD0E000E005C0802FFE01DFDD8D
S11315F02196011DCD3FD10780E00807B1F7F8948B
S1051600FFCF16
S113160200006E0320000000000000E40454067889
S11316120430054A04640456040D0A006E616E0027
S10B1622696E66006F76660034
S9030000FC
