S0130000426172654D696E696D756D2E73726563BB
S113000028C7000057C7000055C7000053C70000A9
S113001051C700004FC700004DC700004BC7000088
S113002049C7000047C7000045C7000043C7000098
S113003041C700003FC700003DC700003BC70000A8
S113004039C700000C941A2F35C7000033C70000CD
S113005031C700002FC700002DC700000C94EF33F8
S113006029C700000C94D6320C940C3323C700002B
S113007021C700001FC700001DC700001BC70000E8
S11300800C94512F17C7000015C7000013C70000B8
S113009011C700000FC700000DC700000C94240B0B
S11300A009C7000007C700000C94882F03C700008D
S11300B001C70000FFC60000FDC600000C94BF2F5E
S11300C0F9C60000F7C60000F5C60000F3C600003C
S11300D0F1C60000EFC60000EDC60000EBC600004C
S11300E0E9C60000540C590C590C590C590C590C04
S11300F0590C590C5A0B590C590C590C590C590CD4
S1130100590C590C5A0B590C590C590C590C590CC3
S1130110590C590C630B590C590C590C590C590CAA
S1130120590C590C8D0B590C590C590C590C590C70
S1130130590C590C630B590C590C590C590C590C8A
S1130140590C590C920B590C590C590C590C590C4B
S1130150590C590C970B590C590C590C590C590C36
S1130160590C590CAC0B590C590C590C590C590C11
S1130170590C590CD90B590C590C590C590C590CD4
S1130180590C590C9C0B590C590C590C590C590C01
S1130190590C590CB80B590C590C590C590C590CD5
S11301A0590C590CDB0B590C590C590C590C590CA2
S11301B0590C590CDB0B590C590C590C590C590C92
S11301C0590C590CDB0B590C590C590C590C590C82
S11301D0590C590CDB0B590C590C590C590C590C72
S11301E0590C590CE30B590C590C590C590C590C5A
S11301F0590C590C1A0C590C590C590C590C590C12
S1130200590C590CE30B590C590C590C590C590C39
S1130210590C590C1A0C590C590C590C590C590CF1
S1130220590C590CFD0B590C590C590C590C590CFF
S1130230590C590C1D0C590C590C590C590C590CCE
S1130240590C590C1D0C590C590C590C590C590CBE
S1130250590C590C330C590C590C590C590C590C98
S1130260590C590C4F0C590C590C590C590C590C6C
S1130270590C590C4F0C590C590C590C590C590C5C
S1130280590C590C590C590C590C590C590C590C42
S1130290590C590C590C590C590C590C590C590C32
S11302A0590C590C590C590C590C590C590C590C22
S11302B0590C590C590C590C590C590C590C590C12
S11302C0590C590C590C590C590C590C590C590C02
S11302D0590C590C580C13351635053509350F359D
S11302E04D351A351E35243528352C3532353635FD
S11302F03A354D3540354435483553534431333020
S11303003620616C6C6F636174696F6E206661691D
S11303106C65640050616120656E206D61726B656F
S11303206473706C6164732068766F72206A6567A9
S1130330207661722066616572646967206D656408
S1130340206174207370696C6C652C2073746F6405
S1130350206A6567207472E674206F67206B6F6C87
S11303606420626167207363656E656E206F672029
S1130370736C617070656427206166000000000082
S1130380003E5B4F5B3E3E6B4F6B3E1C3E7C3E1C17
S1130390183C7E3C181C577D571C1C5E7F5E1C005D
S11303A0183C1800FFE7C3E7FF0018241800FFE714
S11303B0DBE7FF30483A060E2629792926407F05D7
S11303C00507407F05253F5A3CE73C5A7F3E1C1CED
S11303D008081C1C3E7F14227F22145F5F005F5FAD
S11303E006097F017F006689956A60606060609499
S11303F0A2FFA29408047E040810207E201008089E
S11304002A1C08081C2A08081E101010100C1E0CA8
S11304101E0C30383E3830060E3E0E06000000003A
S11304200000005F00000007000700147F147F1421
S1130430242A7F2A12231308646236495620500066
S113044008070300001C2241000041221C002A1C52
S11304507F1C2A08083E080800807030000808083D
S11304600808000060600020100804023E5149455D
S11304703E00427F400072494949462141494D337B
S11304801814127F1027454545393C4A49493141E2
S1130490211109073649494936464949291E0000B0
S11304A01400000040340000000814224114141405
S11304B01414004122140802015909063E415D59F1
S11304C04E7C1211127C7F494949363E41414122FA
S11304D07F4141413E7F494949417F090909013E24
S11304E0414151737F0808087F00417F410020404B
S11304F0413F017F081422417F404040407F021C5D
S1130500027F7F0408107F3E4141413E7F09090973
S1130510063E4151215E7F0919294626494949323F
S113052003017F01033F4040403F1F2040201F3F05
S11305304038403F6314081463030478040361598A
S1130540494D43007F4141410204081020004141CC
S1130550417F040201020440404040400003070878
S11305600020545478407F28444438384444442874
S1130570384444287F385454541800087E0902181B
S1130580A4A49C787F0804047800447D40002040A3
S1130590403D007F1028440000417F40007C0478E7
S11305A004787C080404783844444438FC1824242F
S11305B01818242418FC7C080404084854545424AF
S11305C004043F44243C4040207C1C2040201C3C2C
S11305D04030403C44281028444C9090907C446423
S11305E0544C4400083641000000770000004136B6
S11305F0080002010204023C2623263C1EA1A1613C
S1130600123A4040207A385454555921555579416D
S11306102254547842215554784020545579400C42
S11306201E52721239555555593954545459395525
S11306305454580000457C410002457D4200014568
S11306407C407D1211127DF0282528F07C545545FC
S1130650002054547C547C0A097F49324949493268
S11306603A4444443A324A4848303A4141217A3A79
S113067042402078009DA0A07D3D4242423D3D4045
S113068040403D3C24FF2424487E4943662B2FFCF4
S11306902F2BFF0929F620C0887E090320545479A2
S11306A0410000447D413048484A32384040227A73
S11306B0007A0A0A727D0D19317D2629292F2826F0
S11306C02929292630484D402038080808080808F8
S11306D00808382F10C8ACBA2F102834FA00007B51
S11306E0000008142A142222142A14085500550064
S11306F055AA55AA55AAFF55FF55FF000000FF0053
S1130700101010FF00141414FF001010FF00FF104D
S113071010F010F0141414FC001414F700FF00007F
S1130720FF00FF1414F404FC141417101F10101FFE
S1130730101F1414141F00101010F0000000001FEC
S1130740101010101F10101010F010000000FF10F7
S11307501010101010101010FF10000000FF1400F3
S113076000FF00FF00001F10170000FC04F4141425
S11307701710171414F404F40000FF00F7141414F1
S113078014141414F700F7141414171410101F1071
S11307901F141414F4141010F010F000001F101F94
S11307A00000001F14000000FC140000F010F01002
S11307B010FF10FF141414FF141010101F00000079
S11307C000F010FFFFFFFFFFF0F0F0F0F0FFFFFF7D
S11307D00000000000FFFF0F0F0F0F0F38444438D4
S11307E044FC4A4A4A347E02020606027E027E0223
S11307F063554941633844443C04407E201E20062E
S1130800027E020299A5E7A5991C2A492A1C4C726A
S113081001724C304A4D4D303048784830BC625AF1
S1130820463D3E494949007E0101017E2A2A2A2A81
S11308302A44445F444440514A444040444A51405D
S11308400000FF0103E080FF000008086B6B08361E
S113085012362436060F090F06000018180000008F
S11308601010003040FF0101001F01011E00191D7E
S11308701712003C3C3C3C0000000000000000005B
S11308800001800000000000000000000380000060
S11308900000000000000007C0000000000000008D
S11308A0000007C00000000000000000000FC000AE
S11308B000000000000000001FE000000000000035
S11308C00000001FE00000000000000000003FE006
S11308D00000000000000000003FF00000000000E5
S11308E0000000007FF0000000000000001FF87FFF
S11308F0F0000000000000003FFE7FF00000000058
S11309000000003FFF7FF0000000000000001FFF18
S1130910FBE0000000000000000FFFF9FFC0000032
S1130920000000000FFFF9FFF800000000000007BE
S1130930FFF1FFFF00000000000003FC73FFFF80D5
S1130940000000000001FE3FFFFF800000000000E7
S113095000FF1E0FFF000000000000007FFE1FFCD0
S1130960000000000000003FFFFFF800000000004E
S113097000000FDFFFE0000000000000001F19FF6F
S1130980C0000000000000003F3CFF000000000029
S11309900000007E7CF800000000000000007FFEE4
S11309A07C0000000000000000FFFFFC00000000CD
S11309B000000000FFFFFE0000000000000000FF38
S11309C0FFFE0000000000000001FFEFFE00000039
S11309D00000000001FFCFFE000000000000000343
S11309E0FF07FE0000000000000003FC07FE0000FB
S11309F0000000000003F003FE00000000000000FF
S1130A00018000FE000000000000000000007E00E5
S1130A100000000000000000003E00000000000094
S1130A20000000000C000000000000078000FC0033
S1130A300003C0000000078001FC000003C00000A8
S1130A4000078001FC000003C0000000078001E0F3
S1130A500000001E000000078001E00000001E00EE
S1130A607FE3F79FF9FDE7787BDFC0FFF7FFBFFD6A
S1130A70FDFF787BDFC0FFF7FFBFFDFDFF787BDF65
S1130A80C0F0F787BC3DE1FF787BDE00F0F787BC60
S1130A903DE1F0787BDE0000F787803DE1E0787B84
S1130AA0DE007FF7879FFDE1E0787BDE00FFF787BC
S1130AB0BFFDE1E0787BDE00F0F787BC3DE1E07844
S1130AC07BDE00F0F787BC3DE1E0787BDE00F0F7E9
S1130AD087BC3DE1E0787BDE00FFF7FFBFFDE1E08E
S1130AE07FFBDFC0FFF7FFBFFDE1E07FFBDFC07CE2
S1130AF0F3F39F3DE1E03E7BCFC000000000000027
S1130B000000000000FFFFFFFFFFFFFFFFFFFFC02B
S1130B10FFFFFFFFFD68DB111A31C0FFFFFFFFFD80
S1130B202B5AFB6AEFC0FFFFFFFFFD4B5B3B1A3301
S1130B30C0FFFFFFFFFD6B5BDB6AFDC000006000D0
S1130B4000000000000000000000000000E00000C1
S1130B50000000000000000000000001E0000000B0
S1130B600000000000000000000001F00000000090
S1130B7000000000000000000003F000000000007E
S1130B80000000000000000007F00000000000006A
S1130B900000000000000007F80000000000000052
S1130BA00000000000000FF800000003C0007E00F9
S1130BB00001E0007F0FF800000003C000FE000009
S1130BC001E000FFEFF800000003C000FE00000198
S1130BD0E000FFFFF800000003C000F00000000F79
S1130BE0007FFE7FC0000003C000F00000000F0083
S1130BF03FFE7FF83FF1FBCFFCFEF3BC3DEFE01F6F
S1130C00FE7FFF7FFBFFDFFEFEFFBC3DEFE01FC664
S1130C10FFFF7FFBFFDFFEFEFFBC3DEFE00FE3C7FE
S1130C20FE787BC3DE1EF0FFBC3DEF0007FF87FCB0
S1130C30787BC3DE1EF0F83C3DEF0001FFFFF000BF
S1130C407BC3C01EF0F03C3DEF0001F37FE03FFBAF
S1130C50C3CFFEF0F03C3DEF0003E33F807FFBC3D6
S1130C60DFFEF0F03C3DEF0007E73C00787BC3DE9D
S1130C701EF0F03C3DEF0007FFBE00787BC3DE1E94
S1130C80F0F03C3DEF0007FFFE00787BC3DE1EF072
S1130C90F03C3DEF000FFFFE007FFBFFDFFEF0F0B6
S1130CA03FFDEFE00FFFFF007FFBFFDFFEF0F03FB3
S1130CB0FDEFE00FF9FF003E79F9CF9EF0F01F3D04
S1130CC0E7E01FF1FF00000000000000000000004A
S1130CD0001F80FF007FFFFFFFFFFFFFFFFFFFE01C
S1130CE01C007F007FFFFFFFFEB46D888D18E000BD
S1130CF0001F007FFFFFFFFE95AD7DB577E000008C
S1130D000F007FFFFFFFFEA5AD9D8D19E0000006DB
S1130D10007FFFFFFFFEB5ADEDB57EE0AED580A848
S1130D20D300408D2000A1C8DB40A4A62EAF0080D4
S1130D30C0E0F0F8FCFE000103070F1F3F7F220014
S1130D40FF210000000A0B02090C0D0E0807030422
S1130D50010000000000000000000000000000008E
S1130D60000000000000000000000000000000126D
S1130D70111000000000000000000000000000004E
S1130D8000000000000000000001021020200808FC
S1130D9010204010204080020102010804020101D9
S1130DA002040810204080804020100804020180C2
S1130DB00402018040201008040201080402010119
S1130DC0020408102040800102040810204080051D
S1130DD0050505070508080808020202020A0A08B0
S1130DE008040404040101010101010101030303D6
S1130DF00303030303040707070C0C0C0C0C0C0C73
S1130E000C0202020206060606060606060B0B0B79
S1130E100B0B0B0B0B00002200250028002B002ECF
S1130E20003100340002010000050108010B01003B
S1130E30002100240027002A002D00300033000187
S1130E40010000040107010A0100170F33103E33AB
S1130E503F1011241FBECFEFD1E2DEBFCDBF00E0B3
S1130E600CBF12E0A0E0B2E0EEE3FEE600E00BBF50
S1130E7002C007900D92A03BB107D9F724E0A0EB84
S1130E80B2E001C01D92AD3FB207E1F717E0C8E23E
S1130E90D7E000E006C021970109802FFE010E94DF
S1130EA0DA35C532D10780E00807A9F70E946D330F
S1130EB00C940E37A5C8CF93DF93CDB7DEB710924D
S1130EC0B00281E08093B2021092B30284E161E047
S1130ED00E948A3585E161E00E948A3589EB90E0C1
S1130EE029EB30E0F90120812E7FFC01208389EB7E
S1130EF090E029EB30E0F90120812D7FFC01208373
S1130F0088EB90E028E4FC0120838CEB90E025E45E
S1130F10FC0120830000DF91CF910895CF93DF93EC
S1130F20CDB7DEB78CEB90E02CEB30E0F9012081FB
S1130F302A7BFC01208384E160E00E948A3585E1FC
S1130F4060E00E948A350000DF91CF9108950F93ED
S1130F501F93CF93DF9300D01F92CDB7DEB7698381
S1130F607A838B839C8308EB10E080E094E2A4EF07
S1130F70B0E029813A814B815C81BC01CD010E94A2
S1130F80B835DA01C9014097A109B109B695A79509
S1130F9097958795F801808300000F900F900F902C
S1130FA00F90DF91CF911F910F9108950F93CF93DD
S1130FB0DF93CDB7DEB72B970FB6F894DEBF0FBE25
S1130FC0CDBF8E8378876F8349872A870B8789856E
S1130FD0813210F081E00CC10E943934DC01CB0174
S1130FE08A839B83AC83BD832AC08091B402909191
S1130FF0B502A091B602B091B702892B8A2B8B2B34
S1131000F1F00E9439349B01AC018A819B81AC814F
S1131010BD81281B390B4A0B5B0B8091B402909164
S1131020B502A091B602B091B70282179307A40744
S1131030B50728F48091B902DED285E0D9C0809149
S1131040B002882391F682E08093B0028B8580936E
S1131050B2028FEF809323031092DE02898580937E
S1131060DF02198213C08981882F90E02981222F01
S113107030E04F815885240F351FF90120818254B7
S11310809D4FFC01208389818F5F898399818985A4
S1131090981748F31092B1028E81882F90E0880F40
S11310A0991F982F8091B102892B8093B10280916E
S11310B0B302813009F04AC01092B3020E9439345D
S11310C0DC01CB018A839B83AC83BD838BEB90E0F3
S11310D02091B102FC0120838091B4029091B50269
S11310E0A091B602B091B702892B8A2B8B2BF1F019
S11310F00E9439349B01AC018A819B81AC81BD8102
S1131100281B390B4A0B5B0B8091B4029091B502FA
S1131110A091B602B091B70282179307A407B5074E
S113112028F48091B90267D285E062C08CEB90E02C
S1131130FC018081882F90E088709927892B31F6F3
S11311408CEB90E025ECFC01208305C08CEB90E057
S113115025EEFC0120830E943934DC01CB018A8313
S11311609B83AC83BD832AC08091B4029091B50265
S1131170A091B602B091B702892B8A2B8B2BF1F088
S11311800E9439349B01AC018A819B81AC81BD8171
S1131190281B390B4A0B5B0B8091B4029091B5026A
S11311A0A091B602B091B70282179307A407B507BE
S11311B028F48091B9021FD285E01AC08A85882359
S11311C021F08091B002823079F2809123038F3F25
S11311D011F480E00DC080912303803211F482E089
S11311E007C080912303803311F483E001C084E0BD
S11311F02B960FB6F894DEBF0FBECDBFDF91CF9113
S11312000F910895CF93DF9300D01F92CDB7DEB72F
S11312109B838A836C8380910103282F30E08C8127
S1131220882F90E0820F931F819714F081E02CC0E7
S11312308091B002843011F082E026C0198219C076
S113124080910103282F30E08981882F90E0820F5C
S1131250931F2981222F30E04A815B81240F351F9F
S1131260F901208180529D4FFC01208389818F5F89
S1131270898399818C81981718F3909101038C814B
S1131280890F8093010380E00F900F900F900F90CF
S1131290DF91CF910895CF93DF931F921F92CDB723
S11312A0DEB79A83898389819A819093BD02809362
S11312B0BC0200000F900F90DF91CF910895CF935F
S11312C0DF931F921F92CDB7DEB79A8389838981FA
S11312D09A819093BB028093BA0200000F900F9002
S11312E0DF91CF910895CF93DF931F92CDB7DEB7EF
S11312F089838981882331F08CEB90E025ECFC0113
S1131300208305C08CEB90E025E8FC0120830000DD
S11313100F90DF91CF910895CF93DF93CDB7DEB7D0
S1131320A5970FB6F894DEBF0FBECDBF8CEB90E04F
S113133025EDFC01208388E08D838D81282F30E00A
S113134040E050E08091B4029091B502A091B602C1
S1131350B091B702820F931FA41FB51F0197A10973
S1131360B1092D81222F30E040E050E0BC01CD01D5
S11313700E94B835DA01C90189839A83AB83BC839F
S113138015C18091B4029091B502A091B602B091BA
S1131390B702892B8A2B8B2B09F408C189819A8186
S11313A0AB81BC81892B8A2B8B2B09F4FBC080E099
S11313B090E0A0E2B1E48E839F83A887B9872BEAEB
S11313C03AEA4AEA50E46E817F81888599850E94D1
S11313D00731DC01CB018A879B87AC87BD8720E07E
S11313E030E040E850E46E817F81888599850E94D1
S11313F00731DC01CB018E879F87A88BB98B20E056
S113140030E040E85FE36A857B858C859D850E949A
S1131410F62F88231CF481E08A8BB2C020E03FEFD2
S11314204FE757E46E857F85888999890E94033147
S113143018160CF07BC020E030E04AE754E46E81DB
S11314407F81888599850E94FA2FDC01CB018B8BE3
S11314509C8BAD8BBE8B20E030E04AE755E46B8972
S11314607C898D899E890E940731DC01CB018F8B99
S1131470988FA98FBA8F20E030E040E85FE36F894E
S1131480788D898D9A8D0E94F62F88232CF481E023
S113149090E09C8F8B8F3FC020E03FEF4FE757E4F5
S11314A06F89788D898D9A8D0E94033118164CF5B9
S11314B020E030E040E251E46B897C898D899E898B
S11314C00E940731DC01CB01BC01CD010E946230D6
S11314D0DC01CB019C8F8B8F0FC080E991E09E8F44
S11314E08D8F8D8D9E8D0197F1F79E8F8D8F8B8DB6
S11314F09C8D01979C8F8B8F8B8D9C8D892B69F78D
S11315003FC06F89788D898D9A8D0E946230DC018D
S1131510CB019C8F8B8F8B8D9C8D98A38F8F8F8D00
S113152098A10197F1F798A38F8F2AC020E030E0AB
S11315304FE753E46A857B858C859D850E94033142
S11315401816ACF46E857F85888999890E9462306B
S1131550DC01CB019AA389A389A19AA19CA38BA3A3
S11315608BA19CA10197F1F79CA38BA30FC06A8563
S11315707B858C859D850E946230DC01CB018A8B42
S11315808A898DA38DA18A95F1F78DA389819A818A
S1131590AB81BC810197A109B10989839A83AB838B
S11315A0BC8304C08091B90226D00DC08CEB90E0BE
S11315B0FC018081882F90E080719927892B09F0A4
S11315C0E0CE1092B002A5960FB6F894DEBF0FBE1F
S11315D0CDBFDF91CF910895CF93DF93CDB7DEB721
S11315E08CEB90E025ECFC0120831092B00200000B
S11315F0DF91CF910895CF93DF9300D0CDB7DEB7BD
S11316008B8381E08093B8028B818823B1F088EBCF
S113161090E0FC01808189838AEB90E0FC01808169
S11316208A837CDC48DC8AEB90E02A81FC012083FD
S113163088EB90E02981FC01208300000F900F903B
S11316400F90DF91CF9108951F920F9200905F0049
S11316500F92112400905B000F922F933F934F93AE
S11316605F936F937F938F939F93AF93BF93EF9306
S1131670FF93CF93DF93CDB7DEB789EB90E0FC0106
S11316808081882F90E0887F9927092E000CAA0B6F
S1131690BB0B40E050E028EF30E0841B950B28178B
S11316A0390708F406C1FC018827EE58FF4F8F4F15
S11316B00C94DA358BEB90E02091B102FC0120838D
S11316C081E011DEF6C09091DE028091DF0298176E
S11316D098F48BEB90E02091DE0231E0320F3093EE
S11316E0DE02222F30E022543D4FF9012081FC011B
S11316F0208381E0F8DDDDC08091B202882311F0FF
S11317000BDED7C081E08093B3028CEB90E024EA37
S1131710FC0120831092B002CCC080E280932303AA
S1131720FBDDC7C080E380932303F6DDC2C088E3FA
S11317308093230351DFBDC08091DE0291E0980FB6
S11317409093DE02882F90E02BEB30E0F9012081AA
S113175082549D4FFC0120839091DE028091DF0230
S1131760981718F481E0BFDDA4C080E0BCDDA1C0FF
S11317708091DE0291E0980F9093DE02882F90E032
S11317802BEB30E0F901208182549D4FFC01208332
S11317908091B202882311F0BFDD8BC081E0809379
S11317A0B3028CEB90E024EAFC0120831092B00297
S11317B080C0B2DD7EC083E08093B0021092220329
S11317C081E091DD76C080912203803298F480918B
S11317D0220391E0980F90932203882F90E02BEB43
S11317E030E0F90120818E5F9C4FFC01208381E071
S11317F07ADD5FC080E077DD5CC0EEDE809122039D
S1131800803240F480912203882F90E08E5F9C4FB9
S1131810FC0110822091BC023091BD028091220310
S1131820882F90E0BC0182E093E0F90119951092B1
S113183022033FC080E057DD3CC084E08093B002C7
S113184010920003109201038091BA029091BB029E
S1131850FC01199580910103882329F481E0809388
S113186001031092E0028BEB90E02091000331E041
S1131870320F30930003222F30E020523D4FF90104
S11318802081FC012083909100038091010398172B
S113189018F481E028DD0DC080E025DD0AC081E078
S11318A022DD1092B00205C01092230335DD01C081
S11318B000000000DF91CF91FF91EF91BF91AF91B4
S11318C09F918F917F916F915F914F913F912F9154
S11318D00F9000925B000F9000925F000F901F909A
S11318E01895CF93DF9300D01F92CDB7DEB79A83BC
S11318F089837C836B8389819A812B813C81FC0160
S11319003383228300000F900F900F900F90DF918C
S1131910CF910895CF93DF931F921F92CDB7DEB777
S11319209A83898327EA32E089819A81FC01318391
S1131930208389819A81FC011382128200000F9016
S11319400F90DF91CF910895CF93DF931F921F9251
S1131950CDB7DEB79A83898380E090E00F900F9033
S1131960DF91CF910895CF93DF931F921F92CDB74C
S1131970DEB79A83898300000F900F90DF91CF9197
S11319800895CF93DF931F921F92CDB7DEB79A834A
S1131990898389819A81BEDF2CE132E089819A8131
S11319A0FC013183208329813A8188EE93E0A0E011
S11319B0B0E0F90184839583A683B78300000F9078
S11319C00F90DF91CF910895CF93DF931F921F92D1
S11319D0CDB7DEB79A83898389819A81D2DF2AE0E1
S11319E032E089819A81FC013183208300000F90C9
S11319F00F90DF91CF910895CF93DF931F921F92A1
S1131A00CDB7DEB79A8389831092440310924503BD
S1131A1010926703109268034EDA81EE9EE04FDC69
S1131A2084E99EE038DC00000F900F90DF91CF91A5
S1131A300895CF93DF9300D000D0CDB7DEB79A835B
S1131A4089834B835C836D837E838B819C81AD8191
S1131A50BE81BC01CD017BDA000026960FB6F89456
S1131A60DEBF0FBECDBFDF91CF910895CF93DF933B
S1131A7000D0CDB7DEB79A8389836B8381E08093EE
S1131A8069038B8180934603109267031092680365
S1131A9000000F900F900F90DF91CF910895CF9396
S1131AA0DF9300D01F92CDB7DEB79A8389837C83FE
S1131AB06B832B8189819A81622FD8DF00000F907C
S1131AC00F900F900F90DF91CF9108950F93CF93C4
S1131AD0DF9300D01F92CDB7DEB79B838A836C83DC
S1131AE090916803809146030C8121E0492F67E4BB
S1131AF073E05CDA89831092670310926803109292
S1131B00690389810F900F900F900F90DF91CF910F
S1131B100F910895CF93DF931F921F92CDB7DEB735
S1131B209A83898389819A8161E0D0DF0F900F9035
S1131B30DF91CF910895CF93DF9300D0CDB7DEB777
S1131B409A8389836B83809169038823F9F0809158
S1131B506803803240F089819A8161E070E0C1DEDF
S1131B6080E090E019C080916703882F90E02B817A
S1131B70895B9C4FFC012083809167038F5F809376
S1131B806703809167038093680304C0CE010396C2
S1131B9061E038DB81E090E00F900F900F90DF91CF
S1131BA0CF910895CF93DF93CDB7DEB728970FB6C3
S1131BB0F894DEBF0FBECDBF9C838B837E836D8381
S1131BC058874F8380916903882321F11A821982EF
S1131BD029813A818F8198852817390700F58B81EF
S1131BE09C81FC0180819181FC01208131814D81A6
S1131BF05E8189819A81840F951FFC0140818B81CC
S1131C009C81642FF901199589819A8101969A839F
S1131C108983DECF2F818D819E81622FF3DA8F81BC
S1131C20988528960FB6F894DEBF0FBECDBFDF911E
S1131C30CF910895CF93DF931F921F92CDB7DEB754
S1131C409A83898380914503282F30E0809144034F
S1131C50882F90E0A901481B590BCA010F900F90DF
S1131C60DF91CF910895CF93DF9300D01F92CDB72A
S1131C70DEB79C838B838FEF9FEF9A838983909148
S1131C80440380914503981788F480914403882F76
S1131C9090E08C5D9C4FFC018081882F90E09A83BA
S1131CA08983809144038F5F8093440389819A815F
S1131CB00F900F900F900F90DF91CF910895CF93D5
S1131CC0DF9300D01F92CDB7DEB79C838B838FEF59
S1131CD09FEF9A83898390914403809145039817D9
S1131CE060F480914403882F90E08C5D9C4FFC014C
S1131CF08081882F90E09A83898389819A810F90CB
S1131D000F900F900F90DF91CF910895CF93DF93B1
S1131D101F921F92CDB7DEB79A83898300000F907C
S1131D200F90DF91CF910895CF93DF9300D01F924E
S1131D301F92CDB7DEB79B838A837D836C838091AA
S1131D406C0390916D03892B89F1909144038091E8
S1131D504503981768F119828981282F30E08C8116
S1131D609D8128173907A4F48981882F90E029815F
S1131D70222F30E04A815B81240F351FF901208135
S1131D808C5D9C4FFC01208389818F5F8983E4CF24
S1131D90109244038C818093450320916C0330910D
S1131DA06D038C819D81F901199503C0000001C068
S1131DB000000F900F900F900F900F90DF91CF9134
S1131DC00895CF93DF93CDB7DEB780916A039091E6
S1131DD06B03892B59F0109267031092680380916A
S1131DE06A0390916B03FC01199501C00000DF9117
S1131DF0CF910895CF93DF9300D01F92CDB7DEB774
S1131E009A8389837C836B8389819A81019739F4CE
S1131E108B819C81019619F48EE693E0D5DD000058
S1131E200F900F900F900F90DF91CF910895CF9363
S1131E30DF93CDB7DEB76FEF7FEF81E090E0DADFBD
S1131E40DF91CF910895CF93DF9300D000D0CDB729
S1131E50DEB79A8389834B835C836D837E838B8116
S1131E609C81AD81BE81E981FA8126E0AC01BD018E
S1131E70CF010E947332000026960FB6F894DEBF9D
S1131E800FBECDBFDF91CF910895CF93DF9300D0E4
S1131E9000D0CDB7DEB79A8389837C836B835E835E
S1131EA04D8389819A812B813C81FC01358724876C
S1131EB089819A812D813E81FC0137872687000024
S1131EC026960FB6F894DEBF0FBECDBFDF91CF913B
S1131ED00895CF93DF9300D01F92CDB7DEB79A83D6
S1131EE089837C836B8389819A812B813C81FC016A
S1131EF0338B228B89819A81FC01228933898981E0
S1131F009A81FC01318B208B00000F900F900F9071
S1131F100F90DF91CF9108950F93CF93DF93CDB7B7
S1131F20DEB740E855E260E070E083E594E08BDFE3
S1131F3001E021E04CE362E08AE793E00E94F120B3
S1131F40982F81E08927882341F08AEF92E0BC0131
S1131F5083E594E00E94DF33FFCF0000DF91CF914F
S1131F600F910895CF93DF93CDB7DEB78AE793E05F
S1131F700E94412661E08AE793E00E94D01C61E060
S1131F8070E08AE793E0A5DF40E050E060E070E0B5
S1131F908AE793E07ADF84E193E0BC018AE793E087
S1131FA00E94DF338AE793E00E949F2A60ED77E086
S1131FB080E090E00E945E340000DF91CF910895AC
S1131FC08F929F92AF92BF92CF92DF92EF92FF9245
S1131FD00F93CF93DF9300D01F92CDB7DEB79A83D0
S1131FE089837C836B8389819A810197F9F48B813E
S1131FF09C810196D9F40F2EF0EA8F2EF6E89F2EDD
S1132000AA24A394B12CF02D0F2EF0E8CF2EFAE1E0
S1132010DF2EF6E0EF2EF12CF02D04E02EE633E077
S113202040E460E88AE793E00E94011E89819A8176
S1132030892B41F48B819C81019621F48AE793E0FA
S11320400E94931E00000F900F900F900F90DF914D
S1132050CF910F91FF90EF90DF90CF90BF90AF9012
S11320609F908F900895CF93DF93CDB7DEB76FEF36
S11320707FEF81E090E0A4DFDF91CF910895CF93CB
S1132080DF93CDB7DEB76FEF7FEF80E090E098DFAE
S1132090DF91CF910895CF93DF9300D0CDB7DEB712
S11320A09B838A838091BB03882331F18FE590E081
S11320B0FC0180818983F8948091BB038130C9F449
S11320C08DE390E0FC0180818093BD038DE390E07B
S11320D02DE330E0F9012081322F2091BC032095BB
S11320E02323FC0120838FE590E02981FC012083D8
S11320F003C089818093BD038CE490E02A81FC01B4
S113210020838DE490E02B81FC01208300000F905C
S11321100F900F90DF91CF910895CF93DF931F928B
S1132120CDB7DEB78091BB038823E1F08FE590E063
S1132130FC0180818983F8948091BB03813061F430
S11321408DE390E02091BD03FC0120838FE590E0B6
S11321502981FC01208306C08FE590E02091BD0316
S1132160FC01208300000F90DF91CF910895CF935D
S1132170DF931F921F92CDB7DEB79A83898389813B
S11321809A81FC01808591850F900F90DF91CF910A
S11321900895CF93DF931F921F92CDB7DEB79A8332
S11321A0898389819A81FC01828593850F900F90A0
S11321B0DF91CF910895CF93DF931F921F92CDB7F4
S11321C0DEB79A83898389819A81FC0186890F907D
S11321D00F90DF91CF910895CF93DF93CDB7DEB702
S11321E027970FB6F894DEBF0FBECDBF9E838D83B5
S11321F06F838F81282F30E0C901880F991F880FC2
S1132200991F880F991FAC01421B530B9A018D81B2
S11322109E8102969A83898389819A81FC014591E2
S11322205491CF015C834B839A8389838B819C81F6
S1132230820F931F27960FB6F894DEBF0FBECDBF53
S1132240DF91CF910895CF93DF9300D000D0CDB725
S1132250DEB79E838D838D819E819A838983898154
S11322609A81FC0125913491CF013C832B839A837D
S113227089838B819C8126960FB6F894DEBF0FBEAE
S1132280CDBFDF91CF910895CF93DF9300D000D0DD
S1132290CDB7DEB79A8389837C836B835E834D835A
S11322A089819A8137DB2EE232E089819A81FC01AF
S11322B03183208389819A812B813C81FC01358380
S11322C0248389819A812D813E81FC013783268371
S11322D089819A81FC012481358189819A81FC015B
S11322E03187208789819A81FC0126813781898100
S11322F09A81FC013387228789819A81FC01168A9D
S113230089819A81FC011586148689819A81FC0150
S11323102485358589819A81FC01378726878981BF
S11323209A8121E0FC01258B89819A81FC01258910
S113233089819A81FC01248B89819A812FEF3FEF57
S1132340FC01338B228B89819A81FC012289338998
S113235089819A81FC01318B208B89819A8121E0CA
S1132360FC01278B89819A81FC01108E89819A81D5
S1132370FC01128E118E000026960FB6F894DEBF73
S11323800FBECDBFDF91CF910895EF92FF920F93CF
S11323901F93CF93DF93CDB7DEB76E970FB6F89444
S11323A0DEBF0FBECDBF9C8B8B8B7E8B6D8B588F0E
S11323B04F8B3A8F298F1C8F0B8FFE8EED8E2B8DBA
S11323C03C8D8F89988DA901481B590BCA0199230B
S11323D01CF4919581959109AC01298D3A8D8D89D3
S11323E09E89B901681B790BCB0199231CF4919543
S11323F08195910921E0841795070CF020E0822F44
S113240090E09E838D838D819E81892BC1F08D897F
S11324109E8998878F838F89988D9E8B8D8B8F81D2
S11324209885988F8F8B898D9A8D9A8789878B8DC4
S11324309C8D9A8F898F89859A859C8F8B8F2D8906
S11324403E89898D9A8D82179307C4F48D899E895C
S11324509C878B87898D9A8D9E8B8D8B8B859C8594
S11324609A8F898F8F89988D9E878D878B8D9C8D70
S1132470988F8F8B8D859E859C8F8B8F298D3A8D20
S11324808D899E89D901A81BB90BCD01988B8F87A3
S11324902B8D3C8D8F89988DF901E81BF90BCF01A9
S11324A099231CF49195819591099A8B898B8F8539
S11324B0988999230CF40196959587959A83898335
S11324C02F89388D8B8D9C8D281739072CF481E04A
S11324D090E09C838B8304C08FEF9FEF9C838B835E
S11324E02D893E89898D9A8D821793070CF44DC0EE
S11324F08D819E81892B99F08B899C89DC018D913A
S11325009C910C96DC01ED91FC912D8D3E8D4D89B5
S11325105E896F89788D8B899C89199512C08B8906
S11325209C89FC01808191810C96DC01ED91FC91E8
S11325302D8D3E8D4F89588D6D897E898B899C891F
S1132540199529813A8189899A89F901E81BF90B3E
S1132550CF019A83898389819A81992384F42F896D
S1132560388D8B819C81820F931F988F8F8B29814B
S11325703A818F859889820F931F9A8389838D89E5
S11325809E8901969E8B8D8BABCF00006E960FB605
S1132590F894DEBF0FBECDBFDF91CF911F910F9195
S11325A0FF90EF900895CF93DF931F921F92CDB7C2
S11325B0DEB79A83898300000F900F90DF91CF914B
S11325C00895CF93DF93CDB7DEB728970FB6F8946D
S11325D0DEBF0FBECDBF9A8389837C836B835E830A
S11325E04D8338872F8389819A81DC018D919C9159
S11325F00896DC01ED91FC912F8138854D815E8137
S11326006B817C8189819A811995000028960FB687
S1132610F894DEBF0FBECDBFDF91CF9108950F9325
S11326201F93CF93DF93CDB7DEB72A970FB6F894F5
S1132630DEBF0FBECDBF9A8389837C836B835E83A9
S11326404D8338872F831A87098789819A81DC0112
S11326508D919C914C96DC01ED91FC91A985BA85F4
S11326602F8138854D815E816B817C8189819A813E
S11326708D01199500002A960FB6F894DEBF0FBE9F
S1132680CDBFDF91CF911F910F9108950F931F93A9
S1132690CF93DF93CDB7DEB72A970FB6F894DEBF9A
S11326A00FBECDBF9A8389837C836B835E834D8306
S11326B038872F831A87098789819A81DC018D9154
S11326C09C914E96DC01ED91FC91A985BA852F81F0
S11326D038854D815E816B817C8189819A818D01F0
S11326E0199500002A960FB6F894DEBF0FBECDBF31
S11326F0DF91CF911F910F910895EF92FF920F9365
S11327001F93CF93DF93CDB7DEB72C970FB6F89412
S1132710DEBF0FBECDBF9A8389837C836B835E83C8
S11327204D8338872F831A870987FC86EB86898136
S11327309A81DC018D919C918096DC01ED91FC9154
S11327400B851C85A985BA852F8138854D815E81CD
S11327506B817C8189819A8178018D0119950000B2
S11327602C960FB6F894DEBF0FBECDBFDF91CF918C
S11327701F910F91FF90EF900895CF93DF931F92D5
S11327801F92CDB7DEB79A83898300000F900F9014
S1132790DF91CF910895EF92FF920F931F93CF9300
S11327A0DF93CDB7DEB72A970FB6F894DEBF0FBE1E
S11327B0CDBF9A8389837C836B835E834D83388703
S11327C02F831A87098789819A81DC018D919C91D5
S11327D00A96FC012081318189819A81F901199538
S11327E089819A81DC018D919C914496DC01ED9163
S11327F0FC912D813E818F819885820F931FDC018E
S1132800119709851A852B813C814D815E816B81ED
S11328107C8189819A8178018D01199589819A81B8
S1132820FC01808191814696DC012D913C91898146
S11328309A81F901199500002A960FB6F894DEBF23
S11328400FBECDBFDF91CF911F910F91FF90EF90FD
S11328500895EF92FF920F931F93CF93DF93CDB719
S1132860DEB72A970FB6F894DEBF0FBECDBF9A83AA
S113287089837C836B835E834D8338872F831A8798
S1132880098789819A81DC018D919C910A96FC01CA
S11328902081318189819A81F901199589819A81EF
S11328A0DC018D919C914496DC01ED91FC912B818E
S11328B03C818F819885820F931F9C01215031099F
S11328C009851A85AD81BE814D815E816B817C81D4
S11328D089819A8178018D01199589819A81FC01F8
S11328E0808191814696DC012D913C9189819A8168
S11328F0F901199500002A960FB6F894DEBF0FBEB1
S1132900CDBFDF91CF911F910F91FF90EF9008956C
S1132910EF92FF920F931F93CF93DF93CDB7DEB760
S11329202E970FB6F894DEBF0FBECDBF9C838B836A
S11329307E836D8358874F833A8729871C870B874B
S1132940FE86ED868B819C81DC018D919C910A969B
S1132950FC01208131818B819C81F90119958D8144
S11329609E819A8389832D813E8189859A85280F4A
S1132970391F89819A8182179307DCF48B819C81AA
S1132980DC018D919C914096DC01ED91FC91AD852B
S1132990BE852B853C854F81588569817A818B81E1
S11329A09C818D01199589819A8101969A838983E5
S11329B0DACF8B819C81FC01808191814696DC0178
S11329C02D913C918B819C81F901199500002E96E3
S11329D00FB6F894DEBF0FBECDBFDF91CF911F912C
S11329E00F91FF90EF900895EF92FF920F931F9332
S11329F0CF93DF9300D01F92CDB7DEB79A8389833C
S1132A007C836B8389819A81DC018D919C91809672
S1132A10DC01ED91FC9189819A81DC011A964D913A
S1132A205C911B9789819A81DC0118962D913C91C8
S1132A3019976B817C8189819A817B018A0140E0AD
S1132A4050E060E070E0199500000F900F900F9037
S1132A500F90DF91CF911F910F91FF90EF90089508
S1132A60EF92FF920F931F93CF93DF93CDB7DEB70F
S1132A7060970FB6F894DEBF0FBECDBF9E838D83E3
S1132A8078876F835A8749873C872B871E870D87F2
S1132A90F88AEF862F8138858B859C85281739071E
S1132AA091F529853A858D859E858217930764F46F
S1132AB089859A859A8389838D859E859A87898756
S1132AC089819A819E878D878D819E81DC018D917C
S1132AD09C914C96DC01ED91FC912D853E85898578
S1132AE09A85A901481B590BCA019C012F5F3F4FCE
S1132AF0AF85B88949855A856F8178858D819E8196
S1132B008D0119956BC029853A858D859E85281779
S1132B10390791F52F8138858B859C85821793071A
S1132B2064F48F8198859C838B838B859C8598879F
S1132B308F838B819C819C878B878D819E81DC0117
S1132B408D919C914E96DC01ED91FC912B853C85F9
S1132B508F819885A901481B590BCA019C012F5FDD
S1132B603F4FAF85B88949855A856F8178858D81B6
S1132B709E818D01199532C08D819E81DC018D91DC
S1132B809C910A96FC01208131818D819E81F901FD
S1132B9019958D819E81DC018D919C914496DC0177
S1132BA0ED91FC910F851889AD85BE852B853C85FB
S1132BB049855A856F8178858D819E8178018D0143
S1132BC019958D819E81FC01808191814696DC015D
S1132BD02D913C918D819E81F9011995000060969B
S1132BE00FB6F894DEBF0FBECDBFDF91CF911F911A
S1132BF00F91FF90EF900895EF92FF920F931F9320
S1132C00CF93DF93CDB7DEB72C970FB6F894DEBF22
S1132C100FBECDBF9A8389837C836B835E834D8390
S1132C2038872F831A870987FC86EB8689819A81E6
S1132C30DC018D919C910A96FC012081318189816E
S1132C409A81F901199589819A81DC018D919C9170
S1132C504296DC01ED91FC91AB85BC852F813885D2
S1132C604D815E816B817C8189819A818D01199569
S1132C7089819A81FC01808191814296DC01ED91E8
S1132C80FC912D813E8189859A85820F931FAC0129
S1132C9041505109AB85BC852F8138856B817C817E
S1132CA089819A818D01199589819A81FC0180819C
S1132CB091814096DC01ED91FC91AB85BC85298521
S1132CC03A854D815E816B817C8189819A818D01F8
S1132CD0199589819A81FC01808191814096DC015A
S1132CE0ED91FC912B813C818F819885820F931FFC
S1132CF0BC0161507109AB85BC8529853A854D813C
S1132D005E8189819A818D01199589819A81FC015D
S1132D10808191814696DC012D913C9189819A8133
S1132D20F901199500002C960FB6F894DEBF0FBE7A
S1132D30CDBFDF91CF911F910F91FF90EF90089538
S1132D40CF92DF92EF92FF920F931F93CF93DF9373
S1132D50CDB7DEB768970FB6F894DEBF0FBECDBF10
S1132D609C878B877E876D87588B4F873A8B298BFF
S1132D701C8B0B8BFE8AED8AD88ECF8A8B899C891B
S1132D80079699230CF407969595879595958795BD
S1132D90959587959F838E8319828B859C85DC010D
S1132DA08D919C910A96FC01208131818B859C85B3
S1132DB0F90119951B821A822A813B818D899E898A
S1132DC0281739070CF065C01D821C822C813D81B7
S1132DD08B899C89281739070CF050C08C819D8100
S1132DE087709927892B21F08981880F898326C0D0
S1132DF04A815B818E819F81489F9001499F300D5C
S1132E00589F300D11248C819D8199230CF40796D1
S1132E10959587959595879595958795820F931F99
S1132E209C0189899A89820F931F9987888788854D
S1132E309985FC0184918A878A858983898188237D
S1132E40BCF48B859C85DC018D919C910C96DC01F6
S1132E50ED91FC912D853E858C819D81B901680F92
S1132E60791F2F89388D4F8558898B859C851995B5
S1132E708C819D8101969D838C83A8CF8A819B81BF
S1132E8001969B838A838F8598890196988B8F8777
S1132E9093CF8B859C85FC01808191814696DC01D2
S1132EA02D913C918B859C85F901199500006896BC
S1132EB00FB6F894DEBF0FBECDBFDF91CF911F9147
S1132EC00F91FF90EF90DF90CF900895AF92CF9243
S1132ED0DF92EF92FF920F931F93CF93DF93CDB7BF
S1132EE0DEB7EB970FB6F894DEBF0FBECDBF98AB3D
S1132EF08FA77AAB69AB5CAB4BAB2DAB1FAB0EAB07
S1132F00F9AEE8AECAAEABAE8FA598A9DC0159966E
S1132F108D919C915A97892B09F0C7C18FA598A9C7
S1132F20FC012085318589A99AA9821793070CF0A1
S1132F300EC38FA598A9DC011A962D913C911B977D
S1132F408BA99CA9821793070CF001C38AAD282F83
S1132F5030E0C901880F991F820F931F880F991FB2
S1132F609C0189A99AA9820F931F019799230CF4B4
S1132F70EEC28BAD882F90E09C01220F331F220FED
S1132F80331F220F331F8BA99CA9820F931F019714
S1132F9099230CF4DCC28FA598A9FC01908D81E0E3
S1132FA08927882331F08DA9803B18F08DA98F5F84
S1132FB08DAB8FA598A9DC018D919C910A96FC019B
S1132FC0208131818FA598A9F901199519828981E8
S1132FD085300CF007C18DA9282F30E0C901880F76
S1132FE0991F880F991F280F391F8981082E000CFB
S1132FF0990B820F931F84589C4F9F878E878E85D1
S11330009F85FC018491888B88898A831B828B81AC
S113301088300CF0E3C08A81882F90E08170992772
S1133020892B09F465C08AAD813021F58BAD8130DF
S113303009F58FA598A9DC018D919C910C96DC0172
S1133040ED91FC918B81282F880F330B8BA99CA9C0
S1133050A901480F591F8981282F880F330B89A98B
S11330609AA9B901680F791F2EA93FA98FA598A91C
S11330701995AAC08FA598A9FC01808191810E960B
S1133080DC01ED91FC918BAD082F10E08AADC82EC8
S1133090D12C8B81482F880F550B8BAD882F90E056
S11330A0489F9001499F300D589F300D11248BA9E2
S11330B09CA9D901A80FB91F8981482F880F550BE6
S11330C08AAD882F90E0489F9001499F300D589F0A
S11330D0300D112489A99AA9B901680F791F2EA965
S11330E03FA98FA598A979019601AD0119956CC0E6
S11330F028AD39AD8EA99FA92817390709F464C0F2
S11331008AAD813021F58BAD813009F58FA598A961
S1133110FC01808191810C96DC01ED91FC918B8105
S1133120282F880F330B8BA99CA9A901480F591F7D
S11331308981282F880F330B89A99AA9B901680FAF
S1133140791F28AD39AD8FA598A919953DC08FA5D4
S113315098A9FC01808191810E96DC01ED91FC918E
S11331608BAD082F10E08AADC82ED12C8B81482F4F
S1133170880F550B8BAD882F90E0489F9001499F95
S1133180300D589F300D11248BA99CA9D901A80F8B
S1133190B91F8981482F880F550B8AAD882F90E07D
S11331A0489F9001499F300D589F300D112489A9E3
S11331B09AA9B901680F791F28AD39AD8FA598A9CF
S11331C079019601AD0119958B818F5F8B838A817B
S11331D0882F90E0959587958A8319CF89818F5F91
S11331E08983F5CE28AD39AD8EA99FA92817390753
S11331F009F44DC08AAD8130E1F48BAD8130C9F45E
S11332008FA598A9FC01808191814096DC01ED9104
S1133210FC9189A99AA9BC016B5F7F4F28AD39AD98
S11332204BA95CA98FA598A9890128E030E01995DC
S11332302EC08FA598A9FC01808191810E96DC0196
S1133240ED91FC918BAD882F90E08C01000F111F44
S1133250000F111F000F111F8AADA82FB0E08AAD17
S1133260282F30E0C901880F991F880F991F280F54
S1133270391F89A99AA9B901680F791F28AD39ADF9
S11332804BA95CA98FA598A979019D0119958FA5D2
S113329098A9FC01808191814696DC012D913C9195
S11332A08FA598A9F901199553C18FA598A9DC0197
S11332B059968D919C915A9704969A8B898B8989FA
S11332C09A89FC0184918B8B8B899DA9F92FF81B1A
S11332D08F2F8DAB8FA598A9DC0159968D919C9168
S11332E05A976DA90E94EC109D8B8C8B8FA598A981
S11332F0FC01818D928D0E9423119F8B8E8B8C8972
S11333009D89998F888F888D998DFC0125913491A1
S1133310CF013B8F2A8F998F888F8A8D9B8D9D83B8
S11333208C838C899D8902969D8F8C8F8C8D9D8D2D
S1133330FC0184918E8F8E8D8F8F8C899D8903964D
S113334099A388A388A199A1FC0184918AA38AA145
S11333508BA38C899D8905969DA38CA38CA19DA18B
S1133360FC0184918EA38EA18FA38C899D890696DE
S113337099A788A788A599A5FC0184918AA78AA5FD
S11333808BA7188619861B861A861D861C868AAD0D
S1133390823018F48BAD823060F08FA1082E000CBF
S11333A0990B9B878A878BA5082E000C990B9D8708
S11333B08C878FA598A9DC018D919C910A96FC01BC
S11333C0208131818FA598A9F90119951F829F81C8
S11333D08BA1981708F0ADC01E829E818F8D98171F
S11333E008F0A3C0898591E0980F9987882F90E011
S11333F08770992721E0892B09F020E02223A1F08E
S11334008C819D819C012F5F3F4F3D832C832E89AE
S11334103F89820F931F9DA78CA78CA59DA5FC01B6
S113342084918EA78EA58887888588230CF076C022
S11334308AAD813071F58BAD813059F58FA598A98E
S1133440DC018D919C910C96DC01ED91FC918BA596
S1133450282F880F330B8BA99CA9280F391F8F8124
S1133460882F90E0A901480F591F8FA1282F880F9A
S1133470330B89A99AA9280F391F8E81882F90E0D0
S1133480B901680F791F2EA93FA98FA598A919958D
S113349045C08FA598A9FC01808191810E96DC011D
S11334A0ED91FC918BAD082F10E08AADC82ED12C84
S11334B08F81282F30E08C859D85A901480F591FE5
S11334C08BAD882F90E0489F9001499F300D589F05
S11334D0300D11248BA99CA9D901A80FB91F8E8185
S11334E0282F30E08A859B85A901480F591F8AAD92
S11334F0882F90E0489F9001499F300D589F300DD0
S1133500112489A99AA9B901680F791F2EA93FA985
S11335108FA598A979019601AD0119958885880F21
S113352088878E818F5F8E8358CF8F818F5F8F8343
S11335304ECF8FA598A9FC01808191814696DC012C
S11335402D913C918FA598A9F901199501C000000E
S1133550EB960FB6F894DEBF0FBECDBFDF91CF91CF
S11335601F910F91FF90EF90DF90CF90AF9008954F
S1133570AF92CF92EF92FF920F931F93CF93DF936B
S1133580CDB7DEB7A4970FB6F894DEBF0FBECDBF9C
S113359099A388A36AA388A199A1FC01818D928D26
S11335A0892B09F0A8C08AA18A30F1F488A199A1D5
S11335B0FC011586148688A199A1FC01268537850E
S11335C088A199A1FC018589882F90E0880F991F13
S11335D0880F991F880F991F280F391F88A199A157
S11335E0FC0137872687CBC18AA18D3009F4C7C176
S11335F088A199A1FC0187898823D1F188A199A187
S1133600FC014485558588A199A1FC018489282F52
S113361030E0C901880F991F820F931F880F991FEB
S11336209A01280F391F88A199A1FC0180859185F1
S113363082179307ECF488A199A1FC0115861486DE
S113364088A199A1FC012685378588A199A1FC014F
S11336508589882F90E0880F991F880F991F880FFC
S1133660991F280F391F88A199A1FC013787268744
S113367088A199A1FC01B58988A199A1FC01A4891B
S113368088A199A1FC010288F389E02DFCA3EBA396
S113369088A199A1FC012089318988A199A1FC0103
S11336A04685578588A199A1FC016485758588A103
S11336B099A1AB2ECA2EEBA0FCA089012AA106DC9D
S11336C088A199A1FC014485558588A199A1FC0193
S11336D08489282F30E0C901880F991F820F931F16
S11336E0880F991F9A01280F391F88A199A1FC01FD
S11336F03587248744C18AA18A3079F588A199A1A4
S1133700FC011586148688A199A1FC018589482F9E
S113371050E088A199A1FC01818D928D08969A832D
S1133720898389819A81FC0184918B838B81282FE1
S113373030E0429FC001439F900D529F900D112491
S113374028A139A1F90126853785280F391F88A1B9
S113375099A1FC013787268712C18AA18D3009F40B
S11337600EC188A199A1FC01818D928D04969D833F
S11337708C838C819D81FC0184918E838E818F83C7
S11337809AA18F81981798F088A199A1FC01818D45
S1133790928D06969987888788859985FC018491FE
S11337A08A879A858AA1981710F081E001C080E089
S11337B0882309F4E4C09AA18F81292F281B88A1AA
S11337C099A1FC01818D928D622F0E94EC109C873F
S11337D08B878B859C8502969E878D878D859E859C
S11337E0FC0184918F878F85888B8B859C850396BC
S11337F09A8B898B89899A89FC0184918B8B8B891B
S11338008C8B8889882309F494C08C89882309F4D3
S113381090C08B859C8505969E8B8D8B8D899E890A
S1133820FC0184918F8B8F89082E000C990B998F42
S1133830888F88A199A1FC018789882309F451C044
S113384088A199A1FC012485358588A199A1FC0151
S11338508489682F70E08889482F50E0888D998D7D
S1133860480F591F649FC001659F900D749F900D70
S11338701124280F391F88A199A1FC018085918505
S11338808217930774F588A199A1FC011586148603
S113389088A199A1FC018589482F50E088A199A1AC
S11338A0FC01818D928D08969B8F8A8F8A8D9B8DCA
S11338B0FC0184918C8F8C8D282F30E0429FC001B5
S11338C0439F900D529F900D112428A139A1F90115
S11338D026853785280F391F88A199A1FC013787D0
S11338E0268788A199A1FC01B58988A199A1FC0129
S11338F0A48988A199A1FC010288F389E02DFCA385
S1133900EBA388A199A1FC012089318988A199A1FF
S1133910FC014685578588A199A1FC0164857585BC
S113392088A199A1AB2ECA2EEBA0FCA089012AA1E3
S1133930CDDA8B859C8504969E8F8D8F8D8D9E8D83
S1133940FC0184918F8F8F8D482F50E088A199A11D
S1133950FC018489282F30E0429FC001439F900DD1
S1133960529F900D112428A139A1F9012485358590
S1133970280F391F88A199A1FC013587248781E08C
S113398090E0A4960FB6F894DEBF0FBECDBFDF91D2
S1133990CF911F910F91FF90EF90CF90AF9008952A
S11339A0CF93DF9300D0CDB7DEB79A8389836B833F
S11339B089819A814B816B8107D000000F900F9011
S11339C00F90DF91CF910895CF93DF9300D01F9292
S11339D0CDB7DEB79A8389836B834C838B8188232D
S11339E011F02B8101C021E089819A81FC01248B93
S11339F08C81882311F02C8101C021E089819A8176
S1133A00FC01258B00000F900F900F900F90DF9119
S1133A10CF910895CF93DF9300D0CDB7DEB79A83CB
S1133A2089836B838B81282F237089819A81FC0180
S1133A30268B89819A81FC018689882F90E08130C8
S1133A40910509F1823091051CF4892B39F030C0BD
S1133A508230910519F00397B1F02AC089819A81C7
S1133A60FC012481358189819A81FC013187208779
S1133A7089819A81FC012681378189819A81FC019F
S1133A803387228715C089819A81FC012681378179
S1133A9089819A81FC013187208789819A81FC017F
S1133AA02481358189819A81FC0133872287000032
S1133AB000000F900F900F90DF91CF910895CF9356
S1133AC0DF9300D0CDB7DEB79A8389836B83000080
S1133AD00F900F900F90DF91CF910895CF93DF93C4
S1133AE01F92CDB7DEB789838EE490E02981FC0173
S1133AF0208300008DE490E0FC0180818095881F84
S1133B008827881F882309F0F5CF8EE490E0FC0114
S1133B1080810F90DF91CF910895CF93DF93CDB73C
S1133B20DEB72F970FB6F894DEBF0FBECDBF9F87C9
S1133B308E878E859F859A83898380E099E0ADE3A3
S1133B40B0E08B839C83AD83BE8381E08F83188632
S1133B5080E092E1AAE7B0E089879A87AB87BC87C7
S1133B601D868D858630E8F42B813C814D815E81F4
S1133B7089859A85AB85BC85281739074A075B0771
S1133B8080F489859A85AB85BC85B695A79597956C
S1133B90879589879A87AB87BC878D858F5F8D874B
S1133BA0E0CF8D85863011F487E08D879D8581E097
S1133BB089278D878F81882311F480E701C080E5F0
S1133BC098859C70292F282B8D85882F90E09595BA
S1133BD087958370822B282F89819A81FC01208309
S1133BE08D85282F217089819A81FC012183000011
S1133BF02F960FB6F894DEBF0FBECDBFDF91CF91E5
S1133C0008958F929F92AF92BF92CF92DF92EF92DC
S1133C10FF920F93CF93DF93CDB7DEB72F970FB6F5
S1133C20F894DEBF0FBECDBF9A8389836B834C8328
S1133C303E832D830F83C886D986EA86FB868C86CD
S1133C409D86AE86BF868C81482F50E08B81282FBD
S1133C5030E089819A81B9010E9444112AE532E059
S1133C6089819A81FC013183208389819A81FC01B5
S1133C70148E138E8D819E81892B19F08D819E81E6
S1133C8002C08EE693E029813A81F901968F858FEF
S1133C9089819A81FC0110A2178E89819A812FEF64
S1133CA0FC0124A389819A812FEFFC0125A389813A
S1133CB09A812FEFFC0126A389819A812FEFFC01C1
S1133CC027A389819A812F81FC0120A729813A8128
S1133CD088859985AA85BB85F90185AB96ABA7AB89
S1133CE0B0AF29813A818C859D85AE85BF85F90168
S1133CF081AF92AFA3AFB4AF89819A81CE960DDF25
S1133D0000002F960FB6F894DEBF0FBECDBFDF9133
S1133D10CF910F91FF90EF90DF90CF90BF90AF9035
S1133D209F908F900895CF93DF931F921F92CDB7EA
S1133D30DEB79A8389832AE532E089819A81FC017E
S1133D403183208389819A81FC01878D90A1892BFD
S1133D5061F089819A81FC01878D90A10E947A3655
S1133D6089819A81FC0110A2178E00000F900F9098
S1133D70DF91CF910895CF93DF93CDB7DEB7279727
S1133D800FB6F894DEBF0FBECDBF9E838D836F83C5
S1133D908D819E81FC01858D968D892BE9F18D8124
S1133DA09E81FC0181A1282F880F330B8D819E8178
S1133DB0FC01858D968DB9010E944F0D8D819E81E8
S1133DC0FC01858D968DFC0180819181FC0120810F
S1133DD031818D819E81FC01858D968D60E0F90194
S1133DE019958D819E81FC01858D968DFC018081C4
S1133DF09181FC01208131818D819E81FC01858D21
S1133E00968D6F81F90119958D819E81FC01858DB7
S1133E10968D0E948A0D88C08D819E81FC0185A5A6
S1133E2096A52D813E81F90125A536A5F9012081AC
S1133E30422F2D813E81F90123A920952423FC01E1
S1133E4020838D819E819A8389838F818B8389814D
S1133E509A81FC01838D948D892B19F08B813EDE30
S1133E6063C080E88C838C81882309F45DC09B81C6
S1133E708C8189238823A1F089819A81FC0181A501
S1133E8092A529813A81F90121A532A5F901408140
S1133E9029813A81F90121A9242BFC01208315C031
S1133EA089819A81FC0181A592A529813A81F90130
S1133EB021A532A5F9012081422F29813A81F901F6
S1133EC021A920952423FC01208389819A81FC0166
S1133ED083A594A529813A81F90123A534A5F90183
S1133EE0408129813A81F90122A9242BFC012083F4
S1133EF089819A81FC0183A594A529813A81F901DC
S1133F0023A534A5F9012081422F29813A81F901A1
S1133F1022A920952423FC0120838C81882F90E002
S1133F20959587958C839FCF000027960FB6F894BC
S1133F30DEBF0FBECDBFDF91CF910895CF93DF9346
S1133F40CDB7DEB761970FB6F894DEBF0FBECDBF15
S1133F509E878D87788B6F87498B8D859E85FC0125
S1133F60858D968D892B09F492C08D859E85FC01E3
S1133F7081A1282F880F330B8D859E85FC01858DAB
S1133F80968DB9010E944F0D8D859E85FC01858D0E
S1133F90968DFC0180819181FC01208131818D8588
S1133FA09E85FC01858D968D60E0F901199581E06F
S1133FB090E09A83898389899FEF980F998B91E088
S1133FC0882309F490E0992309F459C089819A81DE
S1133FD0809768F18D859E85FC01858D968D0E9464
S1133FE08A0D8D859E85FC0181A1282F880F330BB6
S1133FF08D859E85FC01858D968DB9010E944F0D9E
S11340008D859E85FC01858D968DFC018081918135
S1134010FC01208131818D859E85FC01858D968DE5
S113402060E0F901199581E090E09A8389838D8598
S11340309E85FC01858D968DFC0180819181FC011A
S1134040208131818F859889AC014F5F5F4F588BF8
S11340504F879C838B838B819C81FC0184918D830E
S11340604D818D859E85FC01858D968D642FF9018A
S1134070199589819A8101969A8389839CCF8D852C
S11340809E85FC01858D968D0E948A0DA0C08D852C
S11340909E85FC0185A596A52D853E85F90125A55E
S11340A036A5F9012081422F2D853E85F90123A9EA
S11340B020952423FC01208389899FEF980F998BF5
S11340C091E0882309F490E0992309F480C08F8556
S11340D098899C012F5F3F4F388B2F879F838E8356
S11340E08E819F81FC018491888728858D859E859A
S11340F09A8789872B8789859A85FC01838D948D7E
S1134100892B19F08B85EADCD7CF80E88C878C85E6
S1134110882391F29B858C8589238823A1F0898546
S11341209A85FC0181A592A529853A85F90121A5E5
S113413032A5F901408129853A85F90121A9242B69
S1134140FC01208315C089859A85FC0181A592A56F
S113415029853A85F90121A532A5F9012081422F4B
S113416029853A85F90121A920952423FC0120837E
S113417089859A85FC0183A594A529853A85F90149
S113418023A534A5F901408129853A85F90122A99D
S1134190242BFC01208389859A85FC0183A594A5A1
S11341A029853A85F90123A534A5F9012081422FF7
S11341B029853A85F90122A920952423FC0120832D
S11341C08C85882F90E0959587958C87A0CF0000EB
S11341D061960FB6F894DEBF0FBECDBFDF91CF91CD
S11341E00895CF92DF92EF92FF920F931F93CF9394
S11341F0DF93CDB7DEB7AF970FB6F894DEBF0FBE2F
S1134200CDBF9BA78AA76CA74DA72EA70FA78AA5EA
S11342109BA5FC01878D90A1892B69F58AA59BA597
S1134220FC01248135818AA59BA5FC0186819781A7
S1134230079699230CF407969595879595958795F8
S113424095958795AC01249FC001259F900D349FBF
S1134250900D11240E94E2359C018AA59BA5FC01C6
S113426030A3278F8AA59BA5FC01878D90A1892B5C
S113427011F481E001C080E0882311F080E031C3B3
S11342808AA59BA5FED48AA59BA5FC01868197815E
S1134290819754F18AA59BA5FC018681978180545E
S11342A0910999230CF4019695958795AC018AA5FB
S11342B09BA5FC01848195818255910999230CF475
S11342C0019695958795BC018AA59BA5CC24C3949A
S11342D0D12C6894EE24E6F8F12C02E510E02CE7EA
S11342E038E00E94A01628C08AA59BA5FC018681FF
S11342F09781809799230CF4019695958795AC0145
S11343008AA59BA5FC0184819581835791099923F2
S11343100CF4019695958795BC018AA59BA5CC24A0
S1134320C394D12C6894EE24E5F8F12C03E710E053
S11343302CE33BE00E94A0162CA58AA59BA5FC01BA
S113434022A38AA59BA5FC01858D968D892BF9F066
S11343508DA5882359F48AA59BA5FC0186819781A4
S1134360809711F42CE303C02DE301C02DA58AA589
S11343709BA5FC0121A38FA5882309F45AC18AA512
S11343809BA5FC01858D968D0E94FC0C52C18AA5CB
S11343909BA5FC0186A161E00E944E358AA59BA5E0
S11343A0FC0187A161E00E944E358AA59BA5FC0112
S11343B086A1082E000C990B8153924F9B838A830C
S11343C08A819B81FC0184918C838C81882F90E06D
S11343D0880F991F8B5E914F9E838D838D819E8163
S11343E0FC0125913491CF0138872F839E838D83DF
S11343F08F8198859C018AA59BA5FC0136A725A7DA
S11344008AA59BA5FC0186A1082E000C990B875751
S1134410924F9A87898789859A85FC0184918B8735
S11344208AA59BA52B85FC0123AB8AA59BA5FC0132
S113443087A1082E000C990B8153924F9D878C877E
S11344408C859D85FC0184918E878E85882F90E0D4
S1134450880F991F8B5E914F988B8F878F859889D2
S1134460FC0125913491CF013A8B298B988B8F874E
S113447089899A899C018AA59BA5FC0130AB27A751
S11344808AA59BA5FC0187A1082E000C990B8757D0
S1134490924F9C8B8B8B8B899C89FC0184918D8B97
S11344A08AA59BA52D89FC0124AB8AA59BA5FC01AB
S11344B087A590A92AA53BA5F90127A530A9F9014B
S11344C040812AA53BA5F90124A9242BFC012083C2
S11344D08AA59BA5FC01838D948D892B39F08FA52A
S11344E0882309F4A6C00E941D2DA3C08AA59BA5FC
S11344F0FC0184A161E00E944E358AA59BA5FC01C4
S113450085A161E00E944E358AA59BA5FC0184A18A
S1134510082E000C990B8153924F9F8B8E8B8E89A2
S11345209F89FC018491888F888D882F90E0880F63
S1134530991F8B5E914F9A8F898F898D9A8DFC017B
S113454025913491CF013C8F2B8F9A8F898F8B8D3E
S11345509C8D9C018AA59BA5FC0132A721A78AA555
S11345609BA5FC0184A1082E000C990B8757924F40
S11345709E8F8D8F8D8D9E8DFC0184918F8F8AA54A
S11345809BA52F8DFC0121AB8AA59BA5FC0185A1D0
S1134590082E000C990B8153924F99A388A388A1EC
S11345A099A1FC0184918AA38AA1882F90E0880FA5
S11345B0991F8B5E914F9CA38BA38BA19CA1FC01A3
S11345C025913491CF013EA32DA39CA38BA38DA150
S11345D09EA19C018AA59BA5FC0134A723A78AA5BB
S11345E09BA5FC0185A1082E000C990B8757924FBF
S11345F098A78FA38FA198A5FC01849189A78AA568
S11346009BA529A5FC0122AB8AA59BA5FC0183A53A
S113461094A52AA53BA5F90123A534A5F901208178
S1134620422F2AA53BA5F90122A920952423FC01A8
S113463020838EA5882371F18AA59BA5FC0180A502
S1134640882344F18AA59BA5FC0180A561E00E9412
S11346504E358AA59BA5FC0180A561E00E948A35A0
S113466061E070E080E090E00E945E348AA59BA542
S1134670FC0180A560E00E948A356AE070E080E079
S113468090E00E945E348AA59BA5FC0180A561E0B0
S11346900E948A358AA59BA5FC01858D968D892B60
S11346A091F08AA59BA5FC0185A996A9A7A9B0ADFF
S11346B02AA53BA5F901258D368DAC01BD01C901A3
S11346C00E94190D23C08AA59BA5FC01838D948D9E
S11346D0892B39F08AA59BA5FC0186AD97AD0E9474
S11346E04B108AA59BA5FC0187A590A92AA53BA5EB
S11346F0F90127A530A9F9012081422F2AA53BA55C
S1134700F90124A920952423FC01208324E08AA50F
S11347109BA5422F6CE17DE011DC8AA59BA5FC01E1
S1134720868197812FEF280F8AA59BA5622F23DB13
S113473024E08AA59BA5422F60E27DE0FFDB8AA5E9
S11347409BA5FC0182A1813011F420E101C024E188
S11347508AA59BA5622F0FDB24E08AA59BA5422F87
S113476064E27DE0EBDB82E089838AA59BA52FE8E8
S1134770FC0125AF8AA59BA5FC0184819581803825
S1134780910579F48AA59BA5FC0186819781809780
S113479041F482E089838AA59BA52FE8FC0125AF1B
S11347A03EC08AA59BA5FC01848195818038910532
S11347B0C1F48AA59BA5FC0186819781803491056B
S11347C081F482E189838AA59BA5FC0182A18130C1
S11347D011F42FE901C02FEC8AA59BA5FC0125AF9C
S11347E01EC08AA59BA5FC01848195818036910514
S11347F0B1F48AA59BA5FC0186819781409779F441
S113480082E089838AA59BA5FC0182A1813011F4F1
S113481020E101C02FEA8AA59BA5FC0125AF8AA54A
S11348209BA56AEDA8DA8AA59BA56981A4DA8AA565
S11348309BA561E8A0DA8AA59BA5FC0125AD8AA504
S11348409BA5622F98DA8AA59BA569ED94DA8AA5BF
S11348509BA5FC0182A1813011F422E201C021EF69
S11348608AA59BA5622F87DA26E08AA59BA5422FFD
S113487068E27DE063DB8AA59BA5FC01858D968DAE
S1134880892B91F08AA59BA5FC0181AD92ADA3ADC6
S1134890B4AD2AA53BA5F901258D368DAC01BD012A
S11348A0C9010E94190D1CC08AA59BA5FC0187A5FE
S11348B090A92AA53BA5F90127A530A9F9014081B2
S11348C02AA53BA5F90124A9242BFC0120838AA550
S11348D09BA5FC01838D948D892B11F00E948D1072
S11348E081E0AF960FB6F894DEBF0FBECDBFDF9167
S11348F0CF911F910F91FF90EF90DF90CF9008958B
S1134900CF93DF93CDB7DEB728970FB6F894DEBF09
S11349100FBECDBF9A8389837C836B835E834D8373
S113492038872F838B819C819923D4F089819A8144
S11349300E94B7109C018B819C818217930784F499
S11349408D819E81992364F089819A810E94C91086
S11349509C018D819E818217930714F481E001C02C
S113496080E0882309F483C189819A810E94DB1045
S1134970882F90E08230910581F18330910509F40C
S11349804DC0019709F073C02B813C818D819E81BC
S1134990822793279C838B832D813E818B819C81ED
S11349A0822793279E838D832B813C818D819E81D9
S11349B0822793279C838B8389819A81DC011496B7
S11349C02D913C9115978B819C81F901E81BF90B82
S11349D0CF0101979C838B834AC089819A81DC0132
S11349E014962D913C9115978B819C81F901E81BBC
S11349F0F90BCF0101979C838B8389819A81DC0118
S1134A0016962D913C9117978D819E81F901E81B93
S1134A10F90BCF0101979E838D8329C02B813C81A3
S1134A208D819E81822793279C838B832D813E8158
S1134A308B819C81822793279E838D832B813C814C
S1134A408D819E81822793279C838B8389819A8180
S1134A50DC0116962D913C9117978D819E81F90169
S1134A60E81BF90BCF0101979E838D8300008F8192
S1134A7098858130910541F08130910508F456C044
S1134A80029709F4A4C0F3C089819A81DC015F967E
S1134A902D913C9190978D819E8199230CF40796DA
S1134AA095958795959587959595879549815A818B
S1134AB0FA0144815581849FB001859F700D949FB4
S1134AC0700D11244B815C81460F571F240F351F35
S1134AD049815A81DA015F964D915C919097698181
S1134AE07A81DB011496ED91FC9115978E9FB001AC
S1134AF08F9F700D9E9F700D11248B819C81860F5A
S1134B00971F840F951FFC018081682F8D819E81E2
S1134B10AC014770552781E090E002C0880F991FCF
S1134B204A95E2F7862BD9018C93A1C089819A8199
S1134B30FC01278D30A18D819E8199230CF4079669
S1134B4095958795959587959595879549815A81EA
S1134B50DA0114964D915C911597849FB001859F5D
S1134B60700D949F700D11244B815C81460F571F6B
S1134B70240F351F49815A81FA01478D50A169815B
S1134B807A81DB011496ED91FC9115978E9FB0010B
S1134B908F9F700D9E9F700D11248B819C81860FB9
S1134BA0971F840F951FFC018081682F8D819E8142
S1134BB0AC014770552781E090E002C0880F991F2F
S1134BC04A95E2F780958623D9018C9350C0898158
S1134BD09A81FC01278D30A18D819E8199230CF44B
S1134BE00796959587959595879595958795498188
S1134BF05A81DA0114964D915C911597849FB00106
S1134C00859F700D949F700D11244B815C81460F1C
S1134C10571F240F351F49815A81FA01478D50A12E
S1134C2069817A81DB011496ED91FC9115978E9F31
S1134C30B0018F9F700D9E9F700D11248B819C81FC
S1134C40860F971F840F951FFC018081682F8D812B
S1134C509E81AC014770552781E090E002C0880F27
S1134C60991F4A95E2F78627D9018C93000000002A
S1134C7028960FB6F894DEBF0FBECDBFDF91CF915B
S1134C800895CF93DF931F921F92CDB7DEB79A8317
S1134C90898389819A81FC012481358189819A8162
S1134CA0FC0186819781079699230CF407969595C4
S1134CB087959595879595958795AC01249FC00117
S1134CC0259F900D349F900D11249C0189819A8118
S1134CD0FC01878D90A1A90160E070E00E94073774
S1134CE000000F900F90DF91CF9108950F931F93C1
S1134CF0CF93DF93CDB7DEB72B970FB6F894DEBF13
S1134D000FBECDBF9B838A837D836C835F834E8379
S1134D10398728871B870A8719828A819B81FC012E
S1134D208689882F90E08230910581F18330910546
S1134D3009F454C0019709F085C081E089832C816E
S1134D403D818E819F81822793279D838C832E8131
S1134D503F818C819D81822793279F838E832C8121
S1134D603D818E819F81822793279D838C838A81B5
S1134D709B81FC01248135818C819D81A901481B83
S1134D80590BCA0101979D838C835CC08A819B81E6
S1134D90FC01248135818C819D81A901481B590B1B
S1134DA0CA0101979D838C838A819B81FC012681A2
S1134DB037818E819F81A901481B590BCA01019734
S1134DC09F838E838885998501972C813D81F90184
S1134DD0E81BF90BCF019D838C8334C081E0898368
S1134DE02C813D818E819F81822793279D838C8393
S1134DF02E813F818C819D81822793279F838E837F
S1134E002C813D818E819F81822793279D838C8372
S1134E108A819B81FC01268137818E819F81A90132
S1134E20481B590BCA0101979F838E8388859985F6
S1134E3001972E813F81F901E81BF90BCF019F8374
S1134E408E8300008981882369F0EA85FB852885A3
S1134E5039854E815F816C817D818A819B818F013F
S1134E60E5D10CC0EA85FB85288539854E815F81B3
S1134E706C817D818A819B818F010CD000002B96EF
S1134E800FB6F894DEBF0FBECDBFDF91CF911F9157
S1134E900F9108950F931F93CF93DF93CDB7DEB790
S1134EA02D970FB6F894DEBF0FBECDBF9D838C83C4
S1134EB07F836E83598748873B872A871D870C87A2
S1134EC08885998599230CF4D1C08C819D81FC013E
S1134ED02681378188859985821793070CF0C6C08F
S1134EE08E819F81992354F42A853B858E819F81ED
S1134EF0820F931F9B878A871F821E822E813F8188
S1134F008A859B85280F391F8C819D81FC018481B2
S1134F109581821793076CF48C819D81FC01248117
S1134F2035818E819F81A901481B590BCA019B873A
S1134F308A878A859B85181619060CF097C08C8180
S1134F409D81FC01278D30A18885998599230CF4D6
S1134F500796959587959595879595958795BC0121
S1134F608C819D81FC0184819581689FA001699F4A
S1134F70500D789F500D11248E819F81840F951FB1
S1134F80820F931F9A838983888599859C01277052
S1134F90332781E090E002C0880F991F2A95E2F739
S1134FA08B838C859D858130910531F0813091050D
S1134FB0F8F00297D9F15AC08A859B859C0121504B
S1134FC031093B872A8721E0892B09F420E0222339
S1134FD009F447C089819A819C012F5F3F4F3A832E
S1134FE02983FC0130812B81232BFC012083E4CF16
S1134FF08B8180958B838A859B859C012150310907
S11350003B872A8721E0892B09F420E0222359F1E8
S113501089819A819C012F5F3F4F3A832983FC0148
S113502030812B812323FC012083E5CF8A859B8556
S11350309C01215031093B872A8721E0892B09F4FF
S113504020E0222391F089819A819C012F5F3F4FB8
S11350503A832983FC0130812B812327FC0120839F
S1135060E5CF000003C0000001C0000000002D9641
S11350700FB6F894DEBF0FBECDBFDF91CF911F9165
S11350800F9108950F931F93CF93DF93CDB7DEB79E
S11350902B970FB6F894DEBF0FBECDBF9B838A83D8
S11350A07D836C835F834E83398728871B870A87B8
S11350B019828A819B81FC018689882F90E0823045
S11350C09105D9F18330910509F45FC0019709F086
S11350D085C081E089832C813D818E819F818227D7
S11350E093279D838C832E813F818C819D81822790
S11350F093279F838E832C813D818E819F8182277C
S113510093279D838C838A819B81FC012481358133
S11351108C819D81A901481B590BCA0101979D836C
S11351208C838885998501972C813D81F901E81B41
S1135130F90BCF019D838C8351C08A819B81FC0133
S1135140248135818C819D81A901481B590BCA0199
S113515001979D838C838A819B81FC012681378101
S11351608E819F81A901481B590BCA0101979F8316
S11351708E838885998501972E813F81F901E81BEB
S1135180F90BCF019F838E8329C081E089832C8111
S11351903D818E819F81822793279D838C832E81DD
S11351A03F818C819D81822793279F838E832C81CD
S11351B03D818E819F81822793279D838C838A8161
S11351C09B81FC01268137818E819F81A901481B27
S11351D0590BCA0101979F838E830000898188231C
S11351E069F0EA85FB85288539854E815F816C816C
S11351F07D818A819B818F014DDE0CC0EA85FB8510
S1135200288539854E815F816C817D818A819B816E
S11352108F010CD000002B960FB6F894DEBF0FBEA2
S1135220CDBFDF91CF911F910F9108950F931F93DD
S1135230CF93DF93CDB7DEB768970FB6F894DEBF90
S11352400FBECDBF988B8F877A8B698B5C8B4B8B12
S11352503E8B2D8B188F0F8B89899A8999230CF497
S113526062C18F859889FC012481358189899A8955
S1135270821793070CF057C18B899C89992354F4A6
S11352802D893E898B899C89820F931F9E8B8D8BE0
S11352901C8A1B8A2B893C898D899E89280F391F7A
S11352A08F859889FC0186819781821793076CF416
S11352B08F859889FC01268137818B899C89A90176
S11352C0481B590BCA019E8B8D8B8D899E8918169C
S11352D019060CF028C18B898E838D8989838F856B
S11352E09889FC01878D90A12E8126952695269577
S11352F0622F70E02F853889F90124813581629FFE
S1135300A001639F500D729F500D112429893A8981
S1135310240F351F820F931F9B838A838E8187708E
S11353208C838C81882309F468C098E08C81F92FE0
S1135330F81B8F2F8C838C81882F90E0825D924F95
S113534098878F838F819885FC01849189878985CB
S11353508D8399818C81981798F48C81282F30E063
S11353608981882F90E0281B390B8FEF90E002C0D1
S1135370959587952A95E2F7982F8D8189238D83BA
S11353808F89988D8130910531F08130910578F0C5
S11353900297D9F026C08A819B81FC0190818D817E
S11353A0292F282B8A819B81FC0120831AC08A81A2
S11353B09B81FC018081982F8D8180958923282FE2
S11353C08A819B81FC0120830CC08A819B81FC0122
S11353D090818D81292F28278A819B81FC0120833C
S11353E000008F859889FC01848195819C018A81C4
S11353F09B81820F931F9B838A8399818C81981749
S113540008F491C099818C81F92FF81B8F2F89831F
S11354108981883008F441C08F89988D0297E9F416
S11354208A819B81FC018081282F20958A819B8120
S1135430FC0120838F859889FC01848195819C01DE
S11354408A819B81820F931F9B838A8389818850E1
S113545089838981883008F1E3CF8F89988D892BDE
S113546011F08FEF01C080E08A878A819B812A85B1
S1135470FC0120838F859889FC01848195819C019E
S11354808A819B81820F931F9B838A8389818850A1
S113549089838981883008F0E8CF8981882309F4D9
S11354A042C0898187708C838C81882F90E08A5CCC
S11354B0924F9C878B878B859C85FC0184918D877B
S11354C08D858E878F89988D8130910531F081305B
S11354D0910578F00297D9F026C08A819B81FC015E
S11354E090818E85292F282B8A819B81FC01208322
S11354F01AC08A819B81FC018081982F8E858095BA
S11355008923282F8A819B81FC0120830CC08A81F6
S11355109B81FC0190818E85292F28278A819B817C
S1135520FC0120830000000068960FB6F894DEBFEB
S11355300FBECDBFDF91CF911F910F910895CF93EF
S1135540DF93CDB7DEB72C970FB6F894DEBF0FBE4E
S1135550CDBF9C878B878B859C85FC01858D968D23
S1135560892B91F08B859C85FC0185A996A9A7A917
S1135570B0AD2B853C85F901258D368DAC01BD017F
S1135580C9010E94190D23C08B859C85FC01838D64
S1135590948D892B39F08B859C85FC0186AD97AD64
S11355A00E944B108B859C85FC0187A590A92B85B7
S11355B03C85F90127A530A9F9012081422F2B85CB
S11355C03C85F90124A920952423FC01208325E0AE
S11355D08B859C85422F6EE37DE00E949E1F8B8508
S11355E09C85FC01848195812FEF280F8B859C85F8
S11355F0622F0E94BB1E8B859C85FC012481358112
S11356008B859C85FC0186819781079699230CF4F0
S11356100796959587959595879595958795AC016A
S1135620249FC001259F900D349F900D11249A83CF
S113563089838B859C85FC01878D90A19C838B83BA
S11356408B859C85FC01858D968D892B09F48FC0F3
S11356508B859C85FC0181A1282F880F330B8B85BA
S11356609C85FC01858D968DB9010E944F0D8B851B
S11356709C85FC01858D968DFC0180819181FC01C6
S1135680208131818B859C85FC01858D968D60E41C
S1135690F901199581E090E09E838D8389819A8137
S11356A09C01215031093A83298321E0892B09F493
S11356B020E0222309F453C08D819E81809768F1F4
S11356C08B859C85FC01858D968D0E948A0D8B852A
S11356D09C85FC0181A1282F880F330B8B859C8529
S11356E0FC01858D968DB9010E944F0D8B859C859B
S11356F0FC01858D968DFC0180819181FC012081C6
S113570031818B859C85FC01858D968D60E4F90142
S1135710199581E090E09E838D838B859C85FC01A7
S1135720858D968DFC0180819181FC0120813181E0
S11357308B819C81AC014F5F5F4F5C834B83FC0189
S113574040818B859C85FC01858D968D642FF901A4
S113575019958D819E8101969E838D839FCF8B8524
S11357609C85FC01858D968D0E948A0D9CC08B853D
S11357709C85FC0185A596A52B853C85F90125A56D
S113578036A5F90140812B853C85F90123A9242BF9
S1135790FC01208389819A819C01215031093A833B
S11357A0298321E0892B09F420E0222309F47BC01A
S11357B08B819C819C012F5F3F4F3C832B83FC0199
S11357C020818B859C8598878F8329878F819885F5
S11357D0FC01838D948D892B21F089850E946E1D97
S11357E0D9CF80E88A878A858823A1F299858A851A
S11357F089238823A1F08F819885FC0181A592A536
S11358002F813885F90121A532A5F90140812F8125
S11358103885F90121A9242BFC01208315C08F812F
S11358209885FC0181A592A52F813885F90121A5D0
S113583032A5F9012081422F2F813885F90121A950
S113584020952423FC0120838F819885FC0183A566
S113585094A52F813885F90123A534A5F901408148
S11358602F813885F90122A9242BFC0120838F8103
S11358709885FC0183A594A52F813885F90123A57A
S113588034A5F9012081422F2F813885F90122A9FD
S113589020952423FC0120838A85882F90E0959508
S11358A087958A87A0CF8B859C85FC01858D968DF5
S11358B0892B91F08B859C85FC0181AD92ADA3ADC4
S11358C0B4AD2B853C85F901258D368DAC01BD0128
S11358D0C9010E94190D1CC08B859C85FC0187A5FC
S11358E090A92B853C85F90127A530A9F9014081B0
S11358F02B853C85F90124A9242BFC0120838B856D
S11359009C85FC01838D948D892B11F00E948D1050
S113591000002C960FB6F894DEBF0FBECDBFDF910A
S1135920CF910895CF93DF9300D0CDB7DEB79A839C
S113593089836B8389819A81FC01858D968D892B5E
S113594091F089819A81FC0185A996A9A7A9B0AD96
S113595029813A81F901258D368DAC01BD01C9013A
S11359600E94190D23C089819A81FC01838D948D35
S1135970892B39F089819A81FC0186AD97AD0E940B
S11359804B1089819A81FC0187A590A929813A81CC
S1135990F90127A530A9F9012081422F29813A81F3
S11359A0F90124A920952423FC0120838B818823D9
S11359B011F027EA01C026EA89819A81622F0E94A8
S11359C0BB1E89819A81FC01858D968D892B91F06E
S11359D089819A81FC0181AD92ADA3ADB4AD2981D9
S11359E03A81F901258D368DAC01BD01C9010E94B2
S11359F0190D1CC089819A81FC0187A590A9298170
S1135A003A81F90127A530A9F901408129813A8118
S1135A10F90124A9242BFC01208389819A81FC01AA
S1135A20838D948D892B11F00E948D1000000F90AE
S1135A300F900F90DF91CF910895CF93DF93CDB75F
S1135A40DEB72F970FB6F894DEBF0FBECDBF8FE53C
S1135A5090E0FC0180818983F8948091BA038823C3
S1135A6009F058C084E09EE09B838A838A819B81ED
S1135A70FC0184918C838C818D838EEB9DE09F83CC
S1135A808E838E819F81FC01849188878885898794
S1135A908D81882F90E0880F991F815D914F9B879E
S1135AA08A878A859B85FC0125913491CF013D87A6
S1135AB02C879B878A878C859D859F878E878E857B
S1135AC09F85FC0190818985982381E0992309F0C1
S1135AD080E0882321F061E085E30E948A3561E05B
S1135AE085E3DCD78CE490E02CE430E0F9012081FC
S1135AF02061FC0120838CE490E02CE430E0F90187
S1135B0020812064FC01208361E084E3C7D761E045
S1135B1083E3C4D78091BA038F5F8093BA038FE580
S1135B2090E02981FC01208300002F960FB6F894A1
S1135B30DEBF0FBECDBFDF91CF910895CF93DF932A
S1135B4000D01F921F92CDB7DEB789837B836A830F
S1135B505D834C838981882F90E0825B9B4FFC019D
S1135B608081881F8827881F882331F08A819B8140
S1135B70FC011182108271C08981282F30E0C90193
S1135B80880F991F820F931F880F991F880F991FE1
S1135B909C018981882F90E0825B9B4FFC0180816E
S1135BA0082E000C990B280F391F80915204882F5E
S1135BB090E0281739074CF58981282F30E0C90176
S1135BC0880F991F820F931F880F991F880F991FA1
S1135BD09C018981882F90E0825B9B4FFC0180812E
S1135BE0082E000C990B280F391FC901880F991F23
S1135BF0820F931F82549C4FFC01808186FB88276F
S1135C0080F9813011F481E001C080E0882329F11A
S1135C108981282F30E0C901880F991F820F931FB3
S1135C20880F991F880F991F9C018981882F90E004
S1135C30825B9B4FFC018081082E000C990B280F7E
S1135C40391FC901880F991F820F931F82549C4FDB
S1135C50FC0180818F7360E05DD78981882F90E09B
S1135C609C01225B3B4FF90120812F5F825B9B4F9C
S1135C70FC0120838981282F30E0C901880F991FF6
S1135C80820F931F880F991F880F991F9C01898188
S1135C90882F90E0825B9B4FFC018081082E000CD2
S1135CA0990B280F391F80915204882F90E02817F0
S1135CB039075CF48981882F90E0825B9B4FFC015B
S1135CC080818C3014F481E001C080E0882309F4E1
S1135CD07EC08A819B81FC01408151818981282F6A
S1135CE030E0C901880F991F820F931F880F991FF5
