S0130000426172654D696E696D756D2E73726563BB
S113000047C1000075C1000073C1000071C1000048
S11300106FC100006DC100006BC1000069C1000028
S113002067C1000065C1000063C1000061C1000038
S11300305FC100005DC100005BC1000059C1000048
S113004057C1000055C1000053C1000051C1000058
S11300504FC100004DC100004BC100000C94110AB7
S113006047C10000C4C70000F8C7000041C1000038
S11300703FC100003DC100003BC1000039C1000088
S113008037C1000035C1000033C1000031C1000098
S11300902FC100002DC100002BC1000029C10000A8
S11300A027C1000025C1000023C1000021C10000B8
S11300B01FC100001DC100001BC1000019C10000C8
S11300C017C1000015C1000013C1000011C10000D8
S11300D00FC100000DC100000BC1000009C10000E8
S11300E007C1000008000000BE922449123EABAADA
S11300F0AA2ABECDCCCC4C3E00000080BEABAAAA3E
S1130100AA3E00000000BF000000803F0000000085
S113011000084178D3BB4387D1133D190E3CC3BDBE
S11301204282AD2B3E68EC8276BED98FE1A93E4C6B
S113013080EFFFBE01C4FF7F3F00000000001F0BE3
S1130140240B290B330B3D0BB60B470B4F0B570BF3
S1130150610B6B0B750B840B8E0BB60B980BA20B00
S1130160AC0BD90BDC0BCB0BCF0BD50B130CE00B6F
S1130170E40BEA0BEE0BF20BF80BFC0B000C130C6C
S1130180060C0A0C0E0C00000A0B02090C0D0E08DA
S1130190070304010000000000000000000000004C
S11301A0000000000000000000000000000000004B
S11301B00000121110000000000000000000000008
S11301C000000000000000000000000001021020F8
S11301D02008081020401020408002010201080479
S11301E0020101020408102040808040201008040D
S11301F00201800402018040201008040201080466
S113020002010102040810204080010204081020A9
S113021040800505050507050808080802020202D2
S11302200A0A08080404040401010101010101018E
S11302300303030303030303040707070C0C0C0C59
S11302400C0C0C0C02020202060606060606060642
S11302500B0B0B0B0B0B0B0B0000220025002800D3
S11302602B002E00310034000201000005010801BA
S11302700B0100002100240027002A002D0030007B
S1130280330001010000040107010A01A4025F0810
S113029011241FBECFEFD1E2DEBFCDBF00E00CBF03
S11302A012E0A0E0B2E0E4EBF9E100E00BBF02C031
S11302B007900D92AC34B107D9F723E0ACE4B2E077
S11302C001C01D92AE30B207E1F711E0C8E4D1E0FD
S11302D000E006C021970109802FFE010E94D00C86
S11302E0C634D10780E00807A9F717D70C94D80CB7
S11302F087CE61E08AE00E94140C61E089E00E94EC
S1130300140C61E088E00E94140C26E040E855E2F9
S113031060E070E088E692E007D620E042E060E129
S113032080E592E0DFD162E072E080E592E03ED7C2
S113033040E06BE080E592E0BCD16091000280E592
S113034092E035D741E060E080E592E0B2D168E028
S113035072E080E592E02AC78F929F92AF92BF929B
S1130360CF92DF92EF92FF9286E30E94D40ABC01FF
S1130370990F880B990B41D39B01AC0160E070E0AD
S113038080E894E4D0D220E030E040E85FE362D239
S113039020E030E44CE156E429D4E8D36B017C013D
S11303A00E945B0A4B015C0180914C0290914D02CA
S11303B0A0914E02B0914F02A5019401281B390B64
S11303C04A0B5B0BDA01C901843F9140A105B105D9
S11303D008F4B1C029E537E44CEB53E3C701B60197
S11303E005D4A701960102D423E73FE745E759E383
S11303F032D2A7019601FAD32BEE3FEF43E95AE339
S11304002AD29B01AC0160E070E080E89FE38BD2CC
S113041023E333E948E853E41DD26B017C01809265
S11304204C0290924D02A0924E02B0924F0220E0F4
S113043030E040ED51E491D31816BCF460E470E070
S11304408AE00E94F90A60E070E089E00E94F90AFB
S113045060E070E088E00E94F90A41E067E080E52E
S113046092E027D16FE072E048C020E030E048EC31
S113047051E4C701B60153D287FF17C060E070E0B2
S11304808AE00E94F90A60E070E089E00E94F90ABB
S113049060E470E088E00E94F90A41E067E080E5EA
S11304A092E007D163E172E028C020E030E048EC3C
S11304B051E4C701B60151D387FD22C020E030E0EA
S11304C040ED51E4C701B6012AD287FF19C060E0AC
S11304D070E08AE00E94F90A60E470E089E00E941A
S11304E0F90A60E070E088E00E94F90A41E067E000
S11304F080E592E0DED068E172E080E592E056D6D5
S113050022E030E0B701A60188E692E07AD740E025
S113051066E080E592E0CDD022E030E0B701A601AC
S113052080E592E0FF90EF90DF90CF90BF90AF9086
S11305309F908F9065C7FF90EF90DF90CF90BF9012
S1130540AF909F908F900895CF92EF920F9382E097
S1130550C82E93E0E92E04E025E04BE06CE080E552
S113056092E054D10F91EF90CF90089580E090E005
S113057008950895CF93DF93EC0160E08E810E948B
S1130580500C81E090E0A3D761E08E810E94500C72
S113059081E090E09CD760E08E810E94500C84E65C
S11305A090E0DF91CF9193C7CF92DF92EF92FF92C9
S11305B00F931F93CF93DF936C017C0187E0E80EC8
S11305C0F11CC0E0D0E0062F10E0B8010C2E02C0F0
S11305D0759567950A94E2F76170F70181917F013F
S11305E00E94500C2196C430D10579F7C601DF91E1
S11305F0CF911F910F91FF90EF90DF90CF90BACFE2
S1130600CF92DF92EF92FF920F931F93CF93DF93DA
S11306106C017C0187E0E80EF11CC0E0D0E0062FFD
S113062010E0B8010C2E02C0759567950A94E2F7A4
S11306306170F70181917F010E94500C2196C830AE
S1130640D10579F7C601DF91CF911F910F91FF90EA
S1130650EF90DF90CF908ECF1F93CF93DF93EC0179
S1130660162F642F8C810E94500C8D818F3F19F0BE
S113067060E00E94500C8F85612F84FF05C0CE017D
S1130680DF91CF911F91BCCF70E084E075956795A1
S11306908A95E1F7CE0188DF612FCE01DF91CF91FA
S11306A01F9182CF40E0D8CF61E0FCDF80ED97E07E
S11306B00EC7FC01443008F043E08389481710F06A
S11306C04FEF480FDF01A40FB11D54969C91690FA1
S11306D06068CF01E7CFFC016089262F2460208B5E
S11306E06C60E0CFEF92FF920F931F93CF93DF9351
S11306F0EC01423018F08F8588608F874B8B1C8A01
S113070080E48D8B6E8B70E0605C7F4F6F8B222357
S113071029F0413019F48F8584608F8761E08C81E2
S11307200E94140C8D818F3F19F061E00E94140C1B
S113073061E08E810E94140C7E0187E0E80EF11CBA
S113074000E010E08F8584FD03C084E090E002C0E7
S113075088E090E0081719074CF461E0F7018191F3
S11307607F010E94140C0F5F1F4FECCF80E593ECC8
S1130770AED660E08C810E94500C60E08E810E94B5
S1130780500C8D818F3F19F060E00E94500C6F85F2
S113079064FD16C063E0CE0107DF84E991E197D6DA
S11307A063E0CE0101DF84E991E191D663E0CE01FB
S11307B0FBDE86E990E08BD662E0CE01F5DE11C067
S11307C06062CE016FDF84E991E181D66F8560625A
S11307D0CE0168DF86E990E07AD66F856062CE014B
S11307E061DF6F856062CE015DDF84E0888BCE01BE
S11307F072DFCE0159DF82E0898B66E0CE01DF91A2
S1130800CF911F910F91FF90EF904CCFCF92EF9229
S11308100F93FC011382128282E292E0918380831F
S113082064838FEF8583468327830087E186C286AE
S11308301386148615861686178620E041E060E14B
S1130840CF010F91EF90CF904DCF41E005DF81E0D4
S113085090E008955058BB27AA270ED044C135D143
S113086030F03AD120F031F49F3F11F41EF42AC144
S11308700EF4E095E7FB20C1E92F46D180F3BA17C7
S1130880620773078407950718F071F49EF55EC13B
S11308900EF4E0950B2EBA2FA02D0B01B901900197
S11308A00C01CA01A0011124FF27591B99F0593FDB
S11308B050F4503E68F11A16F040A22F232F342F23
S11308C04427585FF3CF469537952795A795F04071
S11308D05395C9F77EF41F16BA0B620B730B840B86
S11308E0BAF09150A1F0FF0FBB1F661F771F881F3E
S11308F0C2F70EC0BA0F621F731F841F48F4879596
S113090077956795B795F7959E3F08F0B3CF939584
S1130910880F08F09927EE0F979587950895A8D02A
S113092008F481E008950CD0DEC0D6D040F0CDD0DC
S113093030F021F45F3F19F0BFC0511108C1C2C0AB
S1130940E3D098F39923C9F35523B1F3951B550BC1
S1130950BB27AA2762177307840738F09F5F5F4F8E
S1130960220F331F441FAA1FA9F333D00E2E3AF0CF
S1130970E0E830D091505040E695001CCAF729D0E9
S1130980FE2F27D0660F771F881FBB1F2617370738
S11309904807AB07B0E809F0BB0B802DBF01FF2768
S11309A093585F4F2AF09E3F510568F085C0CFC031
S11309B05F3FECF3983EDCF3869577956795B795A2
S11309C0F7959F5FC9F7880F911D9695879597F9BD
S11309D00895E1E0660F771F881FBB1F6217730736
S11309E08407BA0720F0621B730B840BBA0BEE1F4B
S11309F088F7E0950895E89409C097FB3EF4909534
S1130A008095709561957F4F8F4F9F4F9923A9F0E3
S1130A10F92F96E9BB279395F69587957795679572
S1130A20B795F111F8CFFAF4BB0F11F460FF1BC0B6
S1130A306F5F7F4F8F4F9F4F16C0882311F096E949
S1130A4011C0772321F09EE8872F762F05C06623F7
S1130A5071F096E8862F70E060E02AF09A95660FB0
S1130A60771F881FDAF7880F9695879597F9089569
S1130A70990F0008550FAA0BE0E8FEEF16161706AB
S1130A80E807F907C0F012161306E407F50798F013
S1130A90621B730B840B950B39F40A2661F0232B2C
S1130AA0242B252B21F408950A2609F4A140A695A8
S1130AB08FEF811D811D089597F99F6780E870E08D
S1130AC060E008959FEF80EC089500240A941616C0
S1130AD0170618060906089500240A941216130628
S1130AE0140605060895092E0394000C11F48823B6
S1130AF052F0BB0F40F4BF2B11F460FF04C06F5FD2
S1130B007F4F8F4F9F4F089557FD9058440F551FA7
S1130B1059F05F3F71F04795880F97FB991F61F07B
S1130B209F3F79F087950895121613061406551FF2
S1130B30F2CF4695F1DF08C0161617061806991F5E
S1130B40F1CF86957105610508940895E894BB2753
S1130B5066277727CB0197F908958ADF08F48FEF8A
S1130B6008950EF0A6C0AECF6894A6CFD5DFC8F323
S1130B709923D1F3C6F3DF93CF931F930F93FF927F
S1130B80C92FDD2788232AF02197660F771F881F36
S1130B90DAF720E030E040E85FEB9FE3883920F0AB
S1130BA0803E30F021968F7756DEE4EEF0E003C00D
S1130BB052DEE1E1F1E08BD08B01BE01EC01FB2EB2
S1130BC06F5771097595771F880B990B16DF28E10C
S1130BD032E741E35FE316D0AF2D9801AE01FF90F9
S1130BE00F911F91CF91DF9147DE7DCF0BD07BCF4B
S1130BF06CDF28F071DF18F0952309F05DCF62CF28
S1130C001124A5CF81DFA0F3959FD1F3950F50E078
S1130C10551F629FF001729FBB27F00DB11D639FAA
S1130C20AA27F00DB11DAA1F649F6627B00DA11D50
S1130C30661F829F2227B00DA11D621F739FB00DF6
S1130C40A11D621F839FA00D611D221F749F332766
S1130C50A00D611D231F849F600D211D822F762FFF
S1130C606A2F11249F5750408AF0E1F088234AF0FC
S1130C70EE0FFF1FBB1F661F771F881F9150504048
S1130C80A9F79E3F510570F017CF61CF5F3FECF39A
S1130C90983EDCF3869577956795B795F795E79534
S1130CA09F5FC1F7FE2B880F911D9695879597F945
S1130CB008959F3F31F0915020F48795779567957B
S1130CC0B795880F911D9695879597F90895DF93A9
S1130CD0CF931F930F93FF92EF92DF927B018C01CE
S1130CE0689405C0DA2EEF018DDFFE01E894A5912A
S1130CF02591359145915591AEF3EF01BDDDFE018E
S1130D009701A801DA9479F7DF90EF90FF900F91A3
S1130D101F91CF91DF910895FC01918D228D892F30
S1130D2090E0805C9F4F821B91098F7399270895EF
S1130D30FC01918D828D981731F0828DE80FF11DA1
S1130D40858D90E008958FEF9FEF0895FC01918DBC
S1130D50828D981761F0828DDF01A80FB11D5D9619
S1130D608C91928D9F5F9F73928F90E008958FEF87
S1130D709FEF0895FC01538D448D252F30E0842F7F
S1130D8090E0821B930B541710F0CF9608950197AF
S1130D90089586E598E0892B39F080E090E0892B6E
S1130DA019F084D1811125C080E090E0892B41F0B5
S1130DB080E090E0892B21F00E94000081111CC08A
S1130DC080E090E0892B41F080E090E0892B21F0D5
S1130DD00E940000811113C080E090E0892BA1F0F3
S1130DE080E090E0892B81F00E94000081110AC00C
S1130DF008950E940000D8CF0E940000E1CF0E9415
S1130E000000EACF0C9400000895FC01848DDF01FA
S1130E10A80FB11DA35ABF4F2C91848D90E0019669
S1130E208F739927848FA689B7892C93A089B18958
S1130E308C91837080648C93938D848D981306C0F9
S1130E400288F389E02D80818F7D80830895EF925D
S1130E50FF920F931F93CF93DF93EC0181E0888F70
S1130E609B8D8C8D981305C0E889F989808185FD57
S1130E7025C0F62E0B8D10E00F5F1F4F0F73112747
S1130E80E02E8C8DE8120BC00FB607FCFACFE88970
S1130E90F989808185FFF5CFCE01B7DFF2CF8B8D45
S1130EA0FE01E80FF11DE35AFF4FF0829FB7F8945B
S1130EB00B8FEA89FB89808180620AC09FB7F8940E
S1130EC0EE89FF896083E889F98980818370806471
S1130ED080839FBF81E090E0DF91CF911F910F91BC
S1130EE0FF90EF900895CF93DF93EC01888D8823D2
S1130EF0C1F0EA89FB89808185FD05C0A889B9898B
S1130F008C9186FD0EC00FB607FCF5CF808185FF5E
S1130F10F2CFA889B9898C9185FFEDCFCE0175DF19
S1130F20E8CFDF91CF910895CF92DF92EF92FF92B5
S1130F301F93CF93DF93EC016A017B01122FE889A1
S1130F40F98982E080834115514E61057105A9F04C
S1130F5060E079E08DE390E0A7019601FFD4DA0127
S1130F60C9010197A109B109B695A79597958795E8
S1130F709C01211580E13807A0F0E889F9891082E5
S1130F8060E874E88EE190E0A7019601E7D4DA0105
S1130F90C9010197A109B109B695A79597958795B8
S1130FA09C01EC85FD853083EE85FF852083188EBA
S1130FB0EC89FD891083EA89FB89808180618083C3
S1130FC0EA89FB89808188608083EA89FB89808142
S1130FD080688083EA89FB8980818F7D8083DF91AB
S1130FE0CF911F91FF90EF90DF90CF9008951F92C3
S1130FF00F920FB60F9211240BB60F922F938F936B
S11310009F93EF93FF93E0917802F09179028081AE
S1131010E0917E02F0917F0282FD12C09081809166
S113102081028F5F8F7320918202821751F0E091C9
S11310308102F0E0E859FD4F958F8093810201C051
S11310408081FF91EF919F918F912F910F900BBE13
S11310500F900FBE0F901F9018951F920F920FB60E
S11310600F9211240BB60F922F933F934F935F93DC
S11310706F937F938F939F93AF93BF93EF93FF935C
S113108088E692E0C2DEFF91EF91BF91AF919F910C
S11310908F917F916F915F914F913F912F910F901D
S11310A00BBE0F900FBE0F901F90189588E692E02C
S11310B033DE21E0892B09F420E0822F0895E8E64D
S11310C0F2E01382128288EE93E0A0E0B0E0848321
S11310D09583A683B7838EE292E09183808385EC27
S11310E090E09587848784EC90E09787868780ECEE
S11310F090E0918B808B81EC90E0938B828B82ECDF
S113110090E0958B848B86EC90E0978B868B118E88
S1131110128E138E148E08950895E4D1FDDFE9D85C
S1131120C9ECD6E019D92097E9F333DEFBCFCF928F
S1131130DF92EF92FF920F931F93CF93DF936C0193
S11311407A018B01C0E0D0E0CE15DF0581F0D80133
S11311506D918D01D601ED91FC910190F081E02D0E
S1131160C6011995892B11F02196EECF7E01C70196
S1131170DF91CF911F910F91FF90EF90DF90CF906F
S113118008956115710579F0FB0101900020E9F7DC
S11311903197AF01461B570BDC01ED91FC910280A6
S11311A0F381E02D199480E090E00895EACFDC010A
S11311B0ED91FC910190F081E02D19946CE372E0C3
S11311C0E0CF8F929F92AF92BF92EF92FF920F93D4
S11311D01F93CF93DF93CDB7DEB7A1970FB6F894E3
S11311E0DEBF0FBECDBF7C01FA01CB0119A22230B4
S11311F008F42AE08E010F5D1F4F822E912CA12C42
S1131200B12CBF01A5019401A9D3F901CA01015070
S113121011096A3010F4605D01C0695CD8016C93F7
S1131220232B242B252B69F7B801C701AADFA1962C
S11312300FB6F894DEBF0FBECDBFDF91CF911F91E3
S11312400F91FF90EF90BF90AF909F908F90089573
S11312502115310541F4DC01ED91FC910190F081FF
S1131260E02D642F1994ADCF9A01AB0160E070E0DA
S1131270EFCF7F928F929F92AF92BF92CF92DF92E5
S1131280EF92FF920F931F93CF93DF938C016A0128
S11312907B01722E9A01AB01C701B6015BD388238F
S11312A019F06FE372E024C046015701E894B7F8DF
S11312B02FEF3FEF4FE75FE7C501B4014BD3811137
S11312C00CC02FEF3FEF4FE75FE7C501B40127DB09
S11312D018161CF463E472E00BC02FEF3FEF4FE7E6
S11312E05FE4C701B60139DC18168CF467E472E0D8
S11312F0C801DF91CF911F910F91FF90EF90DF9084
S1131300CF90BF90AF909F908F907F903ACF2FEF68
S11313103FEF4FE75FECC701B60101DB87FDE6CF86
S113132020E030E0A901C701B601F9DA87FF09C05E
S11313306DE2C8013CDFEC01F7FAF094F7F8F094A1
S113134002C0C0E0D0E0B12C60E070E080E09FE338
S11313507B1439F020E030E040E251E4E4DAB39465
S1131360F7CFA701960177DA6B017C01C7D24B0155
S11313705C012AE0AB01BC01C80123DFC80FD91FFF
S1131380772079F1C501B40136DB9B01AC01C701BB
S1131390B60160DA6B017C016EE2C80108DFC80F98
S11313A0D91F20E030E040E251E4C701B6011EDC61
S11313B04B015C01A3D26B017C014AE050E0C801FF
S11313C053DFC80FD91FB60180E090E014DB9B0106
S11313D0AC01C501B4013EDA6B017C017A94711051
S11313E0E0CFCE01DF91CF911F910F91FF90EF904D
S11313F0DF90CF90BF90AF909F908F907F90089593
S113140038CF0F931F93CF93DF93EC0132DF8C011E
S1131410CE01D4DE800F911FDF91CF911F910F91E8
S113142008951F920F920FB60F9211242F933F939A
S11314308F939F93AF93BF9380910603909107037B
S1131440A0910803B09109033091050323E0230F11
S11314502D3720F40196A11DB11D05C026E8230FE8
S11314600296A11DB11D209305038093060390935A
S11314700703A0930803B093090380910A03909192
S11314800B03A0910C03B0910D030196A11DB11D96
S113149080930A0390930B03A0930C03B0930D0362
S11314A0BF91AF919F918F913F912F910F900FBE5C
S11314B00F901F9018952FB7F894609106037091C0
S11314C0070380910803909109032FBF0895823088
S11314D0910538F0880F991F880F991F0597019778
S11314E0F1F70895789484B5826084BD84B58160F1
S11314F084BD85B5826085BD85B5816085BDEEE618
S1131500F0E0808181608083E1E8F0E010828081F6
S113151082608083808181608083E0E8F0E0808164
S113152081608083E1EBF0E0808184608083E0EB84
S1131530F0E0808181608083E1E9F0E08081826075
S11315408083808181608083E0E9F0E08081816034
S11315508083E1EAF0E08081826080838081816021
S11315608083E0EAF0E0808181608083E1E2F1E061
S1131570808182608083808181608083E0E2F1E009
S1131580808181608083EAE7F0E0808184608083E9
S11315908081826080838081816080838081806893
S11315A080831092C1000895863308F08653909189
S11315B07B00282F2870977F922B90937B0020919B
S11315C0010290E4299F900111248770822B80935B
S11315D07C0080917A00806480937A0080917A0004
S11315E086FDFCCF809178002091790090E0922BC9
S11315F008951F93CF93DF93182FEB0161E014D16B
S1131600209711F460E004C0CF3FD10531F461E0CC
S1131610812FDF91CF911F9143C1E12FF0E0EA5771
S1131620FE4FE4918E2F90E0FC013197E231F105F9
S113163008F09CC08827E156FF4F8F4FB1C184B595
S1131640806884BDC7BD97C084B5806284BDC8BDB1
S113165092C080918000806880938000D09389003C
S1131660C093880088C0809180008062809380004D
S1131670D0938B00C0938A007EC0809180008860E4
S113168080938000D0938D00C0938C0074C08091AF
S1131690B00080688093B000C093B3006CC08091A8
S11316A0B00080628093B000C093B40064C08091A5
S11316B09000806880939000D0939900C093980024
S11316C05AC080919000806280939000D0939B00D8
S11316D0C0939A0050C080919000886080939000DD
S11316E0D0939D00C0939C0046C08091A000806868
S11316F08093A0008091A0008F7B8093A000D09362
S1131700A900C093A80037C08091A0008062809394
S1131710A000D093AB00C093AA002DC08091A0007C
S113172088608093A000D093AD00C093AC0023C028
S113173080912001806880932001D0932901C09377
S1131740280119C080912001806280932001D093E8
S11317502B01C0932A010FC08091200188608093DF
S11317602001D0932D01C0932C0105C0C038D105B0
S11317700CF04DCF47CFDF91CF911F91089590E0AA
S1131780FC013197E231F10508F04DC08827EF5490
S1131790FF4F8F4F05C1809180008F7703C08091E8
S11317A080008F7D80938000089580918000877FE2
S11317B0F9CF84B58F7702C084B58F7D84BD089539
S11317C08091B0008F7703C08091B0008F7D8093AB
S11317D0B0000895809190008F7707C080919000A9
S11317E08F7D03C080919000877F8093900008953F
S11317F08091A0008F7707C08091A0008F7D03C0E7
S11318008091A000877F8093A0000895809120019B
S11318108F7707C0809120018F7D03C080912001C4
S1131820877F809320010895CF93DF9390E0FC019C
S1131830E453FE4F2491FC01EE5EFD4F8491882316
S113184061F190E0880F991FFC01EE58FD4FC5919E
S1131850D491FC01E85AFD4FA591B491611109C0DE
S11318609FB7F8948881209582238883EC912E2356
S11318700BC0623061F49FB7F8948881322F3095A1
S113188083238883EC912E2B2C939FBF06C08FB7A4
S1131890F894E8812E2B28838FBFDF91CF91089590
S11318A01F93CF93DF93282F30E0F901EA57FE4FBF
S11318B08491F901E453FE4FD491F901EE5EFD4F9A
S11318C0C491CC23B9F0162F811159DFEC2FF0E02D
S11318D0EE0FFF1FE85AFD4FA591B4919FB7F894FE
S11318E0111104C08C91D095D82302C0EC91DE2B49
S11318F0DC939FBFDF91CF911F9108950DD988F09C
S11319009F5790F0B92F9927B751A0F0D1F0660FE7
S1131910771F881F991F1AF0BA95C9F712C0B13002
S113192081F014D9B1E0089511C9672F782F882761
S1131930B85F39F0B93FCCF3869577956795B39541
S1131940D9F73EF490958095709561957F4F8F4FB0
S11319509F4F08958DD8880B990B0895A1E21A2EF4
S1131960AA1BBB1BFD010DC0AA1FBB1FEE1FFF1F3F
S1131970A217B307E407F50720F0A21BB30BE40B8F
S1131980F50B661F771F881F991F1A9469F76095D6
S11319907095809590959B01AC01BD01CF01089590
S11319A0EE0FFF1F881F8BBF0790F691E02D19944F
S10719B0F894FFCFD5
S11319B4DF0154656D70200046617276653A005209
S11319C4656400626C756500677265656E0000008D
S11319D4000025049708B602B90200000000270796
S11319E49708BA0673078C06A60698060D0A006EB5
S10F19F4616E00696E66006F766600008C
S9030000FC
