S0130000426172654D696E696D756D2E73726563BB
S113000006C1000023C1000021C100001FC100007F
S11300101DC100001BC1000019C1000017C1000070
S113002015C1000013C1000011C100000FC1000080
S11300300DC100000BC1000009C1000007C1000090
S113004005C1000003C1000001C10000FFC00000A1
S1130050FDC00000FBC00000F9C0000023C1000087
S1130060F5C00000F3C00000F1C00000EFC00000C4
S1130070EDC00000EBC00000E9C00000E7C00000D4
S1130080E5C00000E3C00000E1C00000DFC00000E4
S1130090DDC00000DBC00000D9C00000D7C00000F4
S11300A0D5C00000D3C00000D1C00000CFC0000004
S11300B0CDC00000CBC00000C9C00000C7C0000014
S11300C0C5C00000C3C00000C1C00000BFC0000024
S11300D0BDC00000BBC00000B9C00000B7C0000034
S11300E0B5C0000018021B020A020E0214025202DA
S11300F01F02230229022D02310237023B023F0272
S11301005202450249024D0200000A0B02090C0D7D
S11301100E080703040100000000000000000000B6
S113012000000000000000000000000000000000CB
S11301300000000012111000000000000000000088
S113014000000000000000000000000000000102A8
S113015010202008081020401020408002010201D5
S1130160080402010102040810204080804020108D
S113017008040201800402018040201008040201E6
S1130180080402010102040810204080010204084E
S11301901020408005050505070508080808020227
S11301A002020A0A0808040404040101010101010D
S11301B001010303030303030303040707070C0CF0
S11301C00C0C0C0C0C0C02020202060606060606B7
S11301D006060B0B0B0B0B0B0B0B00002200250070
S11301E028002B002E00310034000201000005011C
S11301F008010B0100002100240027002A002D0023
S11302003000330001010000040107010A01112438
S11302101FBECFEFD1E2DEBFCDBF00E00CBF12E0C6
S1130220A0E0B2E0ECEDF5E000E00BBF02C0079007
S11302300D92A230B107D9F722E0A2E0B2E001C0EA
S11302401D92AB30B207E1F722D0C6C1D9CE61E02E
S113025082E029D160E082E062C120910002309105
S11302600102C90183709927892B31F4C90164E61D
S113027070E083D1892B31F4C90160E971E07DD14B
S1130280892B19F461E082E04AC10895089554D09D
S1130290FDDFDDDFC0E0D0E0E0DF2097E9F30E947E
S11302A00000FACF1F920F920FB60F9211242F93D2
S11302B03F938F939F93AF93BF9380910302909149
S11302C00402A0910502B09106023091020223E0DB
S11302D0230F2D3720F40196A11DB11D05C026E87A
S11302E0230F0296A11DB11D2093020280930302E5
S11302F090930402A0930502B09306028091070232
S113030090910802A0910902B0910A020196A11DE0
S1130310B11D8093070290930802A0930902B09341
S11303200A02BF91AF919F918F913F912F910F90AE
S11303300FBE0F901F901895789484B5826084BD89
S113034084B5816084BD85B5826085BD85B58160D5
S113035085BDEEE6F0E0808181608083E1E8F0E035
S11303601082808182608083808181608083E0E864
S1130370F0E0808181608083E1EBF0E08081846043
S11303808083E0EBF0E0808181608083E1E9F0E04C
S1130390808182608083808181608083E0E9F0E0F5
S11303A0808181608083E1EAF0E0808182608083E3
S11303B0808181608083E0EAF0E0808181608083D5
S11303C0E1E2F1E0808182608083808181608083CA
S11303D0E0E2F1E0808181608083EAE7F0E08081FF
S11303E08460808380818260808380818160808357
S11303F08081806880831092C100089590E0FC01A0
S11304003197E231F10508F04DC08827EE58FF4FCF
S11304108F4FC6C0809180008F7703C08091800089
S11304208F7D80938000089580918000877FF9CF2D
S113043084B58F7702C084B58F7D84BD0895809183
S1130440B0008F7703C08091B0008F7D8093B0009F
S11304500895809190008F7707C0809190008F7DE0
S113046003C080919000877F8093900008958091CD
S1130470A0008F7707C08091A0008F7D03C080917A
S1130480A000877F8093A0000895809120018F773A
S113049007C0809120018F7D03C080912001877F58
S11304A0809320010895CF93DF9390E0FC01E25BF9
S11304B0FE4F2491FC01EC56FE4F8491882361F198
S11304C090E0880F991FFC01EC50FE4FC591D49128
S11304D0FC01E652FE4FA591B491611109C09FB78A
S11304E0F8948881209582238883EC912E230BC075
S11304F0623061F49FB7F8948881322F309583235A
S11305008883EC912E2B2C939FBF06C08FB7F89451
S1130510E8812E2B28838FBFDF91CF9108951F93FD
S1130520CF93DF93282F30E0F901E85FFE4F8491E9
S1130530F901E25BFE4FD491F901EC56FE4FC491F0
S1130540CC23B9F0162F811159DFEC2FF0E0EE0F18
S1130550FF1FE652FE4FA591B4919FB7F894111175
S113056004C08C91D095D82302C0EC91DE2BDC938F
S11305709FBFDF91CF911F91089597FB072E16F42B
S1130580009406D077FD08D013D007FC05D03EF4C4
S1130590909581959F4F0895709561957F4F08952B
S11305A0EE0FFF1F881F8BBF0790F691E02D199463
S11305B0AA1BBB1B51E107C0AA1FBB1FA617B70785
S11305C010F0A61BB70B881F991F5A95A9F78095A1
S10F05D09095BC01CD010895F894FFCF74
S10505DCE8072A
S9030000FC
